{"contracts/ChainlinkAnalyzer.sol":{"ChainlinkAnalyzer":{"abi":[{"inputs":[],"stateMutability":"nonpayable","type":"constructor"},{"anonymous":false,"inputs":[{"indexed":false,"internalType":"string","name":"protocol","type":"string"},{"indexed":false,"internalType":"uint256","name":"apy","type":"uint256"},{"indexed":false,"internalType":"uint256","name":"tvl","type":"uint256"}],"name":"ProtocolUpdated","type":"event"},{"inputs":[],"name":"getAllProtocols","outputs":[{"internalType":"string[]","name":"","type":"string[]"}],"stateMutability":"view","type":"function"},{"inputs":[{"internalType":"uint256","name":"riskTolerance","type":"uint256"}],"name":"getBestYieldOpportunities","outputs":[{"components":[{"internalType":"string","name":"protocol","type":"string"},{"internalType":"uint256","name":"apy","type":"uint256"},{"internalType":"uint256","name":"riskScore","type":"uint256"},{"internalType":"bool","name":"recommended","type":"bool"}],"internalType":"struct ChainlinkAnalyzer.YieldOpportunity[]","name":"opportunities","type":"tuple[]"}],"stateMutability":"view","type":"function"},{"inputs":[{"internalType":"string","name":"protocol","type":"string"}],"name":"getProtocol","outputs":[{"components":[{"internalType":"string","name":"name","type":"string"},{"internalType":"uint256","name":"apy","type":"uint256"},{"internalType":"uint256","name":"tvl","type":"uint256"},{"internalType":"uint256","name":"riskScore","type":"uint256"},{"internalType":"bool","name":"isActive","type":"bool"}],"internalType":"struct ChainlinkAnalyzer.ProtocolData","name":"","type":"tuple"}],"stateMutability":"view","type":"function"},{"inputs":[{"internalType":"address","name":"token","type":"address"}],"name":"getTokenPrice","outputs":[{"internalType":"uint256","name":"price","type":"uint256"}],"stateMutability":"view","type":"function"},{"inputs":[],"name":"owner","outputs":[{"internalType":"address","name":"","type":"address"}],"stateMutability":"view","type":"function"},{"inputs":[{"internalType":"address","name":"","type":"address"}],"name":"priceFeeds","outputs":[{"internalType":"contract AggregatorV3Interface","name":"","type":"address"}],"stateMutability":"view","type":"function"},{"inputs":[{"internalType":"uint256","name":"","type":"uint256"}],"name":"protocolList","outputs":[{"internalType":"string","name":"","type":"string"}],"stateMutability":"view","type":"function"},{"inputs":[{"internalType":"string","name":"","type":"string"}],"name":"protocols","outputs":[{"internalType":"string","name":"name","type":"string"},{"internalType":"uint256","name":"apy","type":"uint256"},{"internalType":"uint256","name":"tvl","type":"uint256"},{"internalType":"uint256","name":"riskScore","type":"uint256"},{"internalType":"bool","name":"isActive","type":"bool"}],"stateMutability":"view","type":"function"},{"inputs":[{"internalType":"address","name":"token","type":"address"},{"internalType":"address","name":"feed","type":"address"}],"name":"setPriceFeed","outputs":[],"stateMutability":"nonpayable","type":"function"},{"inputs":[{"internalType":"string","name":"protocol","type":"string"},{"internalType":"uint256","name":"apy","type":"uint256"},{"internalType":"uint256","name":"tvl","type":"uint256"},{"internalType":"uint256","name":"riskScore","type":"uint256"}],"name":"updateProtocol","outputs":[],"stateMutability":"nonpayable","type":"function"}],"evm":{"bytecode":{"linkReferences":{},"object":"60806040523480156200001157600080fd5b50600080546001600160a01b031916331790556200002e62000034565b620004b0565b6040805160e081018252600c60a082019081526b41676e692046696e616e636560a01b60c083015281526104b060208201526307365040818301526023606082015260016080820181905291516361676e6960e01b815290919060040190815260405190819003602001902081518190620000b09082620003e4565b50602082810151600183810191909155604080850151600285015560608501516003808601919091556080909501516004948501805460ff19169115159190911790558454918201855560009490945283518085019094529183526361676e6960e01b90830152600080516020620016c08339815191520190620001359082620003e4565b506040805160e081018252600660a08201818152654c656e646c6560d01b60c0840152825261032060208301526302aea54082840152601960608301526001608083018190529251656c656e646c6560d01b81529192910190815260405190819003602001902081518190620001ac9082620003e4565b50602082810151600183810191909155604080850151600285015560608501516003808601919091556080909501516004909401805460ff19169415159490941790935583549081018455600093909352815180830190925260068252656c656e646c6560d01b90820152600080516020620016c083398151915290910190620002379082620003e4565b506040805160e081018252600760a082018181526608ceae6d2dedcb60cb1b60c084015282526105dc60208301526301ab3f0082840152602d60608301526001608083018190529251660cceae6d2dedcf60cb1b81529192910190815260405190819003602001902081518190620002b09082620003e4565b50602082810151600183810191909155604080850151600285015560608501516003808601919091556080909501516004909401805460ff19169415159490941790935583549081018455600093909352815180830190925260078252660cceae6d2dedcf60cb1b90820152600080516020620016c0833981519152909101906200033c9082620003e4565b50565b634e487b7160e01b600052604160045260246000fd5b600181811c908216806200036a57607f821691505b6020821081036200038b57634e487b7160e01b600052602260045260246000fd5b50919050565b601f821115620003df57600081815260208120601f850160051c81016020861015620003ba5750805b601f850160051c820191505b81811015620003db57828155600101620003c6565b5050505b505050565b81516001600160401b038111156200040057620004006200033f565b620004188162000411845462000355565b8462000391565b602080601f831160018114620004505760008415620004375750858301515b600019600386901b1c1916600185901b178555620003db565b600085815260208120601f198616915b82811015620004815788860151825594840194600190910190840162000460565b5085821015620004a05787850151600019600388901b60f8161c191681555b5050505050600190811b01905550565b61120080620004c06000396000f3fe608060405234801561001057600080fd5b506004361061009e5760003560e01c80638da5cb5b116100665780638da5cb5b1461013a5780639dcb511a14610165578063ac26c3f61461018e578063ae11d78d146101a1578063d02641a0146101c157600080fd5b806307c28c26146100a35780631dae9454146100cc578063741c53eb146100f057806376e11286146101055780637beb41071461011a575b600080fd5b6100b66100b1366004610bd6565b6101e2565b6040516100c39190610c35565b60405180910390f35b6100df6100da366004610c65565b61028e565b6040516100c3959493929190610d16565b6100f8610353565b6040516100c39190610d4f565b610118610113366004610dcd565b61042c565b005b61012d610128366004610e49565b6104a5565b6040516100c39190610e8b565b60005461014d906001600160a01b031681565b6040516001600160a01b0390911681526020016100c3565b61014d610173366004610edd565b6002602052600090815260409020546001600160a01b031681565b61011861019c366004610ef8565b6105cd565b6101b46101af366004610bd6565b6106cf565b6040516100c39190610f52565b6101d46101cf366004610edd565b610ab3565b6040519081526020016100c3565b600381815481106101f257600080fd5b90600052602060002001600091509050805461020d90610fdf565b80601f016020809104026020016040519081016040528092919081815260200182805461023990610fdf565b80156102865780601f1061025b57610100808354040283529160200191610286565b820191906000526020600020905b81548152906001019060200180831161026957829003601f168201915b505050505081565b80516020818301810180516001825292820191909301209152805481906102b490610fdf565b80601f01602080910402602001604051908101604052809291908181526020018280546102e090610fdf565b801561032d5780601f106103025761010080835404028352916020019161032d565b820191906000526020600020905b81548152906001019060200180831161031057829003601f168201915b505050506001830154600284015460038501546004909501549394919390925060ff1685565b60606003805480602002602001604051908101604052809291908181526020016000905b8282101561042357838290600052602060002001805461039690610fdf565b80601f01602080910402602001604051908101604052809291908181526020018280546103c290610fdf565b801561040f5780601f106103e45761010080835404028352916020019161040f565b820191906000526020600020905b8154815290600101906020018083116103f257829003601f168201915b505050505081526020019060010190610377565b50505050905090565b6000546001600160a01b031633146104775760405162461bcd60e51b81526020600482015260096024820152682737ba1037bbb732b960b91b60448201526064015b60405180910390fd5b6001600160a01b03918216600090815260026020526040902080546001600160a01b03191691909216179055565b6104d96040518060a00160405280606081526020016000815260200160008152602001600081526020016000151581525090565b600183836040516104eb929190611019565b90815260200160405180910390206040518060a001604052908160008201805461051490610fdf565b80601f016020809104026020016040519081016040528092919081815260200182805461054090610fdf565b801561058d5780601f106105625761010080835404028352916020019161058d565b820191906000526020600020905b81548152906001019060200180831161057057829003601f168201915b505050918352505060018201546020820152600282015460408201526003820154606082015260049091015460ff16151560809091015290505b92915050565b6000546001600160a01b031633146106135760405162461bcd60e51b81526020600482015260096024820152682737ba1037bbb732b960b91b604482015260640161046e565b8260018686604051610626929190611019565b908152602001604051809103902060010181905550816001868660405161064e929190611019565b9081526020016040518091039020600201819055508060018686604051610676929190611019565b9081526020016040518091039020600301819055507f129cde7ebd0f67e8dc7b65c84142dcda6d249b94f56bef5efa3d17c03af2e67b858585856040516106c09493929190611029565b60405180910390a15050505050565b6060600182101580156106e3575060648211155b6107285760405162461bcd60e51b8152602060048201526016602482015275496e76616c6964207269736b20746f6c6572616e636560501b604482015260640161046e565b6000805b60035481101561087957600060016003838154811061074d5761074d611069565b90600052602060002001604051610764919061107f565b90815260200160405180910390206040518060a001604052908160008201805461078d90610fdf565b80601f01602080910402602001604051908101604052809291908181526020018280546107b990610fdf565b80156108065780601f106107db57610100808354040283529160200191610806565b820191906000526020600020905b8154815290600101906020018083116107e957829003601f168201915b505050918352505060018201546020820152600282015460408201526003820154606082015260049091015460ff1615156080918201528101519091508015610853575084816060015111155b15610866578261086281611134565b9350505b508061087181611134565b91505061072c565b508067ffffffffffffffff81111561089357610893610c4f565b6040519080825280602002602001820160405280156108f157816020015b6108de60405180608001604052806060815260200160008152602001600081526020016000151581525090565b8152602001906001900390816108b15790505b5091506000805b600354811015610aab57600060016003838154811061091957610919611069565b90600052602060002001604051610930919061107f565b90815260200160405180910390206040518060a001604052908160008201805461095990610fdf565b80601f016020809104026020016040519081016040528092919081815260200182805461098590610fdf565b80156109d25780601f106109a7576101008083540402835291602001916109d2565b820191906000526020600020905b8154815290600101906020018083116109b557829003601f168201915b505050918352505060018201546020820152600282015460408201526003820154606082015260049091015460ff1615156080918201528101519091508015610a1f575085816060015111155b15610a985760405180608001604052808260000151815260200182602001518152602001826060015181526020016101f48360200151118015610a6757506032836060015111155b1515815250858481518110610a7e57610a7e611069565b60200260200101819052508280610a9490611134565b9350505b5080610aa381611134565b9150506108f8565b505050919050565b6001600160a01b0380821660009081526002602052604081205490911680610b0d5760405162461bcd60e51b815260206004820152600d60248201526c139bc81c1c9a58d94819995959609a1b604482015260640161046e565b600080826001600160a01b031663feaf968c6040518163ffffffff1660e01b815260040160a060405180830381865afa158015610b4e573d6000803e3d6000fd5b505050506040513d601f19601f82011682018060405250810190610b729190611167565b50935050925050600082138015610b945750610e10610b9182426111b7565b11155b610bce5760405162461bcd60e51b815260206004820152600b60248201526a5374616c6520707269636560a81b604482015260640161046e565b509392505050565b600060208284031215610be857600080fd5b5035919050565b6000815180845260005b81811015610c1557602081850181015186830182015201610bf9565b506000602082860101526020601f19601f83011685010191505092915050565b602081526000610c486020830184610bef565b9392505050565b634e487b7160e01b600052604160045260246000fd5b600060208284031215610c7757600080fd5b813567ffffffffffffffff80821115610c8f57600080fd5b818401915084601f830112610ca357600080fd5b813581811115610cb557610cb5610c4f565b604051601f8201601f19908116603f01168101908382118183101715610cdd57610cdd610c4f565b81604052828152876020848701011115610cf657600080fd5b826020860160208301376000928101602001929092525095945050505050565b60a081526000610d2960a0830188610bef565b905085602083015284604083015283606083015282151560808301529695505050505050565b6000602080830181845280855180835260408601915060408160051b870101925083870160005b82811015610da457603f19888603018452610d92858351610bef565b94509285019290850190600101610d76565b5092979650505050505050565b80356001600160a01b0381168114610dc857600080fd5b919050565b60008060408385031215610de057600080fd5b610de983610db1565b9150610df760208401610db1565b90509250929050565b60008083601f840112610e1257600080fd5b50813567ffffffffffffffff811115610e2a57600080fd5b602083019150836020828501011115610e4257600080fd5b9250929050565b60008060208385031215610e5c57600080fd5b823567ffffffffffffffff811115610e7357600080fd5b610e7f85828601610e00565b90969095509350505050565b602081526000825160a06020840152610ea760c0840182610bef565b90506020840151604084015260408401516060840152606084015160808401526080840151151560a08401528091505092915050565b600060208284031215610eef57600080fd5b610c4882610db1565b600080600080600060808688031215610f1057600080fd5b853567ffffffffffffffff811115610f2757600080fd5b610f3388828901610e00565b9099909850602088013597604081013597506060013595509350505050565b60006020808301818452808551808352604092508286019150828160051b87010184880160005b83811015610fd157603f19898403018552815160808151818652610f9f82870182610bef565b838b0151878c0152898401518a8801526060938401511515939096019290925250509386019390860190600101610f79565b509098975050505050505050565b600181811c90821680610ff357607f821691505b60208210810361101357634e487b7160e01b600052602260045260246000fd5b50919050565b8183823760009101908152919050565b606081528360608201528385608083013760006080858301015260006080601f19601f870116830101905083602083015282604083015295945050505050565b634e487b7160e01b600052603260045260246000fd5b600080835481600182811c91508083168061109b57607f831692505b602080841082036110ba57634e487b7160e01b86526022600452602486fd5b8180156110ce57600181146110e357611110565b60ff1986168952841515850289019650611110565b60008a81526020902060005b868110156111085781548b8201529085019083016110ef565b505084890196505b509498975050505050505050565b634e487b7160e01b600052601160045260246000fd5b6000600182016111465761114661111e565b5060010190565b805169ffffffffffffffffffff81168114610dc857600080fd5b600080600080600060a0868803121561117f57600080fd5b6111888661114d565b94506020860151935060408601519250606086015191506111ab6080870161114d565b90509295509295909350565b818103818111156105c7576105c761111e56fea26469706673582212206de5716ba0270bfd371eb512fadefdb0ca99ced9fc7c43eadc296ebae994ee4a64736f6c63430008130033c2575a0e9e593c00f959f8c92f12db2869c3395a3b0502d05e2516446f71f85b","opcodes":"PUSH1 0x80 PUSH1 0x40 MSTORE CALLVALUE DUP1 ISZERO PUSH3 0x11 JUMPI PUSH1 0x0 DUP1 REVERT JUMPDEST POP PUSH1 0x0 DUP1 SLOAD PUSH1 0x1 PUSH1 0x1 PUSH1 0xA0 SHL SUB NOT AND CALLER OR SWAP1 SSTORE PUSH3 0x2E PUSH3 0x34 JUMP JUMPDEST PUSH3 0x4B0 JUMP JUMPDEST PUSH1 0x40 DUP1 MLOAD PUSH1 0xE0 DUP2 ADD DUP3 MSTORE PUSH1 0xC PUSH1 0xA0 DUP3 ADD SWAP1 DUP2 MSTORE PUSH12 0x41676E692046696E616E6365 PUSH1 0xA0 SHL PUSH1 0xC0 DUP4 ADD MSTORE DUP2 MSTORE PUSH2 0x4B0 PUSH1 0x20 DUP3 ADD MSTORE PUSH4 0x7365040 DUP2 DUP4 ADD MSTORE PUSH1 0x23 PUSH1 0x60 DUP3 ADD MSTORE PUSH1 0x1 PUSH1 0x80 DUP3 ADD DUP2 SWAP1 MSTORE SWAP2 MLOAD PUSH4 0x61676E69 PUSH1 0xE0 SHL DUP2 MSTORE SWAP1 SWAP2 SWAP1 PUSH1 0x4 ADD SWAP1 DUP2 MSTORE PUSH1 0x40 MLOAD SWAP1 DUP2 SWAP1 SUB PUSH1 0x20 ADD SWAP1 KECCAK256 DUP2 MLOAD DUP2 SWAP1 PUSH3 0xB0 SWAP1 DUP3 PUSH3 0x3E4 JUMP JUMPDEST POP PUSH1 0x20 DUP3 DUP2 ADD MLOAD PUSH1 0x1 DUP4 DUP2 ADD SWAP2 SWAP1 SWAP2 SSTORE PUSH1 0x40 DUP1 DUP6 ADD MLOAD PUSH1 0x2 DUP6 ADD SSTORE PUSH1 0x60 DUP6 ADD MLOAD PUSH1 0x3 DUP1 DUP7 ADD SWAP2 SWAP1 SWAP2 SSTORE PUSH1 0x80 SWAP1 SWAP6 ADD MLOAD PUSH1 0x4 SWAP5 DUP6 ADD DUP1 SLOAD PUSH1 0xFF NOT AND SWAP2 ISZERO ISZERO SWAP2 SWAP1 SWAP2 OR SWAP1 SSTORE DUP5 SLOAD SWAP2 DUP3 ADD DUP6 SSTORE PUSH1 0x0 SWAP5 SWAP1 SWAP5 MSTORE DUP4 MLOAD DUP1 DUP6 ADD SWAP1 SWAP5 MSTORE SWAP2 DUP4 MSTORE PUSH4 0x61676E69 PUSH1 0xE0 SHL SWAP1 DUP4 ADD MSTORE PUSH1 0x0 DUP1 MLOAD PUSH1 0x20 PUSH3 0x16C0 DUP4 CODECOPY DUP2 MLOAD SWAP2 MSTORE ADD SWAP1 PUSH3 0x135 SWAP1 DUP3 PUSH3 0x3E4 JUMP JUMPDEST POP PUSH1 0x40 DUP1 MLOAD PUSH1 0xE0 DUP2 ADD DUP3 MSTORE PUSH1 0x6 PUSH1 0xA0 DUP3 ADD DUP2 DUP2 MSTORE PUSH6 0x4C656E646C65 PUSH1 0xD0 SHL PUSH1 0xC0 DUP5 ADD MSTORE DUP3 MSTORE PUSH2 0x320 PUSH1 0x20 DUP4 ADD MSTORE PUSH4 0x2AEA540 DUP3 DUP5 ADD MSTORE PUSH1 0x19 PUSH1 0x60 DUP4 ADD MSTORE PUSH1 0x1 PUSH1 0x80 DUP4 ADD DUP2 SWAP1 MSTORE SWAP3 MLOAD PUSH6 0x6C656E646C65 PUSH1 0xD0 SHL DUP2 MSTORE SWAP2 SWAP3 SWAP2 ADD SWAP1 DUP2 MSTORE PUSH1 0x40 MLOAD SWAP1 DUP2 SWAP1 SUB PUSH1 0x20 ADD SWAP1 KECCAK256 DUP2 MLOAD DUP2 SWAP1 PUSH3 0x1AC SWAP1 DUP3 PUSH3 0x3E4 JUMP JUMPDEST POP PUSH1 0x20 DUP3 DUP2 ADD MLOAD PUSH1 0x1 DUP4 DUP2 ADD SWAP2 SWAP1 SWAP2 SSTORE PUSH1 0x40 DUP1 DUP6 ADD MLOAD PUSH1 0x2 DUP6 ADD SSTORE PUSH1 0x60 DUP6 ADD MLOAD PUSH1 0x3 DUP1 DUP7 ADD SWAP2 SWAP1 SWAP2 SSTORE PUSH1 0x80 SWAP1 SWAP6 ADD MLOAD PUSH1 0x4 SWAP1 SWAP5 ADD DUP1 SLOAD PUSH1 0xFF NOT AND SWAP5 ISZERO ISZERO SWAP5 SWAP1 SWAP5 OR SWAP1 SWAP4 SSTORE DUP4 SLOAD SWAP1 DUP2 ADD DUP5 SSTORE PUSH1 0x0 SWAP4 SWAP1 SWAP4 MSTORE DUP2 MLOAD DUP1 DUP4 ADD SWAP1 SWAP3 MSTORE PUSH1 0x6 DUP3 MSTORE PUSH6 0x6C656E646C65 PUSH1 0xD0 SHL SWAP1 DUP3 ADD MSTORE PUSH1 0x0 DUP1 MLOAD PUSH1 0x20 PUSH3 0x16C0 DUP4 CODECOPY DUP2 MLOAD SWAP2 MSTORE SWAP1 SWAP2 ADD SWAP1 PUSH3 0x237 SWAP1 DUP3 PUSH3 0x3E4 JUMP JUMPDEST POP PUSH1 0x40 DUP1 MLOAD PUSH1 0xE0 DUP2 ADD DUP3 MSTORE PUSH1 0x7 PUSH1 0xA0 DUP3 ADD DUP2 DUP2 MSTORE PUSH7 0x8CEAE6D2DEDCB PUSH1 0xCB SHL PUSH1 0xC0 DUP5 ADD MSTORE DUP3 MSTORE PUSH2 0x5DC PUSH1 0x20 DUP4 ADD MSTORE PUSH4 0x1AB3F00 DUP3 DUP5 ADD MSTORE PUSH1 0x2D PUSH1 0x60 DUP4 ADD MSTORE PUSH1 0x1 PUSH1 0x80 DUP4 ADD DUP2 SWAP1 MSTORE SWAP3 MLOAD PUSH7 0xCCEAE6D2DEDCF PUSH1 0xCB SHL DUP2 MSTORE SWAP2 SWAP3 SWAP2 ADD SWAP1 DUP2 MSTORE PUSH1 0x40 MLOAD SWAP1 DUP2 SWAP1 SUB PUSH1 0x20 ADD SWAP1 KECCAK256 DUP2 MLOAD DUP2 SWAP1 PUSH3 0x2B0 SWAP1 DUP3 PUSH3 0x3E4 JUMP JUMPDEST POP PUSH1 0x20 DUP3 DUP2 ADD MLOAD PUSH1 0x1 DUP4 DUP2 ADD SWAP2 SWAP1 SWAP2 SSTORE PUSH1 0x40 DUP1 DUP6 ADD MLOAD PUSH1 0x2 DUP6 ADD SSTORE PUSH1 0x60 DUP6 ADD MLOAD PUSH1 0x3 DUP1 DUP7 ADD SWAP2 SWAP1 SWAP2 SSTORE PUSH1 0x80 SWAP1 SWAP6 ADD MLOAD PUSH1 0x4 SWAP1 SWAP5 ADD DUP1 SLOAD PUSH1 0xFF NOT AND SWAP5 ISZERO ISZERO SWAP5 SWAP1 SWAP5 OR SWAP1 SWAP4 SSTORE DUP4 SLOAD SWAP1 DUP2 ADD DUP5 SSTORE PUSH1 0x0 SWAP4 SWAP1 SWAP4 MSTORE DUP2 MLOAD DUP1 DUP4 ADD SWAP1 SWAP3 MSTORE PUSH1 0x7 DUP3 MSTORE PUSH7 0xCCEAE6D2DEDCF PUSH1 0xCB SHL SWAP1 DUP3 ADD MSTORE PUSH1 0x0 DUP1 MLOAD PUSH1 0x20 PUSH3 0x16C0 DUP4 CODECOPY DUP2 MLOAD SWAP2 MSTORE SWAP1 SWAP2 ADD SWAP1 PUSH3 0x33C SWAP1 DUP3 PUSH3 0x3E4 JUMP JUMPDEST POP JUMP JUMPDEST PUSH4 0x4E487B71 PUSH1 0xE0 SHL PUSH1 0x0 MSTORE PUSH1 0x41 PUSH1 0x4 MSTORE PUSH1 0x24 PUSH1 0x0 REVERT JUMPDEST PUSH1 0x1 DUP2 DUP2 SHR SWAP1 DUP3 AND DUP1 PUSH3 0x36A JUMPI PUSH1 0x7F DUP3 AND SWAP2 POP JUMPDEST PUSH1 0x20 DUP3 LT DUP2 SUB PUSH3 0x38B JUMPI PUSH4 0x4E487B71 PUSH1 0xE0 SHL PUSH1 0x0 MSTORE PUSH1 0x22 PUSH1 0x4 MSTORE PUSH1 0x24 PUSH1 0x0 REVERT JUMPDEST POP SWAP2 SWAP1 POP JUMP JUMPDEST PUSH1 0x1F DUP3 GT ISZERO PUSH3 0x3DF JUMPI PUSH1 0x0 DUP2 DUP2 MSTORE PUSH1 0x20 DUP2 KECCAK256 PUSH1 0x1F DUP6 ADD PUSH1 0x5 SHR DUP2 ADD PUSH1 0x20 DUP7 LT ISZERO PUSH3 0x3BA JUMPI POP DUP1 JUMPDEST PUSH1 0x1F DUP6 ADD PUSH1 0x5 SHR DUP3 ADD SWAP2 POP JUMPDEST DUP2 DUP2 LT ISZERO PUSH3 0x3DB JUMPI DUP3 DUP2 SSTORE PUSH1 0x1 ADD PUSH3 0x3C6 JUMP JUMPDEST POP POP POP JUMPDEST POP POP POP JUMP JUMPDEST DUP2 MLOAD PUSH1 0x1 PUSH1 0x1 PUSH1 0x40 SHL SUB DUP2 GT ISZERO PUSH3 0x400 JUMPI PUSH3 0x400 PUSH3 0x33F JUMP JUMPDEST PUSH3 0x418 DUP2 PUSH3 0x411 DUP5 SLOAD PUSH3 0x355 JUMP JUMPDEST DUP5 PUSH3 0x391 JUMP JUMPDEST PUSH1 0x20 DUP1 PUSH1 0x1F DUP4 GT PUSH1 0x1 DUP2 EQ PUSH3 0x450 JUMPI PUSH1 0x0 DUP5 ISZERO PUSH3 0x437 JUMPI POP DUP6 DUP4 ADD MLOAD JUMPDEST PUSH1 0x0 NOT PUSH1 0x3 DUP7 SWAP1 SHL SHR NOT AND PUSH1 0x1 DUP6 SWAP1 SHL OR DUP6 SSTORE PUSH3 0x3DB JUMP JUMPDEST PUSH1 0x0 DUP6 DUP2 MSTORE PUSH1 0x20 DUP2 KECCAK256 PUSH1 0x1F NOT DUP7 AND SWAP2 JUMPDEST DUP3 DUP2 LT ISZERO PUSH3 0x481 JUMPI DUP9 DUP7 ADD MLOAD DUP3 SSTORE SWAP5 DUP5 ADD SWAP5 PUSH1 0x1 SWAP1 SWAP2 ADD SWAP1 DUP5 ADD PUSH3 0x460 JUMP JUMPDEST POP DUP6 DUP3 LT ISZERO PUSH3 0x4A0 JUMPI DUP8 DUP6 ADD MLOAD PUSH1 0x0 NOT PUSH1 0x3 DUP9 SWAP1 SHL PUSH1 0xF8 AND SHR NOT AND DUP2 SSTORE JUMPDEST POP POP POP POP POP PUSH1 0x1 SWAP1 DUP2 SHL ADD SWAP1 SSTORE POP JUMP JUMPDEST PUSH2 0x1200 DUP1 PUSH3 0x4C0 PUSH1 0x0 CODECOPY PUSH1 0x0 RETURN INVALID PUSH1 0x80 PUSH1 0x40 MSTORE CALLVALUE DUP1 ISZERO PUSH2 0x10 JUMPI PUSH1 0x0 DUP1 REVERT JUMPDEST POP PUSH1 0x4 CALLDATASIZE LT PUSH2 0x9E JUMPI PUSH1 0x0 CALLDATALOAD PUSH1 0xE0 SHR DUP1 PUSH4 0x8DA5CB5B GT PUSH2 0x66 JUMPI DUP1 PUSH4 0x8DA5CB5B EQ PUSH2 0x13A JUMPI DUP1 PUSH4 0x9DCB511A EQ PUSH2 0x165 JUMPI DUP1 PUSH4 0xAC26C3F6 EQ PUSH2 0x18E JUMPI DUP1 PUSH4 0xAE11D78D EQ PUSH2 0x1A1 JUMPI DUP1 PUSH4 0xD02641A0 EQ PUSH2 0x1C1 JUMPI PUSH1 0x0 DUP1 REVERT JUMPDEST DUP1 PUSH4 0x7C28C26 EQ PUSH2 0xA3 JUMPI DUP1 PUSH4 0x1DAE9454 EQ PUSH2 0xCC JUMPI DUP1 PUSH4 0x741C53EB EQ PUSH2 0xF0 JUMPI DUP1 PUSH4 0x76E11286 EQ PUSH2 0x105 JUMPI DUP1 PUSH4 0x7BEB4107 EQ PUSH2 0x11A JUMPI JUMPDEST PUSH1 0x0 DUP1 REVERT JUMPDEST PUSH2 0xB6 PUSH2 0xB1 CALLDATASIZE PUSH1 0x4 PUSH2 0xBD6 JUMP JUMPDEST PUSH2 0x1E2 JUMP JUMPDEST PUSH1 0x40 MLOAD PUSH2 0xC3 SWAP2 SWAP1 PUSH2 0xC35 JUMP JUMPDEST PUSH1 0x40 MLOAD DUP1 SWAP2 SUB SWAP1 RETURN JUMPDEST PUSH2 0xDF PUSH2 0xDA CALLDATASIZE PUSH1 0x4 PUSH2 0xC65 JUMP JUMPDEST PUSH2 0x28E JUMP JUMPDEST PUSH1 0x40 MLOAD PUSH2 0xC3 SWAP6 SWAP5 SWAP4 SWAP3 SWAP2 SWAP1 PUSH2 0xD16 JUMP JUMPDEST PUSH2 0xF8 PUSH2 0x353 JUMP JUMPDEST PUSH1 0x40 MLOAD PUSH2 0xC3 SWAP2 SWAP1 PUSH2 0xD4F JUMP JUMPDEST PUSH2 0x118 PUSH2 0x113 CALLDATASIZE PUSH1 0x4 PUSH2 0xDCD JUMP JUMPDEST PUSH2 0x42C JUMP JUMPDEST STOP JUMPDEST PUSH2 0x12D PUSH2 0x128 CALLDATASIZE PUSH1 0x4 PUSH2 0xE49 JUMP JUMPDEST PUSH2 0x4A5 JUMP JUMPDEST PUSH1 0x40 MLOAD PUSH2 0xC3 SWAP2 SWAP1 PUSH2 0xE8B JUMP JUMPDEST PUSH1 0x0 SLOAD PUSH2 0x14D SWAP1 PUSH1 0x1 PUSH1 0x1 PUSH1 0xA0 SHL SUB AND DUP2 JUMP JUMPDEST PUSH1 0x40 MLOAD PUSH1 0x1 PUSH1 0x1 PUSH1 0xA0 SHL SUB SWAP1 SWAP2 AND DUP2 MSTORE PUSH1 0x20 ADD PUSH2 0xC3 JUMP JUMPDEST PUSH2 0x14D PUSH2 0x173 CALLDATASIZE PUSH1 0x4 PUSH2 0xEDD JUMP JUMPDEST PUSH1 0x2 PUSH1 0x20 MSTORE PUSH1 0x0 SWAP1 DUP2 MSTORE PUSH1 0x40 SWAP1 KECCAK256 SLOAD PUSH1 0x1 PUSH1 0x1 PUSH1 0xA0 SHL SUB AND DUP2 JUMP JUMPDEST PUSH2 0x118 PUSH2 0x19C CALLDATASIZE PUSH1 0x4 PUSH2 0xEF8 JUMP JUMPDEST PUSH2 0x5CD JUMP JUMPDEST PUSH2 0x1B4 PUSH2 0x1AF CALLDATASIZE PUSH1 0x4 PUSH2 0xBD6 JUMP JUMPDEST PUSH2 0x6CF JUMP JUMPDEST PUSH1 0x40 MLOAD PUSH2 0xC3 SWAP2 SWAP1 PUSH2 0xF52 JUMP JUMPDEST PUSH2 0x1D4 PUSH2 0x1CF CALLDATASIZE PUSH1 0x4 PUSH2 0xEDD JUMP JUMPDEST PUSH2 0xAB3 JUMP JUMPDEST PUSH1 0x40 MLOAD SWAP1 DUP2 MSTORE PUSH1 0x20 ADD PUSH2 0xC3 JUMP JUMPDEST PUSH1 0x3 DUP2 DUP2 SLOAD DUP2 LT PUSH2 0x1F2 JUMPI PUSH1 0x0 DUP1 REVERT JUMPDEST SWAP1 PUSH1 0x0 MSTORE PUSH1 0x20 PUSH1 0x0 KECCAK256 ADD PUSH1 0x0 SWAP2 POP SWAP1 POP DUP1 SLOAD PUSH2 0x20D SWAP1 PUSH2 0xFDF JUMP JUMPDEST DUP1 PUSH1 0x1F ADD PUSH1 0x20 DUP1 SWAP2 DIV MUL PUSH1 0x20 ADD PUSH1 0x40 MLOAD SWAP1 DUP2 ADD PUSH1 0x40 MSTORE DUP1 SWAP3 SWAP2 SWAP1 DUP2 DUP2 MSTORE PUSH1 0x20 ADD DUP3 DUP1 SLOAD PUSH2 0x239 SWAP1 PUSH2 0xFDF JUMP JUMPDEST DUP1 ISZERO PUSH2 0x286 JUMPI DUP1 PUSH1 0x1F LT PUSH2 0x25B JUMPI PUSH2 0x100 DUP1 DUP4 SLOAD DIV MUL DUP4 MSTORE SWAP2 PUSH1 0x20 ADD SWAP2 PUSH2 0x286 JUMP JUMPDEST DUP3 ADD SWAP2 SWAP1 PUSH1 0x0 MSTORE PUSH1 0x20 PUSH1 0x0 KECCAK256 SWAP1 JUMPDEST DUP2 SLOAD DUP2 MSTORE SWAP1 PUSH1 0x1 ADD SWAP1 PUSH1 0x20 ADD DUP1 DUP4 GT PUSH2 0x269 JUMPI DUP3 SWAP1 SUB PUSH1 0x1F AND DUP3 ADD SWAP2 JUMPDEST POP POP POP POP POP DUP2 JUMP JUMPDEST DUP1 MLOAD PUSH1 0x20 DUP2 DUP4 ADD DUP2 ADD DUP1 MLOAD PUSH1 0x1 DUP3 MSTORE SWAP3 DUP3 ADD SWAP2 SWAP1 SWAP4 ADD KECCAK256 SWAP2 MSTORE DUP1 SLOAD DUP2 SWAP1 PUSH2 0x2B4 SWAP1 PUSH2 0xFDF JUMP JUMPDEST DUP1 PUSH1 0x1F ADD PUSH1 0x20 DUP1 SWAP2 DIV MUL PUSH1 0x20 ADD PUSH1 0x40 MLOAD SWAP1 DUP2 ADD PUSH1 0x40 MSTORE DUP1 SWAP3 SWAP2 SWAP1 DUP2 DUP2 MSTORE PUSH1 0x20 ADD DUP3 DUP1 SLOAD PUSH2 0x2E0 SWAP1 PUSH2 0xFDF JUMP JUMPDEST DUP1 ISZERO PUSH2 0x32D JUMPI DUP1 PUSH1 0x1F LT PUSH2 0x302 JUMPI PUSH2 0x100 DUP1 DUP4 SLOAD DIV MUL DUP4 MSTORE SWAP2 PUSH1 0x20 ADD SWAP2 PUSH2 0x32D JUMP JUMPDEST DUP3 ADD SWAP2 SWAP1 PUSH1 0x0 MSTORE PUSH1 0x20 PUSH1 0x0 KECCAK256 SWAP1 JUMPDEST DUP2 SLOAD DUP2 MSTORE SWAP1 PUSH1 0x1 ADD SWAP1 PUSH1 0x20 ADD DUP1 DUP4 GT PUSH2 0x310 JUMPI DUP3 SWAP1 SUB PUSH1 0x1F AND DUP3 ADD SWAP2 JUMPDEST POP POP POP POP PUSH1 0x1 DUP4 ADD SLOAD PUSH1 0x2 DUP5 ADD SLOAD PUSH1 0x3 DUP6 ADD SLOAD PUSH1 0x4 SWAP1 SWAP6 ADD SLOAD SWAP4 SWAP5 SWAP2 SWAP4 SWAP1 SWAP3 POP PUSH1 0xFF AND DUP6 JUMP JUMPDEST PUSH1 0x60 PUSH1 0x3 DUP1 SLOAD DUP1 PUSH1 0x20 MUL PUSH1 0x20 ADD PUSH1 0x40 MLOAD SWAP1 DUP2 ADD PUSH1 0x40 MSTORE DUP1 SWAP3 SWAP2 SWAP1 DUP2 DUP2 MSTORE PUSH1 0x20 ADD PUSH1 0x0 SWAP1 JUMPDEST DUP3 DUP3 LT ISZERO PUSH2 0x423 JUMPI DUP4 DUP3 SWAP1 PUSH1 0x0 MSTORE PUSH1 0x20 PUSH1 0x0 KECCAK256 ADD DUP1 SLOAD PUSH2 0x396 SWAP1 PUSH2 0xFDF JUMP JUMPDEST DUP1 PUSH1 0x1F ADD PUSH1 0x20 DUP1 SWAP2 DIV MUL PUSH1 0x20 ADD PUSH1 0x40 MLOAD SWAP1 DUP2 ADD PUSH1 0x40 MSTORE DUP1 SWAP3 SWAP2 SWAP1 DUP2 DUP2 MSTORE PUSH1 0x20 ADD DUP3 DUP1 SLOAD PUSH2 0x3C2 SWAP1 PUSH2 0xFDF JUMP JUMPDEST DUP1 ISZERO PUSH2 0x40F JUMPI DUP1 PUSH1 0x1F LT PUSH2 0x3E4 JUMPI PUSH2 0x100 DUP1 DUP4 SLOAD DIV MUL DUP4 MSTORE SWAP2 PUSH1 0x20 ADD SWAP2 PUSH2 0x40F JUMP JUMPDEST DUP3 ADD SWAP2 SWAP1 PUSH1 0x0 MSTORE PUSH1 0x20 PUSH1 0x0 KECCAK256 SWAP1 JUMPDEST DUP2 SLOAD DUP2 MSTORE SWAP1 PUSH1 0x1 ADD SWAP1 PUSH1 0x20 ADD DUP1 DUP4 GT PUSH2 0x3F2 JUMPI DUP3 SWAP1 SUB PUSH1 0x1F AND DUP3 ADD SWAP2 JUMPDEST POP POP POP POP POP DUP2 MSTORE PUSH1 0x20 ADD SWAP1 PUSH1 0x1 ADD SWAP1 PUSH2 0x377 JUMP JUMPDEST POP POP POP POP SWAP1 POP SWAP1 JUMP JUMPDEST PUSH1 0x0 SLOAD PUSH1 0x1 PUSH1 0x1 PUSH1 0xA0 SHL SUB AND CALLER EQ PUSH2 0x477 JUMPI PUSH1 0x40 MLOAD PUSH3 0x461BCD PUSH1 0xE5 SHL DUP2 MSTORE PUSH1 0x20 PUSH1 0x4 DUP3 ADD MSTORE PUSH1 0x9 PUSH1 0x24 DUP3 ADD MSTORE PUSH9 0x2737BA1037BBB732B9 PUSH1 0xB9 SHL PUSH1 0x44 DUP3 ADD MSTORE PUSH1 0x64 ADD JUMPDEST PUSH1 0x40 MLOAD DUP1 SWAP2 SUB SWAP1 REVERT JUMPDEST PUSH1 0x1 PUSH1 0x1 PUSH1 0xA0 SHL SUB SWAP2 DUP3 AND PUSH1 0x0 SWAP1 DUP2 MSTORE PUSH1 0x2 PUSH1 0x20 MSTORE PUSH1 0x40 SWAP1 KECCAK256 DUP1 SLOAD PUSH1 0x1 PUSH1 0x1 PUSH1 0xA0 SHL SUB NOT AND SWAP2 SWAP1 SWAP3 AND OR SWAP1 SSTORE JUMP JUMPDEST PUSH2 0x4D9 PUSH1 0x40 MLOAD DUP1 PUSH1 0xA0 ADD PUSH1 0x40 MSTORE DUP1 PUSH1 0x60 DUP2 MSTORE PUSH1 0x20 ADD PUSH1 0x0 DUP2 MSTORE PUSH1 0x20 ADD PUSH1 0x0 DUP2 MSTORE PUSH1 0x20 ADD PUSH1 0x0 DUP2 MSTORE PUSH1 0x20 ADD PUSH1 0x0 ISZERO ISZERO DUP2 MSTORE POP SWAP1 JUMP JUMPDEST PUSH1 0x1 DUP4 DUP4 PUSH1 0x40 MLOAD PUSH2 0x4EB SWAP3 SWAP2 SWAP1 PUSH2 0x1019 JUMP JUMPDEST SWAP1 DUP2 MSTORE PUSH1 0x20 ADD PUSH1 0x40 MLOAD DUP1 SWAP2 SUB SWAP1 KECCAK256 PUSH1 0x40 MLOAD DUP1 PUSH1 0xA0 ADD PUSH1 0x40 MSTORE SWAP1 DUP2 PUSH1 0x0 DUP3 ADD DUP1 SLOAD PUSH2 0x514 SWAP1 PUSH2 0xFDF JUMP JUMPDEST DUP1 PUSH1 0x1F ADD PUSH1 0x20 DUP1 SWAP2 DIV MUL PUSH1 0x20 ADD PUSH1 0x40 MLOAD SWAP1 DUP2 ADD PUSH1 0x40 MSTORE DUP1 SWAP3 SWAP2 SWAP1 DUP2 DUP2 MSTORE PUSH1 0x20 ADD DUP3 DUP1 SLOAD PUSH2 0x540 SWAP1 PUSH2 0xFDF JUMP JUMPDEST DUP1 ISZERO PUSH2 0x58D JUMPI DUP1 PUSH1 0x1F LT PUSH2 0x562 JUMPI PUSH2 0x100 DUP1 DUP4 SLOAD DIV MUL DUP4 MSTORE SWAP2 PUSH1 0x20 ADD SWAP2 PUSH2 0x58D JUMP JUMPDEST DUP3 ADD SWAP2 SWAP1 PUSH1 0x0 MSTORE PUSH1 0x20 PUSH1 0x0 KECCAK256 SWAP1 JUMPDEST DUP2 SLOAD DUP2 MSTORE SWAP1 PUSH1 0x1 ADD SWAP1 PUSH1 0x20 ADD DUP1 DUP4 GT PUSH2 0x570 JUMPI DUP3 SWAP1 SUB PUSH1 0x1F AND DUP3 ADD SWAP2 JUMPDEST POP POP POP SWAP2 DUP4 MSTORE POP POP PUSH1 0x1 DUP3 ADD SLOAD PUSH1 0x20 DUP3 ADD MSTORE PUSH1 0x2 DUP3 ADD SLOAD PUSH1 0x40 DUP3 ADD MSTORE PUSH1 0x3 DUP3 ADD SLOAD PUSH1 0x60 DUP3 ADD MSTORE PUSH1 0x4 SWAP1 SWAP2 ADD SLOAD PUSH1 0xFF AND ISZERO ISZERO PUSH1 0x80 SWAP1 SWAP2 ADD MSTORE SWAP1 POP JUMPDEST SWAP3 SWAP2 POP POP JUMP JUMPDEST PUSH1 0x0 SLOAD PUSH1 0x1 PUSH1 0x1 PUSH1 0xA0 SHL SUB AND CALLER EQ PUSH2 0x613 JUMPI PUSH1 0x40 MLOAD PUSH3 0x461BCD PUSH1 0xE5 SHL DUP2 MSTORE PUSH1 0x20 PUSH1 0x4 DUP3 ADD MSTORE PUSH1 0x9 PUSH1 0x24 DUP3 ADD MSTORE PUSH9 0x2737BA1037BBB732B9 PUSH1 0xB9 SHL PUSH1 0x44 DUP3 ADD MSTORE PUSH1 0x64 ADD PUSH2 0x46E JUMP JUMPDEST DUP3 PUSH1 0x1 DUP7 DUP7 PUSH1 0x40 MLOAD PUSH2 0x626 SWAP3 SWAP2 SWAP1 PUSH2 0x1019 JUMP JUMPDEST SWAP1 DUP2 MSTORE PUSH1 0x20 ADD PUSH1 0x40 MLOAD DUP1 SWAP2 SUB SWAP1 KECCAK256 PUSH1 0x1 ADD DUP2 SWAP1 SSTORE POP DUP2 PUSH1 0x1 DUP7 DUP7 PUSH1 0x40 MLOAD PUSH2 0x64E SWAP3 SWAP2 SWAP1 PUSH2 0x1019 JUMP JUMPDEST SWAP1 DUP2 MSTORE PUSH1 0x20 ADD PUSH1 0x40 MLOAD DUP1 SWAP2 SUB SWAP1 KECCAK256 PUSH1 0x2 ADD DUP2 SWAP1 SSTORE POP DUP1 PUSH1 0x1 DUP7 DUP7 PUSH1 0x40 MLOAD PUSH2 0x676 SWAP3 SWAP2 SWAP1 PUSH2 0x1019 JUMP JUMPDEST SWAP1 DUP2 MSTORE PUSH1 0x20 ADD PUSH1 0x40 MLOAD DUP1 SWAP2 SUB SWAP1 KECCAK256 PUSH1 0x3 ADD DUP2 SWAP1 SSTORE POP PUSH32 0x129CDE7EBD0F67E8DC7B65C84142DCDA6D249B94F56BEF5EFA3D17C03AF2E67B DUP6 DUP6 DUP6 DUP6 PUSH1 0x40 MLOAD PUSH2 0x6C0 SWAP5 SWAP4 SWAP3 SWAP2 SWAP1 PUSH2 0x1029 JUMP JUMPDEST PUSH1 0x40 MLOAD DUP1 SWAP2 SUB SWAP1 LOG1 POP POP POP POP POP JUMP JUMPDEST PUSH1 0x60 PUSH1 0x1 DUP3 LT ISZERO DUP1 ISZERO PUSH2 0x6E3 JUMPI POP PUSH1 0x64 DUP3 GT ISZERO JUMPDEST PUSH2 0x728 JUMPI PUSH1 0x40 MLOAD PUSH3 0x461BCD PUSH1 0xE5 SHL DUP2 MSTORE PUSH1 0x20 PUSH1 0x4 DUP3 ADD MSTORE PUSH1 0x16 PUSH1 0x24 DUP3 ADD MSTORE PUSH22 0x496E76616C6964207269736B20746F6C6572616E6365 PUSH1 0x50 SHL PUSH1 0x44 DUP3 ADD MSTORE PUSH1 0x64 ADD PUSH2 0x46E JUMP JUMPDEST PUSH1 0x0 DUP1 JUMPDEST PUSH1 0x3 SLOAD DUP2 LT ISZERO PUSH2 0x879 JUMPI PUSH1 0x0 PUSH1 0x1 PUSH1 0x3 DUP4 DUP2 SLOAD DUP2 LT PUSH2 0x74D JUMPI PUSH2 0x74D PUSH2 0x1069 JUMP JUMPDEST SWAP1 PUSH1 0x0 MSTORE PUSH1 0x20 PUSH1 0x0 KECCAK256 ADD PUSH1 0x40 MLOAD PUSH2 0x764 SWAP2 SWAP1 PUSH2 0x107F JUMP JUMPDEST SWAP1 DUP2 MSTORE PUSH1 0x20 ADD PUSH1 0x40 MLOAD DUP1 SWAP2 SUB SWAP1 KECCAK256 PUSH1 0x40 MLOAD DUP1 PUSH1 0xA0 ADD PUSH1 0x40 MSTORE SWAP1 DUP2 PUSH1 0x0 DUP3 ADD DUP1 SLOAD PUSH2 0x78D SWAP1 PUSH2 0xFDF JUMP JUMPDEST DUP1 PUSH1 0x1F ADD PUSH1 0x20 DUP1 SWAP2 DIV MUL PUSH1 0x20 ADD PUSH1 0x40 MLOAD SWAP1 DUP2 ADD PUSH1 0x40 MSTORE DUP1 SWAP3 SWAP2 SWAP1 DUP2 DUP2 MSTORE PUSH1 0x20 ADD DUP3 DUP1 SLOAD PUSH2 0x7B9 SWAP1 PUSH2 0xFDF JUMP JUMPDEST DUP1 ISZERO PUSH2 0x806 JUMPI DUP1 PUSH1 0x1F LT PUSH2 0x7DB JUMPI PUSH2 0x100 DUP1 DUP4 SLOAD DIV MUL DUP4 MSTORE SWAP2 PUSH1 0x20 ADD SWAP2 PUSH2 0x806 JUMP JUMPDEST DUP3 ADD SWAP2 SWAP1 PUSH1 0x0 MSTORE PUSH1 0x20 PUSH1 0x0 KECCAK256 SWAP1 JUMPDEST DUP2 SLOAD DUP2 MSTORE SWAP1 PUSH1 0x1 ADD SWAP1 PUSH1 0x20 ADD DUP1 DUP4 GT PUSH2 0x7E9 JUMPI DUP3 SWAP1 SUB PUSH1 0x1F AND DUP3 ADD SWAP2 JUMPDEST POP POP POP SWAP2 DUP4 MSTORE POP POP PUSH1 0x1 DUP3 ADD SLOAD PUSH1 0x20 DUP3 ADD MSTORE PUSH1 0x2 DUP3 ADD SLOAD PUSH1 0x40 DUP3 ADD MSTORE PUSH1 0x3 DUP3 ADD SLOAD PUSH1 0x60 DUP3 ADD MSTORE PUSH1 0x4 SWAP1 SWAP2 ADD SLOAD PUSH1 0xFF AND ISZERO ISZERO PUSH1 0x80 SWAP2 DUP3 ADD MSTORE DUP2 ADD MLOAD SWAP1 SWAP2 POP DUP1 ISZERO PUSH2 0x853 JUMPI POP DUP5 DUP2 PUSH1 0x60 ADD MLOAD GT ISZERO JUMPDEST ISZERO PUSH2 0x866 JUMPI DUP3 PUSH2 0x862 DUP2 PUSH2 0x1134 JUMP JUMPDEST SWAP4 POP POP JUMPDEST POP DUP1 PUSH2 0x871 DUP2 PUSH2 0x1134 JUMP JUMPDEST SWAP2 POP POP PUSH2 0x72C JUMP JUMPDEST POP DUP1 PUSH8 0xFFFFFFFFFFFFFFFF DUP2 GT ISZERO PUSH2 0x893 JUMPI PUSH2 0x893 PUSH2 0xC4F JUMP JUMPDEST PUSH1 0x40 MLOAD SWAP1 DUP1 DUP3 MSTORE DUP1 PUSH1 0x20 MUL PUSH1 0x20 ADD DUP3 ADD PUSH1 0x40 MSTORE DUP1 ISZERO PUSH2 0x8F1 JUMPI DUP2 PUSH1 0x20 ADD JUMPDEST PUSH2 0x8DE PUSH1 0x40 MLOAD DUP1 PUSH1 0x80 ADD PUSH1 0x40 MSTORE DUP1 PUSH1 0x60 DUP2 MSTORE PUSH1 0x20 ADD PUSH1 0x0 DUP2 MSTORE PUSH1 0x20 ADD PUSH1 0x0 DUP2 MSTORE PUSH1 0x20 ADD PUSH1 0x0 ISZERO ISZERO DUP2 MSTORE POP SWAP1 JUMP JUMPDEST DUP2 MSTORE PUSH1 0x20 ADD SWAP1 PUSH1 0x1 SWAP1 SUB SWAP1 DUP2 PUSH2 0x8B1 JUMPI SWAP1 POP JUMPDEST POP SWAP2 POP PUSH1 0x0 DUP1 JUMPDEST PUSH1 0x3 SLOAD DUP2 LT ISZERO PUSH2 0xAAB JUMPI PUSH1 0x0 PUSH1 0x1 PUSH1 0x3 DUP4 DUP2 SLOAD DUP2 LT PUSH2 0x919 JUMPI PUSH2 0x919 PUSH2 0x1069 JUMP JUMPDEST SWAP1 PUSH1 0x0 MSTORE PUSH1 0x20 PUSH1 0x0 KECCAK256 ADD PUSH1 0x40 MLOAD PUSH2 0x930 SWAP2 SWAP1 PUSH2 0x107F JUMP JUMPDEST SWAP1 DUP2 MSTORE PUSH1 0x20 ADD PUSH1 0x40 MLOAD DUP1 SWAP2 SUB SWAP1 KECCAK256 PUSH1 0x40 MLOAD DUP1 PUSH1 0xA0 ADD PUSH1 0x40 MSTORE SWAP1 DUP2 PUSH1 0x0 DUP3 ADD DUP1 SLOAD PUSH2 0x959 SWAP1 PUSH2 0xFDF JUMP JUMPDEST DUP1 PUSH1 0x1F ADD PUSH1 0x20 DUP1 SWAP2 DIV MUL PUSH1 0x20 ADD PUSH1 0x40 MLOAD SWAP1 DUP2 ADD PUSH1 0x40 MSTORE DUP1 SWAP3 SWAP2 SWAP1 DUP2 DUP2 MSTORE PUSH1 0x20 ADD DUP3 DUP1 SLOAD PUSH2 0x985 SWAP1 PUSH2 0xFDF JUMP JUMPDEST DUP1 ISZERO PUSH2 0x9D2 JUMPI DUP1 PUSH1 0x1F LT PUSH2 0x9A7 JUMPI PUSH2 0x100 DUP1 DUP4 SLOAD DIV MUL DUP4 MSTORE SWAP2 PUSH1 0x20 ADD SWAP2 PUSH2 0x9D2 JUMP JUMPDEST DUP3 ADD SWAP2 SWAP1 PUSH1 0x0 MSTORE PUSH1 0x20 PUSH1 0x0 KECCAK256 SWAP1 JUMPDEST DUP2 SLOAD DUP2 MSTORE SWAP1 PUSH1 0x1 ADD SWAP1 PUSH1 0x20 ADD DUP1 DUP4 GT PUSH2 0x9B5 JUMPI DUP3 SWAP1 SUB PUSH1 0x1F AND DUP3 ADD SWAP2 JUMPDEST POP POP POP SWAP2 DUP4 MSTORE POP POP PUSH1 0x1 DUP3 ADD SLOAD PUSH1 0x20 DUP3 ADD MSTORE PUSH1 0x2 DUP3 ADD SLOAD PUSH1 0x40 DUP3 ADD MSTORE PUSH1 0x3 DUP3 ADD SLOAD PUSH1 0x60 DUP3 ADD MSTORE PUSH1 0x4 SWAP1 SWAP2 ADD SLOAD PUSH1 0xFF AND ISZERO ISZERO PUSH1 0x80 SWAP2 DUP3 ADD MSTORE DUP2 ADD MLOAD SWAP1 SWAP2 POP DUP1 ISZERO PUSH2 0xA1F JUMPI POP DUP6 DUP2 PUSH1 0x60 ADD MLOAD GT ISZERO JUMPDEST ISZERO PUSH2 0xA98 JUMPI PUSH1 0x40 MLOAD DUP1 PUSH1 0x80 ADD PUSH1 0x40 MSTORE DUP1 DUP3 PUSH1 0x0 ADD MLOAD DUP2 MSTORE PUSH1 0x20 ADD DUP3 PUSH1 0x20 ADD MLOAD DUP2 MSTORE PUSH1 0x20 ADD DUP3 PUSH1 0x60 ADD MLOAD DUP2 MSTORE PUSH1 0x20 ADD PUSH2 0x1F4 DUP4 PUSH1 0x20 ADD MLOAD GT DUP1 ISZERO PUSH2 0xA67 JUMPI POP PUSH1 0x32 DUP4 PUSH1 0x60 ADD MLOAD GT ISZERO JUMPDEST ISZERO ISZERO DUP2 MSTORE POP DUP6 DUP5 DUP2 MLOAD DUP2 LT PUSH2 0xA7E JUMPI PUSH2 0xA7E PUSH2 0x1069 JUMP JUMPDEST PUSH1 0x20 MUL PUSH1 0x20 ADD ADD DUP2 SWAP1 MSTORE POP DUP3 DUP1 PUSH2 0xA94 SWAP1 PUSH2 0x1134 JUMP JUMPDEST SWAP4 POP POP JUMPDEST POP DUP1 PUSH2 0xAA3 DUP2 PUSH2 0x1134 JUMP JUMPDEST SWAP2 POP POP PUSH2 0x8F8 JUMP JUMPDEST POP POP POP SWAP2 SWAP1 POP JUMP JUMPDEST PUSH1 0x1 PUSH1 0x1 PUSH1 0xA0 SHL SUB DUP1 DUP3 AND PUSH1 0x0 SWAP1 DUP2 MSTORE PUSH1 0x2 PUSH1 0x20 MSTORE PUSH1 0x40 DUP2 KECCAK256 SLOAD SWAP1 SWAP2 AND DUP1 PUSH2 0xB0D JUMPI PUSH1 0x40 MLOAD PUSH3 0x461BCD PUSH1 0xE5 SHL DUP2 MSTORE PUSH1 0x20 PUSH1 0x4 DUP3 ADD MSTORE PUSH1 0xD PUSH1 0x24 DUP3 ADD MSTORE PUSH13 0x139BC81C1C9A58D94819995959 PUSH1 0x9A SHL PUSH1 0x44 DUP3 ADD MSTORE PUSH1 0x64 ADD PUSH2 0x46E JUMP JUMPDEST PUSH1 0x0 DUP1 DUP3 PUSH1 0x1 PUSH1 0x1 PUSH1 0xA0 SHL SUB AND PUSH4 0xFEAF968C PUSH1 0x40 MLOAD DUP2 PUSH4 0xFFFFFFFF AND PUSH1 0xE0 SHL DUP2 MSTORE PUSH1 0x4 ADD PUSH1 0xA0 PUSH1 0x40 MLOAD DUP1 DUP4 SUB DUP2 DUP7 GAS STATICCALL ISZERO DUP1 ISZERO PUSH2 0xB4E JUMPI RETURNDATASIZE PUSH1 0x0 DUP1 RETURNDATACOPY RETURNDATASIZE PUSH1 0x0 REVERT JUMPDEST POP POP POP POP PUSH1 0x40 MLOAD RETURNDATASIZE PUSH1 0x1F NOT PUSH1 0x1F DUP3 ADD AND DUP3 ADD DUP1 PUSH1 0x40 MSTORE POP DUP2 ADD SWAP1 PUSH2 0xB72 SWAP2 SWAP1 PUSH2 0x1167 JUMP JUMPDEST POP SWAP4 POP POP SWAP3 POP POP PUSH1 0x0 DUP3 SGT DUP1 ISZERO PUSH2 0xB94 JUMPI POP PUSH2 0xE10 PUSH2 0xB91 DUP3 TIMESTAMP PUSH2 0x11B7 JUMP JUMPDEST GT ISZERO JUMPDEST PUSH2 0xBCE JUMPI PUSH1 0x40 MLOAD PUSH3 0x461BCD PUSH1 0xE5 SHL DUP2 MSTORE PUSH1 0x20 PUSH1 0x4 DUP3 ADD MSTORE PUSH1 0xB PUSH1 0x24 DUP3 ADD MSTORE PUSH11 0x5374616C65207072696365 PUSH1 0xA8 SHL PUSH1 0x44 DUP3 ADD MSTORE PUSH1 0x64 ADD PUSH2 0x46E JUMP JUMPDEST POP SWAP4 SWAP3 POP POP POP JUMP JUMPDEST PUSH1 0x0 PUSH1 0x20 DUP3 DUP5 SUB SLT ISZERO PUSH2 0xBE8 JUMPI PUSH1 0x0 DUP1 REVERT JUMPDEST POP CALLDATALOAD SWAP2 SWAP1 POP JUMP JUMPDEST PUSH1 0x0 DUP2 MLOAD DUP1 DUP5 MSTORE PUSH1 0x0 JUMPDEST DUP2 DUP2 LT ISZERO PUSH2 0xC15 JUMPI PUSH1 0x20 DUP2 DUP6 ADD DUP2 ADD MLOAD DUP7 DUP4 ADD DUP3 ADD MSTORE ADD PUSH2 0xBF9 JUMP JUMPDEST POP PUSH1 0x0 PUSH1 0x20 DUP3 DUP7 ADD ADD MSTORE PUSH1 0x20 PUSH1 0x1F NOT PUSH1 0x1F DUP4 ADD AND DUP6 ADD ADD SWAP2 POP POP SWAP3 SWAP2 POP POP JUMP JUMPDEST PUSH1 0x20 DUP2 MSTORE PUSH1 0x0 PUSH2 0xC48 PUSH1 0x20 DUP4 ADD DUP5 PUSH2 0xBEF JUMP JUMPDEST SWAP4 SWAP3 POP POP POP JUMP JUMPDEST PUSH4 0x4E487B71 PUSH1 0xE0 SHL PUSH1 0x0 MSTORE PUSH1 0x41 PUSH1 0x4 MSTORE PUSH1 0x24 PUSH1 0x0 REVERT JUMPDEST PUSH1 0x0 PUSH1 0x20 DUP3 DUP5 SUB SLT ISZERO PUSH2 0xC77 JUMPI PUSH1 0x0 DUP1 REVERT JUMPDEST DUP2 CALLDATALOAD PUSH8 0xFFFFFFFFFFFFFFFF DUP1 DUP3 GT ISZERO PUSH2 0xC8F JUMPI PUSH1 0x0 DUP1 REVERT JUMPDEST DUP2 DUP5 ADD SWAP2 POP DUP5 PUSH1 0x1F DUP4 ADD SLT PUSH2 0xCA3 JUMPI PUSH1 0x0 DUP1 REVERT JUMPDEST DUP2 CALLDATALOAD DUP2 DUP2 GT ISZERO PUSH2 0xCB5 JUMPI PUSH2 0xCB5 PUSH2 0xC4F JUMP JUMPDEST PUSH1 0x40 MLOAD PUSH1 0x1F DUP3 ADD PUSH1 0x1F NOT SWAP1 DUP2 AND PUSH1 0x3F ADD AND DUP2 ADD SWAP1 DUP4 DUP3 GT DUP2 DUP4 LT OR ISZERO PUSH2 0xCDD JUMPI PUSH2 0xCDD PUSH2 0xC4F JUMP JUMPDEST DUP2 PUSH1 0x40 MSTORE DUP3 DUP2 MSTORE DUP8 PUSH1 0x20 DUP5 DUP8 ADD ADD GT ISZERO PUSH2 0xCF6 JUMPI PUSH1 0x0 DUP1 REVERT JUMPDEST DUP3 PUSH1 0x20 DUP7 ADD PUSH1 0x20 DUP4 ADD CALLDATACOPY PUSH1 0x0 SWAP3 DUP2 ADD PUSH1 0x20 ADD SWAP3 SWAP1 SWAP3 MSTORE POP SWAP6 SWAP5 POP POP POP POP POP JUMP JUMPDEST PUSH1 0xA0 DUP2 MSTORE PUSH1 0x0 PUSH2 0xD29 PUSH1 0xA0 DUP4 ADD DUP9 PUSH2 0xBEF JUMP JUMPDEST SWAP1 POP DUP6 PUSH1 0x20 DUP4 ADD MSTORE DUP5 PUSH1 0x40 DUP4 ADD MSTORE DUP4 PUSH1 0x60 DUP4 ADD MSTORE DUP3 ISZERO ISZERO PUSH1 0x80 DUP4 ADD MSTORE SWAP7 SWAP6 POP POP POP POP POP POP JUMP JUMPDEST PUSH1 0x0 PUSH1 0x20 DUP1 DUP4 ADD DUP2 DUP5 MSTORE DUP1 DUP6 MLOAD DUP1 DUP4 MSTORE PUSH1 0x40 DUP7 ADD SWAP2 POP PUSH1 0x40 DUP2 PUSH1 0x5 SHL DUP8 ADD ADD SWAP3 POP DUP4 DUP8 ADD PUSH1 0x0 JUMPDEST DUP3 DUP2 LT ISZERO PUSH2 0xDA4 JUMPI PUSH1 0x3F NOT DUP9 DUP7 SUB ADD DUP5 MSTORE PUSH2 0xD92 DUP6 DUP4 MLOAD PUSH2 0xBEF JUMP JUMPDEST SWAP5 POP SWAP3 DUP6 ADD SWAP3 SWAP1 DUP6 ADD SWAP1 PUSH1 0x1 ADD PUSH2 0xD76 JUMP JUMPDEST POP SWAP3 SWAP8 SWAP7 POP POP POP POP POP POP POP JUMP JUMPDEST DUP1 CALLDATALOAD PUSH1 0x1 PUSH1 0x1 PUSH1 0xA0 SHL SUB DUP2 AND DUP2 EQ PUSH2 0xDC8 JUMPI PUSH1 0x0 DUP1 REVERT JUMPDEST SWAP2 SWAP1 POP JUMP JUMPDEST PUSH1 0x0 DUP1 PUSH1 0x40 DUP4 DUP6 SUB SLT ISZERO PUSH2 0xDE0 JUMPI PUSH1 0x0 DUP1 REVERT JUMPDEST PUSH2 0xDE9 DUP4 PUSH2 0xDB1 JUMP JUMPDEST SWAP2 POP PUSH2 0xDF7 PUSH1 0x20 DUP5 ADD PUSH2 0xDB1 JUMP JUMPDEST SWAP1 POP SWAP3 POP SWAP3 SWAP1 POP JUMP JUMPDEST PUSH1 0x0 DUP1 DUP4 PUSH1 0x1F DUP5 ADD SLT PUSH2 0xE12 JUMPI PUSH1 0x0 DUP1 REVERT JUMPDEST POP DUP2 CALLDATALOAD PUSH8 0xFFFFFFFFFFFFFFFF DUP2 GT ISZERO PUSH2 0xE2A JUMPI PUSH1 0x0 DUP1 REVERT JUMPDEST PUSH1 0x20 DUP4 ADD SWAP2 POP DUP4 PUSH1 0x20 DUP3 DUP6 ADD ADD GT ISZERO PUSH2 0xE42 JUMPI PUSH1 0x0 DUP1 REVERT JUMPDEST SWAP3 POP SWAP3 SWAP1 POP JUMP JUMPDEST PUSH1 0x0 DUP1 PUSH1 0x20 DUP4 DUP6 SUB SLT ISZERO PUSH2 0xE5C JUMPI PUSH1 0x0 DUP1 REVERT JUMPDEST DUP3 CALLDATALOAD PUSH8 0xFFFFFFFFFFFFFFFF DUP2 GT ISZERO PUSH2 0xE73 JUMPI PUSH1 0x0 DUP1 REVERT JUMPDEST PUSH2 0xE7F DUP6 DUP3 DUP7 ADD PUSH2 0xE00 JUMP JUMPDEST SWAP1 SWAP7 SWAP1 SWAP6 POP SWAP4 POP POP POP POP JUMP JUMPDEST PUSH1 0x20 DUP2 MSTORE PUSH1 0x0 DUP3 MLOAD PUSH1 0xA0 PUSH1 0x20 DUP5 ADD MSTORE PUSH2 0xEA7 PUSH1 0xC0 DUP5 ADD DUP3 PUSH2 0xBEF JUMP JUMPDEST SWAP1 POP PUSH1 0x20 DUP5 ADD MLOAD PUSH1 0x40 DUP5 ADD MSTORE PUSH1 0x40 DUP5 ADD MLOAD PUSH1 0x60 DUP5 ADD MSTORE PUSH1 0x60 DUP5 ADD MLOAD PUSH1 0x80 DUP5 ADD MSTORE PUSH1 0x80 DUP5 ADD MLOAD ISZERO ISZERO PUSH1 0xA0 DUP5 ADD MSTORE DUP1 SWAP2 POP POP SWAP3 SWAP2 POP POP JUMP JUMPDEST PUSH1 0x0 PUSH1 0x20 DUP3 DUP5 SUB SLT ISZERO PUSH2 0xEEF JUMPI PUSH1 0x0 DUP1 REVERT JUMPDEST PUSH2 0xC48 DUP3 PUSH2 0xDB1 JUMP JUMPDEST PUSH1 0x0 DUP1 PUSH1 0x0 DUP1 PUSH1 0x0 PUSH1 0x80 DUP7 DUP9 SUB SLT ISZERO PUSH2 0xF10 JUMPI PUSH1 0x0 DUP1 REVERT JUMPDEST DUP6 CALLDATALOAD PUSH8 0xFFFFFFFFFFFFFFFF DUP2 GT ISZERO PUSH2 0xF27 JUMPI PUSH1 0x0 DUP1 REVERT JUMPDEST PUSH2 0xF33 DUP9 DUP3 DUP10 ADD PUSH2 0xE00 JUMP JUMPDEST SWAP1 SWAP10 SWAP1 SWAP9 POP PUSH1 0x20 DUP9 ADD CALLDATALOAD SWAP8 PUSH1 0x40 DUP2 ADD CALLDATALOAD SWAP8 POP PUSH1 0x60 ADD CALLDATALOAD SWAP6 POP SWAP4 POP POP POP POP JUMP JUMPDEST PUSH1 0x0 PUSH1 0x20 DUP1 DUP4 ADD DUP2 DUP5 MSTORE DUP1 DUP6 MLOAD DUP1 DUP4 MSTORE PUSH1 0x40 SWAP3 POP DUP3 DUP7 ADD SWAP2 POP DUP3 DUP2 PUSH1 0x5 SHL DUP8 ADD ADD DUP5 DUP9 ADD PUSH1 0x0 JUMPDEST DUP4 DUP2 LT ISZERO PUSH2 0xFD1 JUMPI PUSH1 0x3F NOT DUP10 DUP5 SUB ADD DUP6 MSTORE DUP2 MLOAD PUSH1 0x80 DUP2 MLOAD DUP2 DUP7 MSTORE PUSH2 0xF9F DUP3 DUP8 ADD DUP3 PUSH2 0xBEF JUMP JUMPDEST DUP4 DUP12 ADD MLOAD DUP8 DUP13 ADD MSTORE DUP10 DUP5 ADD MLOAD DUP11 DUP9 ADD MSTORE PUSH1 0x60 SWAP4 DUP5 ADD MLOAD ISZERO ISZERO SWAP4 SWAP1 SWAP7 ADD SWAP3 SWAP1 SWAP3 MSTORE POP POP SWAP4 DUP7 ADD SWAP4 SWAP1 DUP7 ADD SWAP1 PUSH1 0x1 ADD PUSH2 0xF79 JUMP JUMPDEST POP SWAP1 SWAP9 SWAP8 POP POP POP POP POP POP POP POP JUMP JUMPDEST PUSH1 0x1 DUP2 DUP2 SHR SWAP1 DUP3 AND DUP1 PUSH2 0xFF3 JUMPI PUSH1 0x7F DUP3 AND SWAP2 POP JUMPDEST PUSH1 0x20 DUP3 LT DUP2 SUB PUSH2 0x1013 JUMPI PUSH4 0x4E487B71 PUSH1 0xE0 SHL PUSH1 0x0 MSTORE PUSH1 0x22 PUSH1 0x4 MSTORE PUSH1 0x24 PUSH1 0x0 REVERT JUMPDEST POP SWAP2 SWAP1 POP JUMP JUMPDEST DUP2 DUP4 DUP3 CALLDATACOPY PUSH1 0x0 SWAP2 ADD SWAP1 DUP2 MSTORE SWAP2 SWAP1 POP JUMP JUMPDEST PUSH1 0x60 DUP2 MSTORE DUP4 PUSH1 0x60 DUP3 ADD MSTORE DUP4 DUP6 PUSH1 0x80 DUP4 ADD CALLDATACOPY PUSH1 0x0 PUSH1 0x80 DUP6 DUP4 ADD ADD MSTORE PUSH1 0x0 PUSH1 0x80 PUSH1 0x1F NOT PUSH1 0x1F DUP8 ADD AND DUP4 ADD ADD SWAP1 POP DUP4 PUSH1 0x20 DUP4 ADD MSTORE DUP3 PUSH1 0x40 DUP4 ADD MSTORE SWAP6 SWAP5 POP POP POP POP POP JUMP JUMPDEST PUSH4 0x4E487B71 PUSH1 0xE0 SHL PUSH1 0x0 MSTORE PUSH1 0x32 PUSH1 0x4 MSTORE PUSH1 0x24 PUSH1 0x0 REVERT JUMPDEST PUSH1 0x0 DUP1 DUP4 SLOAD DUP2 PUSH1 0x1 DUP3 DUP2 SHR SWAP2 POP DUP1 DUP4 AND DUP1 PUSH2 0x109B JUMPI PUSH1 0x7F DUP4 AND SWAP3 POP JUMPDEST PUSH1 0x20 DUP1 DUP5 LT DUP3 SUB PUSH2 0x10BA JUMPI PUSH4 0x4E487B71 PUSH1 0xE0 SHL DUP7 MSTORE PUSH1 0x22 PUSH1 0x4 MSTORE PUSH1 0x24 DUP7 REVERT JUMPDEST DUP2 DUP1 ISZERO PUSH2 0x10CE JUMPI PUSH1 0x1 DUP2 EQ PUSH2 0x10E3 JUMPI PUSH2 0x1110 JUMP JUMPDEST PUSH1 0xFF NOT DUP7 AND DUP10 MSTORE DUP5 ISZERO ISZERO DUP6 MUL DUP10 ADD SWAP7 POP PUSH2 0x1110 JUMP JUMPDEST PUSH1 0x0 DUP11 DUP2 MSTORE PUSH1 0x20 SWAP1 KECCAK256 PUSH1 0x0 JUMPDEST DUP7 DUP2 LT ISZERO PUSH2 0x1108 JUMPI DUP2 SLOAD DUP12 DUP3 ADD MSTORE SWAP1 DUP6 ADD SWAP1 DUP4 ADD PUSH2 0x10EF JUMP JUMPDEST POP POP DUP5 DUP10 ADD SWAP7 POP JUMPDEST POP SWAP5 SWAP9 SWAP8 POP POP POP POP POP POP POP POP JUMP JUMPDEST PUSH4 0x4E487B71 PUSH1 0xE0 SHL PUSH1 0x0 MSTORE PUSH1 0x11 PUSH1 0x4 MSTORE PUSH1 0x24 PUSH1 0x0 REVERT JUMPDEST PUSH1 0x0 PUSH1 0x1 DUP3 ADD PUSH2 0x1146 JUMPI PUSH2 0x1146 PUSH2 0x111E JUMP JUMPDEST POP PUSH1 0x1 ADD SWAP1 JUMP JUMPDEST DUP1 MLOAD PUSH10 0xFFFFFFFFFFFFFFFFFFFF DUP2 AND DUP2 EQ PUSH2 0xDC8 JUMPI PUSH1 0x0 DUP1 REVERT JUMPDEST PUSH1 0x0 DUP1 PUSH1 0x0 DUP1 PUSH1 0x0 PUSH1 0xA0 DUP7 DUP9 SUB SLT ISZERO PUSH2 0x117F JUMPI PUSH1 0x0 DUP1 REVERT JUMPDEST PUSH2 0x1188 DUP7 PUSH2 0x114D JUMP JUMPDEST SWAP5 POP PUSH1 0x20 DUP7 ADD MLOAD SWAP4 POP PUSH1 0x40 DUP7 ADD MLOAD SWAP3 POP PUSH1 0x60 DUP7 ADD MLOAD SWAP2 POP PUSH2 0x11AB PUSH1 0x80 DUP8 ADD PUSH2 0x114D JUMP JUMPDEST SWAP1 POP SWAP3 SWAP6 POP SWAP3 SWAP6 SWAP1 SWAP4 POP JUMP JUMPDEST DUP2 DUP2 SUB DUP2 DUP2 GT ISZERO PUSH2 0x5C7 JUMPI PUSH2 0x5C7 PUSH2 0x111E JUMP INVALID LOG2 PUSH5 0x6970667358 0x22 SLT KECCAK256 PUSH14 0xE5716BA0270BFD371EB512FADEFD 0xB0 0xCA SWAP10 0xCE 0xD9 0xFC PUSH29 0x43EADC296EBAE994EE4A64736F6C63430008130033C2575A0E9E593C00 0xF9 MSIZE 0xF8 0xC9 0x2F SLT 0xDB 0x28 PUSH10 0xC3395A3B0502D05E2516 PREVRANDAO PUSH16 0x71F85B00000000000000000000000000 "},"methodIdentifiers":{"getAllProtocols()":"741c53eb","getBestYieldOpportunities(uint256)":"ae11d78d","getProtocol(string)":"7beb4107","getTokenPrice(address)":"d02641a0","owner()":"8da5cb5b","priceFeeds(address)":"9dcb511a","protocolList(uint256)":"07c28c26","protocols(string)":"1dae9454","setPriceFeed(address,address)":"76e11286","updateProtocol(string,uint256,uint256,uint256)":"ac26c3f6"}}}}}