{"contracts/DEXAggregator.sol":{"DEXAggregator":{"abi":[{"inputs":[],"stateMutability":"nonpayable","type":"constructor"},{"anonymous":false,"inputs":[{"indexed":true,"internalType":"address","name":"user","type":"address"},{"indexed":false,"internalType":"address","name":"tokenIn","type":"address"},{"indexed":false,"internalType":"address","name":"tokenOut","type":"address"},{"indexed":false,"internalType":"uint256","name":"amountIn","type":"uint256"},{"indexed":false,"internalType":"uint256","name":"amountOut","type":"uint256"},{"indexed":false,"internalType":"string","name":"dexUsed","type":"string"}],"name":"SwapExecuted","type":"event"},{"inputs":[],"name":"agniRouter","outputs":[{"internalType":"address","name":"","type":"address"}],"stateMutability":"view","type":"function"},{"inputs":[{"internalType":"address","name":"token","type":"address"}],"name":"emergencyWithdraw","outputs":[],"stateMutability":"nonpayable","type":"function"},{"inputs":[{"components":[{"internalType":"address","name":"tokenIn","type":"address"},{"internalType":"address","name":"tokenOut","type":"address"},{"internalType":"uint256","name":"amountIn","type":"uint256"},{"internalType":"uint256","name":"amountOutMin","type":"uint256"},{"internalType":"address","name":"recipient","type":"address"},{"internalType":"string","name":"preferredDEX","type":"string"}],"internalType":"struct DEXAggregator.SwapParams","name":"params","type":"tuple"}],"name":"executeSwap","outputs":[{"internalType":"uint256","name":"amountOut","type":"uint256"}],"stateMutability":"nonpayable","type":"function"},{"inputs":[],"name":"fusionXRouter","outputs":[{"internalType":"address","name":"","type":"address"}],"stateMutability":"view","type":"function"},{"inputs":[{"internalType":"address","name":"tokenIn","type":"address"},{"internalType":"address","name":"tokenOut","type":"address"},{"internalType":"uint256","name":"amountIn","type":"uint256"}],"name":"getSwapQuote","outputs":[{"internalType":"uint256","name":"amountOut","type":"uint256"},{"internalType":"string","name":"bestDEX","type":"string"}],"stateMutability":"view","type":"function"},{"inputs":[],"name":"owner","outputs":[{"internalType":"address","name":"","type":"address"}],"stateMutability":"view","type":"function"},{"inputs":[{"internalType":"address","name":"_agniRouter","type":"address"},{"internalType":"address","name":"_fusionXRouter","type":"address"}],"name":"setRouters","outputs":[],"stateMutability":"nonpayable","type":"function"}],"evm":{"bytecode":{"linkReferences":{},"object":"608060405234801561001057600080fd5b50600080546001600160a01b031916331790556112e0806100326000396000f3fe608060405234801561001057600080fd5b506004361061007c5760003560e01c80635ead6fb01161005b5780635ead6fb0146100f35780636ff1c9bc146101085780638da5cb5b1461011b578063f431f1031461012e57600080fd5b80623bb4681461008157806315d9b623146100a757806342606771146100d2575b600080fd5b61009461008f366004610ea8565b610141565b6040519081526020015b60405180910390f35b6002546100ba906001600160a01b031681565b6040516001600160a01b03909116815260200161009e565b6100e56100e0366004610f06565b61081d565b60405161009e929190610f92565b610106610101366004610fb3565b6109a6565b005b610106610116366004610fe6565b610a1a565b6000546100ba906001600160a01b031681565b6001546100ba906001600160a01b031681565b60006101536040830160208401610fe6565b6001600160a01b03166101696020840184610fe6565b6001600160a01b0316036101b15760405162461bcd60e51b815260206004820152600a60248201526929b0b6b2903a37b5b2b760b11b60448201526064015b60405180910390fd5b60008260400135116101f65760405162461bcd60e51b815260206004820152600e60248201526d125b9d985b1a5908185b5bdd5b9d60921b60448201526064016101a8565b600061020860a0840160808501610fe6565b6001600160a01b0316036102525760405162461bcd60e51b8152602060048201526011602482015270125b9d985b1a59081c9958da5c1a595b9d607a1b60448201526064016101a8565b61025f6020830183610fe6565b6001600160a01b03166323b872dd61027d60a0850160808601610fe6565b604080516001600160e01b031960e085901b1681526001600160a01b03909216600483015230602483015285013560448201526064016020604051808303816000875af11580156102d2573d6000803e3d6000fd5b505050506040513d601f19601f820116820180604052508101906102f69190611001565b506000606061036161030b60a0860186611023565b8080601f0160208091040260200160405190810160405280939291908181526020018383808284376000920191909152505060408051808201909152600481526361676e6960e01b60208201529150610b929050565b801561037757506001546001600160a01b031615155b156103ad57505060015460408051808201909152600481526361676e6960e01b60208201526001600160a01b0390911690610495565b6104166103bd60a0860186611023565b8080601f016020809104026020016040519081016040528093929190818152602001838380828437600092019190915250506040805180820190915260078152660cceae6d2dedcf60cb1b60208201529150610b929050565b801561042c57506002546001600160a01b031615155b156104655750506002546040805180820190915260078152660cceae6d2dedcf60cb1b60208201526001600160a01b0390911690610495565b61048f6104756020860186610fe6565b6104856040870160208801610fe6565b8660400135610bec565b90925090505b6001600160a01b0382166104e15760405162461bcd60e51b81526020600482015260136024820152724e6f20726f7574657220617661696c61626c6560681b60448201526064016101a8565b6104ee6020850185610fe6565b6040805163095ea7b360e01b81526001600160a01b03858116600483015291870135602482015291169063095ea7b3906044016020604051808303816000875af1158015610540573d6000803e3d6000fd5b505050506040513d601f19601f820116820180604052508101906105649190611001565b506040805160028082526060820183526000926020830190803683370190505090506105936020860186610fe6565b816000815181106105a6576105a6611087565b6001600160a01b039092166020928302919091018201526105cd9060408701908701610fe6565b816001815181106105e0576105e0611087565b60200260200101906001600160a01b031690816001600160a01b0316815250506060610628836040518060400160405280600481526020016361676e6960e01b815250610b92565b156106d1576001600160a01b0384166338ed1739604088013560608901358561065760a08c0160808d01610fe6565b6106634261012c6110b3565b6040518663ffffffff1660e01b815260040161068395949392919061110a565b6000604051808303816000875af11580156106a2573d6000803e3d6000fd5b505050506040513d6000823e601f3d908101601f191682016040526106ca9190810190611146565b9050610771565b6001600160a01b0384166338ed173960408801356060890135856106fb60a08c0160808d01610fe6565b6107074261012c6110b3565b6040518663ffffffff1660e01b815260040161072795949392919061110a565b6000604051808303816000875af1158015610746573d6000803e3d6000fd5b505050506040513d6000823e601f3d908101601f1916820160405261076e9190810190611146565b90505b80600182516107809190611204565b8151811061079057610790611087565b602002602001015194508560800160208101906107ad9190610fe6565b6001600160a01b03167f1e2e5ea08c1dc99fe97e4177552b806d875adf84e8c9706c0128f4a955b2d9bb6107e46020890189610fe6565b6107f460408a0160208b01610fe6565b8960400135898860405161080c959493929190611217565b60405180910390a250505050919050565b6000606060008061082f878787610bec565b90925090506001600160a01b03821661085f5760006040518060200160405280600081525093509350505061099e565b604080516002808252606082018352600092602083019080368337019050509050878160008151811061089457610894611087565b60200260200101906001600160a01b031690816001600160a01b03168152505086816001815181106108c8576108c8611087565b6001600160a01b03928316602091820292909201015260405163d06ca61f60e01b81529084169063d06ca61f90610905908990859060040161125c565b600060405180830381865afa92505050801561094357506040513d6000823e601f3d908101601f191682016040526109409190810190611146565b60015b610965576000604051806020016040528060008152509450945050505061099e565b80600182516109749190611204565b8151811061098457610984611087565b602002602001015183955095505050505061099e565b5050505b935093915050565b6000546001600160a01b031633146109ec5760405162461bcd60e51b81526020600482015260096024820152682737ba1037bbb732b960b91b60448201526064016101a8565b600180546001600160a01b039384166001600160a01b03199182161790915560028054929093169116179055565b6000546001600160a01b03163314610a605760405162461bcd60e51b81526020600482015260096024820152682737ba1037bbb732b960b91b60448201526064016101a8565b6001600160a01b038116610aac57600080546040516001600160a01b03909116914780156108fc02929091818181858888f19350505050158015610aa8573d6000803e3d6000fd5b5050565b6000546040516370a0823160e01b81523060048201526001600160a01b038381169263a9059cbb9291169083906370a0823190602401602060405180830381865afa158015610aff573d6000803e3d6000fd5b505050506040513d601f19601f82011682018060405250810190610b239190611275565b6040516001600160e01b031960e085901b1681526001600160a01b03909216600483015260248201526044016020604051808303816000875af1158015610b6e573d6000803e3d6000fd5b505050506040513d601f19601f82011682018060405250810190610aa89190611001565b600081604051602001610ba5919061128e565b6040516020818303038152906040528051906020012083604051602001610bcc919061128e565b604051602081830303815290604052805190602001201490505b92915050565b60408051600280825260608281019093526000929183918160200160208202803683370190505090508581600081518110610c2957610c29611087565b60200260200101906001600160a01b031690816001600160a01b0316815250508481600181518110610c5d57610c5d611087565b6001600160a01b0392831660209182029290920101526001546000911615610d855760015460405163d06ca61f60e01b81526001600160a01b039091169063d06ca61f90610cb1908890869060040161125c565b600060405180830381865afa925050508015610cef57506040513d6000823e601f3d908101601f19168201604052610cec9190810190611146565b60015b15610d8557818160018351610d049190611204565b81518110610d1457610d14611087565b60200260200101511115610d83578060018251610d319190611204565b81518110610d4157610d41611087565b60200260200101519150600160009054906101000a90046001600160a01b031694506040518060400160405280600481526020016361676e6960e01b81525093505b505b6002546001600160a01b031615610e9e5760025460405163d06ca61f60e01b81526001600160a01b039091169063d06ca61f90610dc8908890869060040161125c565b600060405180830381865afa925050508015610e0657506040513d6000823e601f3d908101601f19168201604052610e039190810190611146565b60015b15610e9e57818160018351610e1b9190611204565b81518110610e2b57610e2b611087565b6020026020010151111561099a578060018251610e489190611204565b81518110610e5857610e58611087565b60200260200101519150600260009054906101000a90046001600160a01b03169450604051806040016040528060078152602001660cceae6d2dedcf60cb1b8152509350505b5050935093915050565b600060208284031215610eba57600080fd5b813567ffffffffffffffff811115610ed157600080fd5b820160c08185031215610ee357600080fd5b9392505050565b80356001600160a01b0381168114610f0157600080fd5b919050565b600080600060608486031215610f1b57600080fd5b610f2484610eea565b9250610f3260208501610eea565b9150604084013590509250925092565b60005b83811015610f5d578181015183820152602001610f45565b50506000910152565b60008151808452610f7e816020860160208601610f42565b601f01601f19169290920160200192915050565b828152604060208201526000610fab6040830184610f66565b949350505050565b60008060408385031215610fc657600080fd5b610fcf83610eea565b9150610fdd60208401610eea565b90509250929050565b600060208284031215610ff857600080fd5b610ee382610eea565b60006020828403121561101357600080fd5b81518015158114610ee357600080fd5b6000808335601e1984360301811261103a57600080fd5b83018035915067ffffffffffffffff82111561105557600080fd5b60200191503681900382131561106a57600080fd5b9250929050565b634e487b7160e01b600052604160045260246000fd5b634e487b7160e01b600052603260045260246000fd5b634e487b7160e01b600052601160045260246000fd5b80820180821115610be657610be661109d565b600081518084526020808501945080840160005b838110156110ff5781516001600160a01b0316875295820195908201906001016110da565b509495945050505050565b85815284602082015260a06040820152600061112960a08301866110c6565b6001600160a01b0394909416606083015250608001529392505050565b6000602080838503121561115957600080fd5b825167ffffffffffffffff8082111561117157600080fd5b818501915085601f83011261118557600080fd5b81518181111561119757611197611071565b8060051b604051601f19603f830116810181811085821117156111bc576111bc611071565b6040529182528482019250838101850191888311156111da57600080fd5b938501935b828510156111f8578451845293850193928501926111df565b98975050505050505050565b81810381811115610be657610be661109d565b6001600160a01b03868116825285166020820152604081018490526060810183905260a06080820181905260009061125190830184610f66565b979650505050505050565b828152604060208201526000610fab60408301846110c6565b60006020828403121561128757600080fd5b5051919050565b600082516112a0818460208701610f42565b919091019291505056fea2646970667358221220530d17438963e11d430a60eab0c2aacde99891da69632a7b8b73d949f819f11964736f6c63430008130033","opcodes":"PUSH1 0x80 PUSH1 0x40 MSTORE CALLVALUE DUP1 ISZERO PUSH2 0x10 JUMPI PUSH1 0x0 DUP1 REVERT JUMPDEST POP PUSH1 0x0 DUP1 SLOAD PUSH1 0x1 PUSH1 0x1 PUSH1 0xA0 SHL SUB NOT AND CALLER OR SWAP1 SSTORE PUSH2 0x12E0 DUP1 PUSH2 0x32 PUSH1 0x0 CODECOPY PUSH1 0x0 RETURN INVALID PUSH1 0x80 PUSH1 0x40 MSTORE CALLVALUE DUP1 ISZERO PUSH2 0x10 JUMPI PUSH1 0x0 DUP1 REVERT JUMPDEST POP PUSH1 0x4 CALLDATASIZE LT PUSH2 0x7C JUMPI PUSH1 0x0 CALLDATALOAD PUSH1 0xE0 SHR DUP1 PUSH4 0x5EAD6FB0 GT PUSH2 0x5B JUMPI DUP1 PUSH4 0x5EAD6FB0 EQ PUSH2 0xF3 JUMPI DUP1 PUSH4 0x6FF1C9BC EQ PUSH2 0x108 JUMPI DUP1 PUSH4 0x8DA5CB5B EQ PUSH2 0x11B JUMPI DUP1 PUSH4 0xF431F103 EQ PUSH2 0x12E JUMPI PUSH1 0x0 DUP1 REVERT JUMPDEST DUP1 PUSH3 0x3BB468 EQ PUSH2 0x81 JUMPI DUP1 PUSH4 0x15D9B623 EQ PUSH2 0xA7 JUMPI DUP1 PUSH4 0x42606771 EQ PUSH2 0xD2 JUMPI JUMPDEST PUSH1 0x0 DUP1 REVERT JUMPDEST PUSH2 0x94 PUSH2 0x8F CALLDATASIZE PUSH1 0x4 PUSH2 0xEA8 JUMP JUMPDEST PUSH2 0x141 JUMP JUMPDEST PUSH1 0x40 MLOAD SWAP1 DUP2 MSTORE PUSH1 0x20 ADD JUMPDEST PUSH1 0x40 MLOAD DUP1 SWAP2 SUB SWAP1 RETURN JUMPDEST PUSH1 0x2 SLOAD PUSH2 0xBA SWAP1 PUSH1 0x1 PUSH1 0x1 PUSH1 0xA0 SHL SUB AND DUP2 JUMP JUMPDEST PUSH1 0x40 MLOAD PUSH1 0x1 PUSH1 0x1 PUSH1 0xA0 SHL SUB SWAP1 SWAP2 AND DUP2 MSTORE PUSH1 0x20 ADD PUSH2 0x9E JUMP JUMPDEST PUSH2 0xE5 PUSH2 0xE0 CALLDATASIZE PUSH1 0x4 PUSH2 0xF06 JUMP JUMPDEST PUSH2 0x81D JUMP JUMPDEST PUSH1 0x40 MLOAD PUSH2 0x9E SWAP3 SWAP2 SWAP1 PUSH2 0xF92 JUMP JUMPDEST PUSH2 0x106 PUSH2 0x101 CALLDATASIZE PUSH1 0x4 PUSH2 0xFB3 JUMP JUMPDEST PUSH2 0x9A6 JUMP JUMPDEST STOP JUMPDEST PUSH2 0x106 PUSH2 0x116 CALLDATASIZE PUSH1 0x4 PUSH2 0xFE6 JUMP JUMPDEST PUSH2 0xA1A JUMP JUMPDEST PUSH1 0x0 SLOAD PUSH2 0xBA SWAP1 PUSH1 0x1 PUSH1 0x1 PUSH1 0xA0 SHL SUB AND DUP2 JUMP JUMPDEST PUSH1 0x1 SLOAD PUSH2 0xBA SWAP1 PUSH1 0x1 PUSH1 0x1 PUSH1 0xA0 SHL SUB AND DUP2 JUMP JUMPDEST PUSH1 0x0 PUSH2 0x153 PUSH1 0x40 DUP4 ADD PUSH1 0x20 DUP5 ADD PUSH2 0xFE6 JUMP JUMPDEST PUSH1 0x1 PUSH1 0x1 PUSH1 0xA0 SHL SUB AND PUSH2 0x169 PUSH1 0x20 DUP5 ADD DUP5 PUSH2 0xFE6 JUMP JUMPDEST PUSH1 0x1 PUSH1 0x1 PUSH1 0xA0 SHL SUB AND SUB PUSH2 0x1B1 JUMPI PUSH1 0x40 MLOAD PUSH3 0x461BCD PUSH1 0xE5 SHL DUP2 MSTORE PUSH1 0x20 PUSH1 0x4 DUP3 ADD MSTORE PUSH1 0xA PUSH1 0x24 DUP3 ADD MSTORE PUSH10 0x29B0B6B2903A37B5B2B7 PUSH1 0xB1 SHL PUSH1 0x44 DUP3 ADD MSTORE PUSH1 0x64 ADD JUMPDEST PUSH1 0x40 MLOAD DUP1 SWAP2 SUB SWAP1 REVERT JUMPDEST PUSH1 0x0 DUP3 PUSH1 0x40 ADD CALLDATALOAD GT PUSH2 0x1F6 JUMPI PUSH1 0x40 MLOAD PUSH3 0x461BCD PUSH1 0xE5 SHL DUP2 MSTORE PUSH1 0x20 PUSH1 0x4 DUP3 ADD MSTORE PUSH1 0xE PUSH1 0x24 DUP3 ADD MSTORE PUSH14 0x125B9D985B1A5908185B5BDD5B9D PUSH1 0x92 SHL PUSH1 0x44 DUP3 ADD MSTORE PUSH1 0x64 ADD PUSH2 0x1A8 JUMP JUMPDEST PUSH1 0x0 PUSH2 0x208 PUSH1 0xA0 DUP5 ADD PUSH1 0x80 DUP6 ADD PUSH2 0xFE6 JUMP JUMPDEST PUSH1 0x1 PUSH1 0x1 PUSH1 0xA0 SHL SUB AND SUB PUSH2 0x252 JUMPI PUSH1 0x40 MLOAD PUSH3 0x461BCD PUSH1 0xE5 SHL DUP2 MSTORE PUSH1 0x20 PUSH1 0x4 DUP3 ADD MSTORE PUSH1 0x11 PUSH1 0x24 DUP3 ADD MSTORE PUSH17 0x125B9D985B1A59081C9958DA5C1A595B9D PUSH1 0x7A SHL PUSH1 0x44 DUP3 ADD MSTORE PUSH1 0x64 ADD PUSH2 0x1A8 JUMP JUMPDEST PUSH2 0x25F PUSH1 0x20 DUP4 ADD DUP4 PUSH2 0xFE6 JUMP JUMPDEST PUSH1 0x1 PUSH1 0x1 PUSH1 0xA0 SHL SUB AND PUSH4 0x23B872DD PUSH2 0x27D PUSH1 0xA0 DUP6 ADD PUSH1 0x80 DUP7 ADD PUSH2 0xFE6 JUMP JUMPDEST PUSH1 0x40 DUP1 MLOAD PUSH1 0x1 PUSH1 0x1 PUSH1 0xE0 SHL SUB NOT PUSH1 0xE0 DUP6 SWAP1 SHL AND DUP2 MSTORE PUSH1 0x1 PUSH1 0x1 PUSH1 0xA0 SHL SUB SWAP1 SWAP3 AND PUSH1 0x4 DUP4 ADD MSTORE ADDRESS PUSH1 0x24 DUP4 ADD MSTORE DUP6 ADD CALLDATALOAD PUSH1 0x44 DUP3 ADD MSTORE PUSH1 0x64 ADD PUSH1 0x20 PUSH1 0x40 MLOAD DUP1 DUP4 SUB DUP2 PUSH1 0x0 DUP8 GAS CALL ISZERO DUP1 ISZERO PUSH2 0x2D2 JUMPI RETURNDATASIZE PUSH1 0x0 DUP1 RETURNDATACOPY RETURNDATASIZE PUSH1 0x0 REVERT JUMPDEST POP POP POP POP PUSH1 0x40 MLOAD RETURNDATASIZE PUSH1 0x1F NOT PUSH1 0x1F DUP3 ADD AND DUP3 ADD DUP1 PUSH1 0x40 MSTORE POP DUP2 ADD SWAP1 PUSH2 0x2F6 SWAP2 SWAP1 PUSH2 0x1001 JUMP JUMPDEST POP PUSH1 0x0 PUSH1 0x60 PUSH2 0x361 PUSH2 0x30B PUSH1 0xA0 DUP7 ADD DUP7 PUSH2 0x1023 JUMP JUMPDEST DUP1 DUP1 PUSH1 0x1F ADD PUSH1 0x20 DUP1 SWAP2 DIV MUL PUSH1 0x20 ADD PUSH1 0x40 MLOAD SWAP1 DUP2 ADD PUSH1 0x40 MSTORE DUP1 SWAP4 SWAP3 SWAP2 SWAP1 DUP2 DUP2 MSTORE PUSH1 0x20 ADD DUP4 DUP4 DUP1 DUP3 DUP5 CALLDATACOPY PUSH1 0x0 SWAP3 ADD SWAP2 SWAP1 SWAP2 MSTORE POP POP PUSH1 0x40 DUP1 MLOAD DUP1 DUP3 ADD SWAP1 SWAP2 MSTORE PUSH1 0x4 DUP2 MSTORE PUSH4 0x61676E69 PUSH1 0xE0 SHL PUSH1 0x20 DUP3 ADD MSTORE SWAP2 POP PUSH2 0xB92 SWAP1 POP JUMP JUMPDEST DUP1 ISZERO PUSH2 0x377 JUMPI POP PUSH1 0x1 SLOAD PUSH1 0x1 PUSH1 0x1 PUSH1 0xA0 SHL SUB AND ISZERO ISZERO JUMPDEST ISZERO PUSH2 0x3AD JUMPI POP POP PUSH1 0x1 SLOAD PUSH1 0x40 DUP1 MLOAD DUP1 DUP3 ADD SWAP1 SWAP2 MSTORE PUSH1 0x4 DUP2 MSTORE PUSH4 0x61676E69 PUSH1 0xE0 SHL PUSH1 0x20 DUP3 ADD MSTORE PUSH1 0x1 PUSH1 0x1 PUSH1 0xA0 SHL SUB SWAP1 SWAP2 AND SWAP1 PUSH2 0x495 JUMP JUMPDEST PUSH2 0x416 PUSH2 0x3BD PUSH1 0xA0 DUP7 ADD DUP7 PUSH2 0x1023 JUMP JUMPDEST DUP1 DUP1 PUSH1 0x1F ADD PUSH1 0x20 DUP1 SWAP2 DIV MUL PUSH1 0x20 ADD PUSH1 0x40 MLOAD SWAP1 DUP2 ADD PUSH1 0x40 MSTORE DUP1 SWAP4 SWAP3 SWAP2 SWAP1 DUP2 DUP2 MSTORE PUSH1 0x20 ADD DUP4 DUP4 DUP1 DUP3 DUP5 CALLDATACOPY PUSH1 0x0 SWAP3 ADD SWAP2 SWAP1 SWAP2 MSTORE POP POP PUSH1 0x40 DUP1 MLOAD DUP1 DUP3 ADD SWAP1 SWAP2 MSTORE PUSH1 0x7 DUP2 MSTORE PUSH7 0xCCEAE6D2DEDCF PUSH1 0xCB SHL PUSH1 0x20 DUP3 ADD MSTORE SWAP2 POP PUSH2 0xB92 SWAP1 POP JUMP JUMPDEST DUP1 ISZERO PUSH2 0x42C JUMPI POP PUSH1 0x2 SLOAD PUSH1 0x1 PUSH1 0x1 PUSH1 0xA0 SHL SUB AND ISZERO ISZERO JUMPDEST ISZERO PUSH2 0x465 JUMPI POP POP PUSH1 0x2 SLOAD PUSH1 0x40 DUP1 MLOAD DUP1 DUP3 ADD SWAP1 SWAP2 MSTORE PUSH1 0x7 DUP2 MSTORE PUSH7 0xCCEAE6D2DEDCF PUSH1 0xCB SHL PUSH1 0x20 DUP3 ADD MSTORE PUSH1 0x1 PUSH1 0x1 PUSH1 0xA0 SHL SUB SWAP1 SWAP2 AND SWAP1 PUSH2 0x495 JUMP JUMPDEST PUSH2 0x48F PUSH2 0x475 PUSH1 0x20 DUP7 ADD DUP7 PUSH2 0xFE6 JUMP JUMPDEST PUSH2 0x485 PUSH1 0x40 DUP8 ADD PUSH1 0x20 DUP9 ADD PUSH2 0xFE6 JUMP JUMPDEST DUP7 PUSH1 0x40 ADD CALLDATALOAD PUSH2 0xBEC JUMP JUMPDEST SWAP1 SWAP3 POP SWAP1 POP JUMPDEST PUSH1 0x1 PUSH1 0x1 PUSH1 0xA0 SHL SUB DUP3 AND PUSH2 0x4E1 JUMPI PUSH1 0x40 MLOAD PUSH3 0x461BCD PUSH1 0xE5 SHL DUP2 MSTORE PUSH1 0x20 PUSH1 0x4 DUP3 ADD MSTORE PUSH1 0x13 PUSH1 0x24 DUP3 ADD MSTORE PUSH19 0x4E6F20726F7574657220617661696C61626C65 PUSH1 0x68 SHL PUSH1 0x44 DUP3 ADD MSTORE PUSH1 0x64 ADD PUSH2 0x1A8 JUMP JUMPDEST PUSH2 0x4EE PUSH1 0x20 DUP6 ADD DUP6 PUSH2 0xFE6 JUMP JUMPDEST PUSH1 0x40 DUP1 MLOAD PUSH4 0x95EA7B3 PUSH1 0xE0 SHL DUP2 MSTORE PUSH1 0x1 PUSH1 0x1 PUSH1 0xA0 SHL SUB DUP6 DUP2 AND PUSH1 0x4 DUP4 ADD MSTORE SWAP2 DUP8 ADD CALLDATALOAD PUSH1 0x24 DUP3 ADD MSTORE SWAP2 AND SWAP1 PUSH4 0x95EA7B3 SWAP1 PUSH1 0x44 ADD PUSH1 0x20 PUSH1 0x40 MLOAD DUP1 DUP4 SUB DUP2 PUSH1 0x0 DUP8 GAS CALL ISZERO DUP1 ISZERO PUSH2 0x540 JUMPI RETURNDATASIZE PUSH1 0x0 DUP1 RETURNDATACOPY RETURNDATASIZE PUSH1 0x0 REVERT JUMPDEST POP POP POP POP PUSH1 0x40 MLOAD RETURNDATASIZE PUSH1 0x1F NOT PUSH1 0x1F DUP3 ADD AND DUP3 ADD DUP1 PUSH1 0x40 MSTORE POP DUP2 ADD SWAP1 PUSH2 0x564 SWAP2 SWAP1 PUSH2 0x1001 JUMP JUMPDEST POP PUSH1 0x40 DUP1 MLOAD PUSH1 0x2 DUP1 DUP3 MSTORE PUSH1 0x60 DUP3 ADD DUP4 MSTORE PUSH1 0x0 SWAP3 PUSH1 0x20 DUP4 ADD SWAP1 DUP1 CALLDATASIZE DUP4 CALLDATACOPY ADD SWAP1 POP POP SWAP1 POP PUSH2 0x593 PUSH1 0x20 DUP7 ADD DUP7 PUSH2 0xFE6 JUMP JUMPDEST DUP2 PUSH1 0x0 DUP2 MLOAD DUP2 LT PUSH2 0x5A6 JUMPI PUSH2 0x5A6 PUSH2 0x1087 JUMP JUMPDEST PUSH1 0x1 PUSH1 0x1 PUSH1 0xA0 SHL SUB SWAP1 SWAP3 AND PUSH1 0x20 SWAP3 DUP4 MUL SWAP2 SWAP1 SWAP2 ADD DUP3 ADD MSTORE PUSH2 0x5CD SWAP1 PUSH1 0x40 DUP8 ADD SWAP1 DUP8 ADD PUSH2 0xFE6 JUMP JUMPDEST DUP2 PUSH1 0x1 DUP2 MLOAD DUP2 LT PUSH2 0x5E0 JUMPI PUSH2 0x5E0 PUSH2 0x1087 JUMP JUMPDEST PUSH1 0x20 MUL PUSH1 0x20 ADD ADD SWAP1 PUSH1 0x1 PUSH1 0x1 PUSH1 0xA0 SHL SUB AND SWAP1 DUP2 PUSH1 0x1 PUSH1 0x1 PUSH1 0xA0 SHL SUB AND DUP2 MSTORE POP POP PUSH1 0x60 PUSH2 0x628 DUP4 PUSH1 0x40 MLOAD DUP1 PUSH1 0x40 ADD PUSH1 0x40 MSTORE DUP1 PUSH1 0x4 DUP2 MSTORE PUSH1 0x20 ADD PUSH4 0x61676E69 PUSH1 0xE0 SHL DUP2 MSTORE POP PUSH2 0xB92 JUMP JUMPDEST ISZERO PUSH2 0x6D1 JUMPI PUSH1 0x1 PUSH1 0x1 PUSH1 0xA0 SHL SUB DUP5 AND PUSH4 0x38ED1739 PUSH1 0x40 DUP9 ADD CALLDATALOAD PUSH1 0x60 DUP10 ADD CALLDATALOAD DUP6 PUSH2 0x657 PUSH1 0xA0 DUP13 ADD PUSH1 0x80 DUP14 ADD PUSH2 0xFE6 JUMP JUMPDEST PUSH2 0x663 TIMESTAMP PUSH2 0x12C PUSH2 0x10B3 JUMP JUMPDEST PUSH1 0x40 MLOAD DUP7 PUSH4 0xFFFFFFFF AND PUSH1 0xE0 SHL DUP2 MSTORE PUSH1 0x4 ADD PUSH2 0x683 SWAP6 SWAP5 SWAP4 SWAP3 SWAP2 SWAP1 PUSH2 0x110A JUMP JUMPDEST PUSH1 0x0 PUSH1 0x40 MLOAD DUP1 DUP4 SUB DUP2 PUSH1 0x0 DUP8 GAS CALL ISZERO DUP1 ISZERO PUSH2 0x6A2 JUMPI RETURNDATASIZE PUSH1 0x0 DUP1 RETURNDATACOPY RETURNDATASIZE PUSH1 0x0 REVERT JUMPDEST POP POP POP POP PUSH1 0x40 MLOAD RETURNDATASIZE PUSH1 0x0 DUP3 RETURNDATACOPY PUSH1 0x1F RETURNDATASIZE SWAP1 DUP2 ADD PUSH1 0x1F NOT AND DUP3 ADD PUSH1 0x40 MSTORE PUSH2 0x6CA SWAP2 SWAP1 DUP2 ADD SWAP1 PUSH2 0x1146 JUMP JUMPDEST SWAP1 POP PUSH2 0x771 JUMP JUMPDEST PUSH1 0x1 PUSH1 0x1 PUSH1 0xA0 SHL SUB DUP5 AND PUSH4 0x38ED1739 PUSH1 0x40 DUP9 ADD CALLDATALOAD PUSH1 0x60 DUP10 ADD CALLDATALOAD DUP6 PUSH2 0x6FB PUSH1 0xA0 DUP13 ADD PUSH1 0x80 DUP14 ADD PUSH2 0xFE6 JUMP JUMPDEST PUSH2 0x707 TIMESTAMP PUSH2 0x12C PUSH2 0x10B3 JUMP JUMPDEST PUSH1 0x40 MLOAD DUP7 PUSH4 0xFFFFFFFF AND PUSH1 0xE0 SHL DUP2 MSTORE PUSH1 0x4 ADD PUSH2 0x727 SWAP6 SWAP5 SWAP4 SWAP3 SWAP2 SWAP1 PUSH2 0x110A JUMP JUMPDEST PUSH1 0x0 PUSH1 0x40 MLOAD DUP1 DUP4 SUB DUP2 PUSH1 0x0 DUP8 GAS CALL ISZERO DUP1 ISZERO PUSH2 0x746 JUMPI RETURNDATASIZE PUSH1 0x0 DUP1 RETURNDATACOPY RETURNDATASIZE PUSH1 0x0 REVERT JUMPDEST POP POP POP POP PUSH1 0x40 MLOAD RETURNDATASIZE PUSH1 0x0 DUP3 RETURNDATACOPY PUSH1 0x1F RETURNDATASIZE SWAP1 DUP2 ADD PUSH1 0x1F NOT AND DUP3 ADD PUSH1 0x40 MSTORE PUSH2 0x76E SWAP2 SWAP1 DUP2 ADD SWAP1 PUSH2 0x1146 JUMP JUMPDEST SWAP1 POP JUMPDEST DUP1 PUSH1 0x1 DUP3 MLOAD PUSH2 0x780 SWAP2 SWAP1 PUSH2 0x1204 JUMP JUMPDEST DUP2 MLOAD DUP2 LT PUSH2 0x790 JUMPI PUSH2 0x790 PUSH2 0x1087 JUMP JUMPDEST PUSH1 0x20 MUL PUSH1 0x20 ADD ADD MLOAD SWAP5 POP DUP6 PUSH1 0x80 ADD PUSH1 0x20 DUP2 ADD SWAP1 PUSH2 0x7AD SWAP2 SWAP1 PUSH2 0xFE6 JUMP JUMPDEST PUSH1 0x1 PUSH1 0x1 PUSH1 0xA0 SHL SUB AND PUSH32 0x1E2E5EA08C1DC99FE97E4177552B806D875ADF84E8C9706C0128F4A955B2D9BB PUSH2 0x7E4 PUSH1 0x20 DUP10 ADD DUP10 PUSH2 0xFE6 JUMP JUMPDEST PUSH2 0x7F4 PUSH1 0x40 DUP11 ADD PUSH1 0x20 DUP12 ADD PUSH2 0xFE6 JUMP JUMPDEST DUP10 PUSH1 0x40 ADD CALLDATALOAD DUP10 DUP9 PUSH1 0x40 MLOAD PUSH2 0x80C SWAP6 SWAP5 SWAP4 SWAP3 SWAP2 SWAP1 PUSH2 0x1217 JUMP JUMPDEST PUSH1 0x40 MLOAD DUP1 SWAP2 SUB SWAP1 LOG2 POP POP POP POP SWAP2 SWAP1 POP JUMP JUMPDEST PUSH1 0x0 PUSH1 0x60 PUSH1 0x0 DUP1 PUSH2 0x82F DUP8 DUP8 DUP8 PUSH2 0xBEC JUMP JUMPDEST SWAP1 SWAP3 POP SWAP1 POP PUSH1 0x1 PUSH1 0x1 PUSH1 0xA0 SHL SUB DUP3 AND PUSH2 0x85F JUMPI PUSH1 0x0 PUSH1 0x40 MLOAD DUP1 PUSH1 0x20 ADD PUSH1 0x40 MSTORE DUP1 PUSH1 0x0 DUP2 MSTORE POP SWAP4 POP SWAP4 POP POP POP PUSH2 0x99E JUMP JUMPDEST PUSH1 0x40 DUP1 MLOAD PUSH1 0x2 DUP1 DUP3 MSTORE PUSH1 0x60 DUP3 ADD DUP4 MSTORE PUSH1 0x0 SWAP3 PUSH1 0x20 DUP4 ADD SWAP1 DUP1 CALLDATASIZE DUP4 CALLDATACOPY ADD SWAP1 POP POP SWAP1 POP DUP8 DUP2 PUSH1 0x0 DUP2 MLOAD DUP2 LT PUSH2 0x894 JUMPI PUSH2 0x894 PUSH2 0x1087 JUMP JUMPDEST PUSH1 0x20 MUL PUSH1 0x20 ADD ADD SWAP1 PUSH1 0x1 PUSH1 0x1 PUSH1 0xA0 SHL SUB AND SWAP1 DUP2 PUSH1 0x1 PUSH1 0x1 PUSH1 0xA0 SHL SUB AND DUP2 MSTORE POP POP DUP7 DUP2 PUSH1 0x1 DUP2 MLOAD DUP2 LT PUSH2 0x8C8 JUMPI PUSH2 0x8C8 PUSH2 0x1087 JUMP JUMPDEST PUSH1 0x1 PUSH1 0x1 PUSH1 0xA0 SHL SUB SWAP3 DUP4 AND PUSH1 0x20 SWAP2 DUP3 MUL SWAP3 SWAP1 SWAP3 ADD ADD MSTORE PUSH1 0x40 MLOAD PUSH4 0xD06CA61F PUSH1 0xE0 SHL DUP2 MSTORE SWAP1 DUP5 AND SWAP1 PUSH4 0xD06CA61F SWAP1 PUSH2 0x905 SWAP1 DUP10 SWAP1 DUP6 SWAP1 PUSH1 0x4 ADD PUSH2 0x125C JUMP JUMPDEST PUSH1 0x0 PUSH1 0x40 MLOAD DUP1 DUP4 SUB DUP2 DUP7 GAS STATICCALL SWAP3 POP POP POP DUP1 ISZERO PUSH2 0x943 JUMPI POP PUSH1 0x40 MLOAD RETURNDATASIZE PUSH1 0x0 DUP3 RETURNDATACOPY PUSH1 0x1F RETURNDATASIZE SWAP1 DUP2 ADD PUSH1 0x1F NOT AND DUP3 ADD PUSH1 0x40 MSTORE PUSH2 0x940 SWAP2 SWAP1 DUP2 ADD SWAP1 PUSH2 0x1146 JUMP JUMPDEST PUSH1 0x1 JUMPDEST PUSH2 0x965 JUMPI PUSH1 0x0 PUSH1 0x40 MLOAD DUP1 PUSH1 0x20 ADD PUSH1 0x40 MSTORE DUP1 PUSH1 0x0 DUP2 MSTORE POP SWAP5 POP SWAP5 POP POP POP POP PUSH2 0x99E JUMP JUMPDEST DUP1 PUSH1 0x1 DUP3 MLOAD PUSH2 0x974 SWAP2 SWAP1 PUSH2 0x1204 JUMP JUMPDEST DUP2 MLOAD DUP2 LT PUSH2 0x984 JUMPI PUSH2 0x984 PUSH2 0x1087 JUMP JUMPDEST PUSH1 0x20 MUL PUSH1 0x20 ADD ADD MLOAD DUP4 SWAP6 POP SWAP6 POP POP POP POP POP PUSH2 0x99E JUMP JUMPDEST POP POP POP JUMPDEST SWAP4 POP SWAP4 SWAP2 POP POP JUMP JUMPDEST PUSH1 0x0 SLOAD PUSH1 0x1 PUSH1 0x1 PUSH1 0xA0 SHL SUB AND CALLER EQ PUSH2 0x9EC JUMPI PUSH1 0x40 MLOAD PUSH3 0x461BCD PUSH1 0xE5 SHL DUP2 MSTORE PUSH1 0x20 PUSH1 0x4 DUP3 ADD MSTORE PUSH1 0x9 PUSH1 0x24 DUP3 ADD MSTORE PUSH9 0x2737BA1037BBB732B9 PUSH1 0xB9 SHL PUSH1 0x44 DUP3 ADD MSTORE PUSH1 0x64 ADD PUSH2 0x1A8 JUMP JUMPDEST PUSH1 0x1 DUP1 SLOAD PUSH1 0x1 PUSH1 0x1 PUSH1 0xA0 SHL SUB SWAP4 DUP5 AND PUSH1 0x1 PUSH1 0x1 PUSH1 0xA0 SHL SUB NOT SWAP2 DUP3 AND OR SWAP1 SWAP2 SSTORE PUSH1 0x2 DUP1 SLOAD SWAP3 SWAP1 SWAP4 AND SWAP2 AND OR SWAP1 SSTORE JUMP JUMPDEST PUSH1 0x0 SLOAD PUSH1 0x1 PUSH1 0x1 PUSH1 0xA0 SHL SUB AND CALLER EQ PUSH2 0xA60 JUMPI PUSH1 0x40 MLOAD PUSH3 0x461BCD PUSH1 0xE5 SHL DUP2 MSTORE PUSH1 0x20 PUSH1 0x4 DUP3 ADD MSTORE PUSH1 0x9 PUSH1 0x24 DUP3 ADD MSTORE PUSH9 0x2737BA1037BBB732B9 PUSH1 0xB9 SHL PUSH1 0x44 DUP3 ADD MSTORE PUSH1 0x64 ADD PUSH2 0x1A8 JUMP JUMPDEST PUSH1 0x1 PUSH1 0x1 PUSH1 0xA0 SHL SUB DUP2 AND PUSH2 0xAAC JUMPI PUSH1 0x0 DUP1 SLOAD PUSH1 0x40 MLOAD PUSH1 0x1 PUSH1 0x1 PUSH1 0xA0 SHL SUB SWAP1 SWAP2 AND SWAP2 SELFBALANCE DUP1 ISZERO PUSH2 0x8FC MUL SWAP3 SWAP1 SWAP2 DUP2 DUP2 DUP2 DUP6 DUP9 DUP9 CALL SWAP4 POP POP POP POP ISZERO DUP1 ISZERO PUSH2 0xAA8 JUMPI RETURNDATASIZE PUSH1 0x0 DUP1 RETURNDATACOPY RETURNDATASIZE PUSH1 0x0 REVERT JUMPDEST POP POP JUMP JUMPDEST PUSH1 0x0 SLOAD PUSH1 0x40 MLOAD PUSH4 0x70A08231 PUSH1 0xE0 SHL DUP2 MSTORE ADDRESS PUSH1 0x4 DUP3 ADD MSTORE PUSH1 0x1 PUSH1 0x1 PUSH1 0xA0 SHL SUB DUP4 DUP2 AND SWAP3 PUSH4 0xA9059CBB SWAP3 SWAP2 AND SWAP1 DUP4 SWAP1 PUSH4 0x70A08231 SWAP1 PUSH1 0x24 ADD PUSH1 0x20 PUSH1 0x40 MLOAD DUP1 DUP4 SUB DUP2 DUP7 GAS STATICCALL ISZERO DUP1 ISZERO PUSH2 0xAFF JUMPI RETURNDATASIZE PUSH1 0x0 DUP1 RETURNDATACOPY RETURNDATASIZE PUSH1 0x0 REVERT JUMPDEST POP POP POP POP PUSH1 0x40 MLOAD RETURNDATASIZE PUSH1 0x1F NOT PUSH1 0x1F DUP3 ADD AND DUP3 ADD DUP1 PUSH1 0x40 MSTORE POP DUP2 ADD SWAP1 PUSH2 0xB23 SWAP2 SWAP1 PUSH2 0x1275 JUMP JUMPDEST PUSH1 0x40 MLOAD PUSH1 0x1 PUSH1 0x1 PUSH1 0xE0 SHL SUB NOT PUSH1 0xE0 DUP6 SWAP1 SHL AND DUP2 MSTORE PUSH1 0x1 PUSH1 0x1 PUSH1 0xA0 SHL SUB SWAP1 SWAP3 AND PUSH1 0x4 DUP4 ADD MSTORE PUSH1 0x24 DUP3 ADD MSTORE PUSH1 0x44 ADD PUSH1 0x20 PUSH1 0x40 MLOAD DUP1 DUP4 SUB DUP2 PUSH1 0x0 DUP8 GAS CALL ISZERO DUP1 ISZERO PUSH2 0xB6E JUMPI RETURNDATASIZE PUSH1 0x0 DUP1 RETURNDATACOPY RETURNDATASIZE PUSH1 0x0 REVERT JUMPDEST POP POP POP POP PUSH1 0x40 MLOAD RETURNDATASIZE PUSH1 0x1F NOT PUSH1 0x1F DUP3 ADD AND DUP3 ADD DUP1 PUSH1 0x40 MSTORE POP DUP2 ADD SWAP1 PUSH2 0xAA8 SWAP2 SWAP1 PUSH2 0x1001 JUMP JUMPDEST PUSH1 0x0 DUP2 PUSH1 0x40 MLOAD PUSH1 0x20 ADD PUSH2 0xBA5 SWAP2 SWAP1 PUSH2 0x128E JUMP JUMPDEST PUSH1 0x40 MLOAD PUSH1 0x20 DUP2 DUP4 SUB SUB DUP2 MSTORE SWAP1 PUSH1 0x40 MSTORE DUP1 MLOAD SWAP1 PUSH1 0x20 ADD KECCAK256 DUP4 PUSH1 0x40 MLOAD PUSH1 0x20 ADD PUSH2 0xBCC SWAP2 SWAP1 PUSH2 0x128E JUMP JUMPDEST PUSH1 0x40 MLOAD PUSH1 0x20 DUP2 DUP4 SUB SUB DUP2 MSTORE SWAP1 PUSH1 0x40 MSTORE DUP1 MLOAD SWAP1 PUSH1 0x20 ADD KECCAK256 EQ SWAP1 POP JUMPDEST SWAP3 SWAP2 POP POP JUMP JUMPDEST PUSH1 0x40 DUP1 MLOAD PUSH1 0x2 DUP1 DUP3 MSTORE PUSH1 0x60 DUP3 DUP2 ADD SWAP1 SWAP4 MSTORE PUSH1 0x0 SWAP3 SWAP2 DUP4 SWAP2 DUP2 PUSH1 0x20 ADD PUSH1 0x20 DUP3 MUL DUP1 CALLDATASIZE DUP4 CALLDATACOPY ADD SWAP1 POP POP SWAP1 POP DUP6 DUP2 PUSH1 0x0 DUP2 MLOAD DUP2 LT PUSH2 0xC29 JUMPI PUSH2 0xC29 PUSH2 0x1087 JUMP JUMPDEST PUSH1 0x20 MUL PUSH1 0x20 ADD ADD SWAP1 PUSH1 0x1 PUSH1 0x1 PUSH1 0xA0 SHL SUB AND SWAP1 DUP2 PUSH1 0x1 PUSH1 0x1 PUSH1 0xA0 SHL SUB AND DUP2 MSTORE POP POP DUP5 DUP2 PUSH1 0x1 DUP2 MLOAD DUP2 LT PUSH2 0xC5D JUMPI PUSH2 0xC5D PUSH2 0x1087 JUMP JUMPDEST PUSH1 0x1 PUSH1 0x1 PUSH1 0xA0 SHL SUB SWAP3 DUP4 AND PUSH1 0x20 SWAP2 DUP3 MUL SWAP3 SWAP1 SWAP3 ADD ADD MSTORE PUSH1 0x1 SLOAD PUSH1 0x0 SWAP2 AND ISZERO PUSH2 0xD85 JUMPI PUSH1 0x1 SLOAD PUSH1 0x40 MLOAD PUSH4 0xD06CA61F PUSH1 0xE0 SHL DUP2 MSTORE PUSH1 0x1 PUSH1 0x1 PUSH1 0xA0 SHL SUB SWAP1 SWAP2 AND SWAP1 PUSH4 0xD06CA61F SWAP1 PUSH2 0xCB1 SWAP1 DUP9 SWAP1 DUP7 SWAP1 PUSH1 0x4 ADD PUSH2 0x125C JUMP JUMPDEST PUSH1 0x0 PUSH1 0x40 MLOAD DUP1 DUP4 SUB DUP2 DUP7 GAS STATICCALL SWAP3 POP POP POP DUP1 ISZERO PUSH2 0xCEF JUMPI POP PUSH1 0x40 MLOAD RETURNDATASIZE PUSH1 0x0 DUP3 RETURNDATACOPY PUSH1 0x1F RETURNDATASIZE SWAP1 DUP2 ADD PUSH1 0x1F NOT AND DUP3 ADD PUSH1 0x40 MSTORE PUSH2 0xCEC SWAP2 SWAP1 DUP2 ADD SWAP1 PUSH2 0x1146 JUMP JUMPDEST PUSH1 0x1 JUMPDEST ISZERO PUSH2 0xD85 JUMPI DUP2 DUP2 PUSH1 0x1 DUP4 MLOAD PUSH2 0xD04 SWAP2 SWAP1 PUSH2 0x1204 JUMP JUMPDEST DUP2 MLOAD DUP2 LT PUSH2 0xD14 JUMPI PUSH2 0xD14 PUSH2 0x1087 JUMP JUMPDEST PUSH1 0x20 MUL PUSH1 0x20 ADD ADD MLOAD GT ISZERO PUSH2 0xD83 JUMPI DUP1 PUSH1 0x1 DUP3 MLOAD PUSH2 0xD31 SWAP2 SWAP1 PUSH2 0x1204 JUMP JUMPDEST DUP2 MLOAD DUP2 LT PUSH2 0xD41 JUMPI PUSH2 0xD41 PUSH2 0x1087 JUMP JUMPDEST PUSH1 0x20 MUL PUSH1 0x20 ADD ADD MLOAD SWAP2 POP PUSH1 0x1 PUSH1 0x0 SWAP1 SLOAD SWAP1 PUSH2 0x100 EXP SWAP1 DIV PUSH1 0x1 PUSH1 0x1 PUSH1 0xA0 SHL SUB AND SWAP5 POP PUSH1 0x40 MLOAD DUP1 PUSH1 0x40 ADD PUSH1 0x40 MSTORE DUP1 PUSH1 0x4 DUP2 MSTORE PUSH1 0x20 ADD PUSH4 0x61676E69 PUSH1 0xE0 SHL DUP2 MSTORE POP SWAP4 POP JUMPDEST POP JUMPDEST PUSH1 0x2 SLOAD PUSH1 0x1 PUSH1 0x1 PUSH1 0xA0 SHL SUB AND ISZERO PUSH2 0xE9E JUMPI PUSH1 0x2 SLOAD PUSH1 0x40 MLOAD PUSH4 0xD06CA61F PUSH1 0xE0 SHL DUP2 MSTORE PUSH1 0x1 PUSH1 0x1 PUSH1 0xA0 SHL SUB SWAP1 SWAP2 AND SWAP1 PUSH4 0xD06CA61F SWAP1 PUSH2 0xDC8 SWAP1 DUP9 SWAP1 DUP7 SWAP1 PUSH1 0x4 ADD PUSH2 0x125C JUMP JUMPDEST PUSH1 0x0 PUSH1 0x40 MLOAD DUP1 DUP4 SUB DUP2 DUP7 GAS STATICCALL SWAP3 POP POP POP DUP1 ISZERO PUSH2 0xE06 JUMPI POP PUSH1 0x40 MLOAD RETURNDATASIZE PUSH1 0x0 DUP3 RETURNDATACOPY PUSH1 0x1F RETURNDATASIZE SWAP1 DUP2 ADD PUSH1 0x1F NOT AND DUP3 ADD PUSH1 0x40 MSTORE PUSH2 0xE03 SWAP2 SWAP1 DUP2 ADD SWAP1 PUSH2 0x1146 JUMP JUMPDEST PUSH1 0x1 JUMPDEST ISZERO PUSH2 0xE9E JUMPI DUP2 DUP2 PUSH1 0x1 DUP4 MLOAD PUSH2 0xE1B SWAP2 SWAP1 PUSH2 0x1204 JUMP JUMPDEST DUP2 MLOAD DUP2 LT PUSH2 0xE2B JUMPI PUSH2 0xE2B PUSH2 0x1087 JUMP JUMPDEST PUSH1 0x20 MUL PUSH1 0x20 ADD ADD MLOAD GT ISZERO PUSH2 0x99A JUMPI DUP1 PUSH1 0x1 DUP3 MLOAD PUSH2 0xE48 SWAP2 SWAP1 PUSH2 0x1204 JUMP JUMPDEST DUP2 MLOAD DUP2 LT PUSH2 0xE58 JUMPI PUSH2 0xE58 PUSH2 0x1087 JUMP JUMPDEST PUSH1 0x20 MUL PUSH1 0x20 ADD ADD MLOAD SWAP2 POP PUSH1 0x2 PUSH1 0x0 SWAP1 SLOAD SWAP1 PUSH2 0x100 EXP SWAP1 DIV PUSH1 0x1 PUSH1 0x1 PUSH1 0xA0 SHL SUB AND SWAP5 POP PUSH1 0x40 MLOAD DUP1 PUSH1 0x40 ADD PUSH1 0x40 MSTORE DUP1 PUSH1 0x7 DUP2 MSTORE PUSH1 0x20 ADD PUSH7 0xCCEAE6D2DEDCF PUSH1 0xCB SHL DUP2 MSTORE POP SWAP4 POP POP JUMPDEST POP POP SWAP4 POP SWAP4 SWAP2 POP POP JUMP JUMPDEST PUSH1 0x0 PUSH1 0x20 DUP3 DUP5 SUB SLT ISZERO PUSH2 0xEBA JUMPI PUSH1 0x0 DUP1 REVERT JUMPDEST DUP2 CALLDATALOAD PUSH8 0xFFFFFFFFFFFFFFFF DUP2 GT ISZERO PUSH2 0xED1 JUMPI PUSH1 0x0 DUP1 REVERT JUMPDEST DUP3 ADD PUSH1 0xC0 DUP2 DUP6 SUB SLT ISZERO PUSH2 0xEE3 JUMPI PUSH1 0x0 DUP1 REVERT JUMPDEST SWAP4 SWAP3 POP POP POP JUMP JUMPDEST DUP1 CALLDATALOAD PUSH1 0x1 PUSH1 0x1 PUSH1 0xA0 SHL SUB DUP2 AND DUP2 EQ PUSH2 0xF01 JUMPI PUSH1 0x0 DUP1 REVERT JUMPDEST SWAP2 SWAP1 POP JUMP JUMPDEST PUSH1 0x0 DUP1 PUSH1 0x0 PUSH1 0x60 DUP5 DUP7 SUB SLT ISZERO PUSH2 0xF1B JUMPI PUSH1 0x0 DUP1 REVERT JUMPDEST PUSH2 0xF24 DUP5 PUSH2 0xEEA JUMP JUMPDEST SWAP3 POP PUSH2 0xF32 PUSH1 0x20 DUP6 ADD PUSH2 0xEEA JUMP JUMPDEST SWAP2 POP PUSH1 0x40 DUP5 ADD CALLDATALOAD SWAP1 POP SWAP3 POP SWAP3 POP SWAP3 JUMP JUMPDEST PUSH1 0x0 JUMPDEST DUP4 DUP2 LT ISZERO PUSH2 0xF5D JUMPI DUP2 DUP2 ADD MLOAD DUP4 DUP3 ADD MSTORE PUSH1 0x20 ADD PUSH2 0xF45 JUMP JUMPDEST POP POP PUSH1 0x0 SWAP2 ADD MSTORE JUMP JUMPDEST PUSH1 0x0 DUP2 MLOAD DUP1 DUP5 MSTORE PUSH2 0xF7E DUP2 PUSH1 0x20 DUP7 ADD PUSH1 0x20 DUP7 ADD PUSH2 0xF42 JUMP JUMPDEST PUSH1 0x1F ADD PUSH1 0x1F NOT AND SWAP3 SWAP1 SWAP3 ADD PUSH1 0x20 ADD SWAP3 SWAP2 POP POP JUMP JUMPDEST DUP3 DUP2 MSTORE PUSH1 0x40 PUSH1 0x20 DUP3 ADD MSTORE PUSH1 0x0 PUSH2 0xFAB PUSH1 0x40 DUP4 ADD DUP5 PUSH2 0xF66 JUMP JUMPDEST SWAP5 SWAP4 POP POP POP POP JUMP JUMPDEST PUSH1 0x0 DUP1 PUSH1 0x40 DUP4 DUP6 SUB SLT ISZERO PUSH2 0xFC6 JUMPI PUSH1 0x0 DUP1 REVERT JUMPDEST PUSH2 0xFCF DUP4 PUSH2 0xEEA JUMP JUMPDEST SWAP2 POP PUSH2 0xFDD PUSH1 0x20 DUP5 ADD PUSH2 0xEEA JUMP JUMPDEST SWAP1 POP SWAP3 POP SWAP3 SWAP1 POP JUMP JUMPDEST PUSH1 0x0 PUSH1 0x20 DUP3 DUP5 SUB SLT ISZERO PUSH2 0xFF8 JUMPI PUSH1 0x0 DUP1 REVERT JUMPDEST PUSH2 0xEE3 DUP3 PUSH2 0xEEA JUMP JUMPDEST PUSH1 0x0 PUSH1 0x20 DUP3 DUP5 SUB SLT ISZERO PUSH2 0x1013 JUMPI PUSH1 0x0 DUP1 REVERT JUMPDEST DUP2 MLOAD DUP1 ISZERO ISZERO DUP2 EQ PUSH2 0xEE3 JUMPI PUSH1 0x0 DUP1 REVERT JUMPDEST PUSH1 0x0 DUP1 DUP4 CALLDATALOAD PUSH1 0x1E NOT DUP5 CALLDATASIZE SUB ADD DUP2 SLT PUSH2 0x103A JUMPI PUSH1 0x0 DUP1 REVERT JUMPDEST DUP4 ADD DUP1 CALLDATALOAD SWAP2 POP PUSH8 0xFFFFFFFFFFFFFFFF DUP3 GT ISZERO PUSH2 0x1055 JUMPI PUSH1 0x0 DUP1 REVERT JUMPDEST PUSH1 0x20 ADD SWAP2 POP CALLDATASIZE DUP2 SWAP1 SUB DUP3 SGT ISZERO PUSH2 0x106A JUMPI PUSH1 0x0 DUP1 REVERT JUMPDEST SWAP3 POP SWAP3 SWAP1 POP JUMP JUMPDEST PUSH4 0x4E487B71 PUSH1 0xE0 SHL PUSH1 0x0 MSTORE PUSH1 0x41 PUSH1 0x4 MSTORE PUSH1 0x24 PUSH1 0x0 REVERT JUMPDEST PUSH4 0x4E487B71 PUSH1 0xE0 SHL PUSH1 0x0 MSTORE PUSH1 0x32 PUSH1 0x4 MSTORE PUSH1 0x24 PUSH1 0x0 REVERT JUMPDEST PUSH4 0x4E487B71 PUSH1 0xE0 SHL PUSH1 0x0 MSTORE PUSH1 0x11 PUSH1 0x4 MSTORE PUSH1 0x24 PUSH1 0x0 REVERT JUMPDEST DUP1 DUP3 ADD DUP1 DUP3 GT ISZERO PUSH2 0xBE6 JUMPI PUSH2 0xBE6 PUSH2 0x109D JUMP JUMPDEST PUSH1 0x0 DUP2 MLOAD DUP1 DUP5 MSTORE PUSH1 0x20 DUP1 DUP6 ADD SWAP5 POP DUP1 DUP5 ADD PUSH1 0x0 JUMPDEST DUP4 DUP2 LT ISZERO PUSH2 0x10FF JUMPI DUP2 MLOAD PUSH1 0x1 PUSH1 0x1 PUSH1 0xA0 SHL SUB AND DUP8 MSTORE SWAP6 DUP3 ADD SWAP6 SWAP1 DUP3 ADD SWAP1 PUSH1 0x1 ADD PUSH2 0x10DA JUMP JUMPDEST POP SWAP5 SWAP6 SWAP5 POP POP POP POP POP JUMP JUMPDEST DUP6 DUP2 MSTORE DUP5 PUSH1 0x20 DUP3 ADD MSTORE PUSH1 0xA0 PUSH1 0x40 DUP3 ADD MSTORE PUSH1 0x0 PUSH2 0x1129 PUSH1 0xA0 DUP4 ADD DUP7 PUSH2 0x10C6 JUMP JUMPDEST PUSH1 0x1 PUSH1 0x1 PUSH1 0xA0 SHL SUB SWAP5 SWAP1 SWAP5 AND PUSH1 0x60 DUP4 ADD MSTORE POP PUSH1 0x80 ADD MSTORE SWAP4 SWAP3 POP POP POP JUMP JUMPDEST PUSH1 0x0 PUSH1 0x20 DUP1 DUP4 DUP6 SUB SLT ISZERO PUSH2 0x1159 JUMPI PUSH1 0x0 DUP1 REVERT JUMPDEST DUP3 MLOAD PUSH8 0xFFFFFFFFFFFFFFFF DUP1 DUP3 GT ISZERO PUSH2 0x1171 JUMPI PUSH1 0x0 DUP1 REVERT JUMPDEST DUP2 DUP6 ADD SWAP2 POP DUP6 PUSH1 0x1F DUP4 ADD SLT PUSH2 0x1185 JUMPI PUSH1 0x0 DUP1 REVERT JUMPDEST DUP2 MLOAD DUP2 DUP2 GT ISZERO PUSH2 0x1197 JUMPI PUSH2 0x1197 PUSH2 0x1071 JUMP JUMPDEST DUP1 PUSH1 0x5 SHL PUSH1 0x40 MLOAD PUSH1 0x1F NOT PUSH1 0x3F DUP4 ADD AND DUP2 ADD DUP2 DUP2 LT DUP6 DUP3 GT OR ISZERO PUSH2 0x11BC JUMPI PUSH2 0x11BC PUSH2 0x1071 JUMP JUMPDEST PUSH1 0x40 MSTORE SWAP2 DUP3 MSTORE DUP5 DUP3 ADD SWAP3 POP DUP4 DUP2 ADD DUP6 ADD SWAP2 DUP9 DUP4 GT ISZERO PUSH2 0x11DA JUMPI PUSH1 0x0 DUP1 REVERT JUMPDEST SWAP4 DUP6 ADD SWAP4 JUMPDEST DUP3 DUP6 LT ISZERO PUSH2 0x11F8 JUMPI DUP5 MLOAD DUP5 MSTORE SWAP4 DUP6 ADD SWAP4 SWAP3 DUP6 ADD SWAP3 PUSH2 0x11DF JUMP JUMPDEST SWAP9 SWAP8 POP POP POP POP POP POP POP POP JUMP JUMPDEST DUP2 DUP2 SUB DUP2 DUP2 GT ISZERO PUSH2 0xBE6 JUMPI PUSH2 0xBE6 PUSH2 0x109D JUMP JUMPDEST PUSH1 0x1 PUSH1 0x1 PUSH1 0xA0 SHL SUB DUP7 DUP2 AND DUP3 MSTORE DUP6 AND PUSH1 0x20 DUP3 ADD MSTORE PUSH1 0x40 DUP2 ADD DUP5 SWAP1 MSTORE PUSH1 0x60 DUP2 ADD DUP4 SWAP1 MSTORE PUSH1 0xA0 PUSH1 0x80 DUP3 ADD DUP2 SWAP1 MSTORE PUSH1 0x0 SWAP1 PUSH2 0x1251 SWAP1 DUP4 ADD DUP5 PUSH2 0xF66 JUMP JUMPDEST SWAP8 SWAP7 POP POP POP POP POP POP POP JUMP JUMPDEST DUP3 DUP2 MSTORE PUSH1 0x40 PUSH1 0x20 DUP3 ADD MSTORE PUSH1 0x0 PUSH2 0xFAB PUSH1 0x40 DUP4 ADD DUP5 PUSH2 0x10C6 JUMP JUMPDEST PUSH1 0x0 PUSH1 0x20 DUP3 DUP5 SUB SLT ISZERO PUSH2 0x1287 JUMPI PUSH1 0x0 DUP1 REVERT JUMPDEST POP MLOAD SWAP2 SWAP1 POP JUMP JUMPDEST PUSH1 0x0 DUP3 MLOAD PUSH2 0x12A0 DUP2 DUP5 PUSH1 0x20 DUP8 ADD PUSH2 0xF42 JUMP JUMPDEST SWAP2 SWAP1 SWAP2 ADD SWAP3 SWAP2 POP POP JUMP INVALID LOG2 PUSH5 0x6970667358 0x22 SLT KECCAK256 MSTORE8 0xD OR NUMBER DUP10 PUSH4 0xE11D430A PUSH1 0xEA 0xB0 0xC2 0xAA 0xCD 0xE9 SWAP9 SWAP2 0xDA PUSH10 0x632A7B8B73D949F819F1 NOT PUSH5 0x736F6C6343 STOP ADDMOD SGT STOP CALLER "},"methodIdentifiers":{"agniRouter()":"f431f103","emergencyWithdraw(address)":"6ff1c9bc","executeSwap((address,address,uint256,uint256,address,string))":"003bb468","fusionXRouter()":"15d9b623","getSwapQuote(address,address,uint256)":"42606771","owner()":"8da5cb5b","setRouters(address,address)":"5ead6fb0"}}}}}