{"contracts/YieldFarmer.sol":{"YieldFarmer":{"abi":[{"inputs":[],"stateMutability":"nonpayable","type":"constructor"},{"anonymous":false,"inputs":[{"indexed":true,"internalType":"address","name":"user","type":"address"},{"indexed":true,"internalType":"uint256","name":"strategyId","type":"uint256"},{"indexed":false,"internalType":"uint256","name":"amount","type":"uint256"}],"name":"FundsDeposited","type":"event"},{"anonymous":false,"inputs":[{"indexed":true,"internalType":"address","name":"user","type":"address"},{"indexed":true,"internalType":"uint256","name":"strategyId","type":"uint256"},{"indexed":false,"internalType":"uint256","name":"amount","type":"uint256"}],"name":"FundsWithdrawn","type":"event"},{"anonymous":false,"inputs":[{"indexed":true,"internalType":"uint256","name":"strategyId","type":"uint256"},{"indexed":false,"internalType":"string","name":"name","type":"string"},{"indexed":false,"internalType":"uint256","name":"apy","type":"uint256"}],"name":"StrategyAdded","type":"event"},{"inputs":[{"internalType":"string","name":"name","type":"string"},{"internalType":"address","name":"stakingContract","type":"address"},{"internalType":"address","name":"rewardToken","type":"address"},{"internalType":"address","name":"lpToken","type":"address"},{"internalType":"uint256","name":"apy","type":"uint256"},{"internalType":"uint256","name":"minDeposit","type":"uint256"}],"name":"addStrategy","outputs":[],"stateMutability":"nonpayable","type":"function"},{"inputs":[{"internalType":"address","name":"token","type":"address"},{"internalType":"uint256","name":"amount","type":"uint256"}],"name":"emergencyWithdraw","outputs":[],"stateMutability":"nonpayable","type":"function"},{"inputs":[{"internalType":"uint256","name":"strategyId","type":"uint256"},{"internalType":"uint256","name":"amount","type":"uint256"},{"internalType":"address","name":"user","type":"address"}],"name":"executeYieldAction","outputs":[{"internalType":"bool","name":"","type":"bool"}],"stateMutability":"nonpayable","type":"function"},{"inputs":[{"internalType":"uint256","name":"amount","type":"uint256"},{"internalType":"uint256","name":"","type":"uint256"}],"name":"getBestStrategy","outputs":[{"internalType":"uint256","name":"strategyId","type":"uint256"},{"internalType":"uint256","name":"expectedAPY","type":"uint256"}],"stateMutability":"view","type":"function"},{"inputs":[{"internalType":"uint256","name":"strategyId","type":"uint256"}],"name":"getStrategy","outputs":[{"components":[{"internalType":"string","name":"name","type":"string"},{"internalType":"address","name":"stakingContract","type":"address"},{"internalType":"address","name":"rewardToken","type":"address"},{"internalType":"address","name":"lpToken","type":"address"},{"internalType":"uint256","name":"apy","type":"uint256"},{"internalType":"uint256","name":"minDeposit","type":"uint256"},{"internalType":"bool","name":"isActive","type":"bool"}],"internalType":"struct YieldFarmer.YieldStrategy","name":"","type":"tuple"}],"stateMutability":"view","type":"function"},{"inputs":[{"internalType":"address","name":"user","type":"address"},{"internalType":"uint256","name":"strategyId","type":"uint256"}],"name":"getUserPosition","outputs":[{"components":[{"internalType":"uint256","name":"strategyId","type":"uint256"},{"internalType":"uint256","name":"stakedAmount","type":"uint256"},{"internalType":"uint256","name":"depositTimestamp","type":"uint256"},{"internalType":"bool","name":"isActive","type":"bool"}],"internalType":"struct YieldFarmer.UserPosition","name":"","type":"tuple"}],"stateMutability":"view","type":"function"},{"inputs":[],"name":"nextStrategyId","outputs":[{"internalType":"uint256","name":"","type":"uint256"}],"stateMutability":"view","type":"function"},{"inputs":[],"name":"owner","outputs":[{"internalType":"address","name":"","type":"address"}],"stateMutability":"view","type":"function"},{"inputs":[{"internalType":"uint256","name":"strategyId","type":"uint256"}],"name":"pauseStrategy","outputs":[],"stateMutability":"nonpayable","type":"function"},{"inputs":[{"internalType":"uint256","name":"","type":"uint256"}],"name":"strategies","outputs":[{"internalType":"string","name":"name","type":"string"},{"internalType":"address","name":"stakingContract","type":"address"},{"internalType":"address","name":"rewardToken","type":"address"},{"internalType":"address","name":"lpToken","type":"address"},{"internalType":"uint256","name":"apy","type":"uint256"},{"internalType":"uint256","name":"minDeposit","type":"uint256"},{"internalType":"bool","name":"isActive","type":"bool"}],"stateMutability":"view","type":"function"},{"inputs":[{"internalType":"address","name":"","type":"address"},{"internalType":"uint256","name":"","type":"uint256"}],"name":"userPositions","outputs":[{"internalType":"uint256","name":"strategyId","type":"uint256"},{"internalType":"uint256","name":"stakedAmount","type":"uint256"},{"internalType":"uint256","name":"depositTimestamp","type":"uint256"},{"internalType":"bool","name":"isActive","type":"bool"}],"stateMutability":"view","type":"function"},{"inputs":[{"internalType":"uint256","name":"strategyId","type":"uint256"},{"internalType":"uint256","name":"amount","type":"uint256"}],"name":"withdraw","outputs":[],"stateMutability":"nonpayable","type":"function"}],"evm":{"bytecode":{"linkReferences":{},"object":"608060405260016003553480156200001657600080fd5b50600080546001600160a01b031916331790556200003362000039565b62000406565b6040805161012081018252601060e082019081526f041676e69204d4e542d55534443204c560841b610100830152815260006020808301829052828401829052606083018290526104b0608084015268056bc75e2d6310000060a084015260c083018290526003548252600190529190912081518190620000bb908262000312565b5060208201516001820180546001600160a01b03199081166001600160a01b039384161790915560408401516002840180548316918416919091179055606084015160038085018054909316919093161790556080830151600483015560a0830151600583015560c0909201516006909101805460ff191691151591909117905580549060006200014c83620003de565b90915550506040805161012081018252601260e08201908152714c656e646c65204d4e54204c656e64696e6760701b610100830152815260006020808301829052828401829052606083018290526103206080840152683635c9adc5dea0000060a084015260c083018290526003548252600190529190912081518190620001d5908262000312565b5060208201516001820180546001600160a01b03199081166001600160a01b039384161790915560408401516002840180548316918416919091179055606084015160038085018054909316919093161790556080830151600483015560a0830151600583015560c0909201516006909101805460ff191691151591909117905580549060006200026683620003de565b9190505550565b634e487b7160e01b600052604160045260246000fd5b600181811c908216806200029857607f821691505b602082108103620002b957634e487b7160e01b600052602260045260246000fd5b50919050565b601f8211156200030d57600081815260208120601f850160051c81016020861015620002e85750805b601f850160051c820191505b818110156200030957828155600101620002f4565b5050505b505050565b81516001600160401b038111156200032e576200032e6200026d565b62000346816200033f845462000283565b84620002bf565b602080601f8311600181146200037e5760008415620003655750858301515b600019600386901b1c1916600185901b17855562000309565b600085815260208120601f198616915b82811015620003af578886015182559484019460019091019084016200038e565b5085821015620003ce5787850151600019600388901b60f8161c191681555b5050505050600190811b01905550565b600060018201620003ff57634e487b7160e01b600052601160045260246000fd5b5060010190565b61120980620004166000396000f3fe608060405234801561001057600080fd5b50600436106100b45760003560e01c80638da5cb5b116100715780638da5cb5b146101cc57806395ccea67146101f7578063c59aa7171461020a578063cfc0cc341461021d578063d574ea3d1461023d578063d5b3d05b1461026357600080fd5b8063185f8447146100b95780631c88ef1e146100d5578063441a3e701461011d5780635e1b4d99146101325780637c869d13146101965780638a524fa7146101b9575b600080fd5b6100c260035481565b6040519081526020015b60405180910390f35b6100e86100e3366004610d3b565b61028b565b6040516100cc919081518152602080830151908201526040808301519082015260609182015115159181019190915260800190565b61013061012b366004610d65565b610315565b005b610174610140366004610d3b565b6002602081815260009384526040808520909152918352912080546001820154928201546003909201549092919060ff1684565b60408051948552602085019390935291830152151560608201526080016100cc565b6101a96101a4366004610d87565b6104c7565b60405190151581526020016100cc565b6101306101c7366004610dbc565b610729565b6000546101df906001600160a01b031681565b6040516001600160a01b0390911681526020016100cc565b610130610205366004610d3b565b61076e565b610130610218366004610dd5565b610814565b61023061022b366004610dbc565b6109b2565b6040516100cc9190610ed1565b61025061024b366004610dbc565b610aeb565b6040516100cc9796959493929190610f48565b610276610271366004610d65565b610bc1565b604080519283526020830191909152016100cc565b6102b860405180608001604052806000815260200160008152602001600081526020016000151581525090565b506001600160a01b038216600090815260026020818152604080842085855282529283902083516080810185528154815260018201549281019290925291820154928101929092526003015460ff16151560608201525b92915050565b3360009081526002602090815260408083208584529091529020600381015460ff1661037d5760405162461bcd60e51b815260206004820152601260248201527127379030b1ba34bb32903837b9b4ba34b7b760711b60448201526064015b60405180910390fd5b80600101548211156103d15760405162461bcd60e51b815260206004820152601a60248201527f496e73756666696369656e74207374616b656420616d6f756e740000000000006044820152606401610374565b818160010160008282546103e59190610fb1565b909155505060018101546000036104035760038101805460ff191690555b600083815260016020526040908190206003810154915163a9059cbb60e01b81523360048201526024810185905290916001600160a01b03169063a9059cbb906044016020604051808303816000875af1158015610465573d6000803e3d6000fd5b505050506040513d601f19601f820116820180604052508101906104899190610fc4565b50604051838152849033907ffbc3a599b784fe88772fc5abcc07223f64ca0b13acc341f4fb1e46bef0510eb49060200160405180910390a350505050565b6000838152600160205260408120600681015460ff1661051f5760405162461bcd60e51b81526020600482015260136024820152725374726174656779206e6f742061637469766560681b6044820152606401610374565b806005015484101561056b5760405162461bcd60e51b815260206004820152601560248201527410995b1bddc81b5a5b9a5b5d5b4819195c1bdcda5d605a1b6044820152606401610374565b60038101546040516323b872dd60e01b81526001600160a01b03858116600483015230602483015260448201879052909116906323b872dd906064016020604051808303816000875af11580156105c6573d6000803e3d6000fd5b505050506040513d601f19601f820116820180604052508101906105ea9190610fc4565b506001600160a01b03831660009081526002602090815260408083208884529091529020600381015460ff161561063a578481600101600082825461062f9190610fed565b9091555061065b9050565b858155600180820186905542600283015560038201805460ff191690911790555b6003820154600183015460405163095ea7b360e01b81526001600160a01b0391821660048201526024810188905291169063095ea7b3906044016020604051808303816000875af11580156106b4573d6000803e3d6000fd5b505050506040513d601f19601f820116820180604052508101906106d89190610fc4565b5085846001600160a01b03167fbee4fe3675934fca827426c793623996a3079255089bda3a717019ffc5db27658760405161071591815260200190565b60405180910390a350600195945050505050565b6000546001600160a01b031633146107535760405162461bcd60e51b815260040161037490611000565b6000908152600160205260409020600601805460ff19169055565b6000546001600160a01b031633146107985760405162461bcd60e51b815260040161037490611000565b60005460405163a9059cbb60e01b81526001600160a01b039182166004820152602481018390529083169063a9059cbb906044016020604051808303816000875af11580156107eb573d6000803e3d6000fd5b505050506040513d601f19601f8201168201806040525081019061080f9190610fc4565b505050565b6000546001600160a01b0316331461083e5760405162461bcd60e51b815260040161037490611000565b600380546000918261084f83611023565b90915550604080516101006020601f8c01819004028201810190925260e081018a81529293509182918b908b908190850183828082843760009201829052509385525050506001600160a01b03808a1660208085019190915289821660408086019190915291891660608501526080840188905260a08401879052600160c09094018490528583529290925220815181906108ea90826110da565b5060208201516001820180546001600160a01b03199081166001600160a01b03938416179091556040808501516002850180548416918516919091179055606085015160038501805490931693169290921790556080830151600483015560a0830151600583015560c0909201516006909101805460ff19169115159190911790555181907f6775a9046bbe59478dd494d50a36e41b492553c450763494b97c3dc5bd4a93c3906109a0908b908b90889061119a565b60405180910390a25050505050505050565b6040805160e081018252606080825260006020830181905292820183905281018290526080810182905260a0810182905260c081019190915260008281526001602052604090819020815160e08101909252805482908290610a1390611052565b80601f0160208091040260200160405190810160405280929190818152602001828054610a3f90611052565b8015610a8c5780601f10610a6157610100808354040283529160200191610a8c565b820191906000526020600020905b815481529060010190602001808311610a6f57829003601f168201915b505050918352505060018201546001600160a01b039081166020830152600283015481166040830152600383015416606082015260048201546080820152600582015460a082015260069091015460ff16151560c09091015292915050565b600160205260009081526040902080548190610b0690611052565b80601f0160208091040260200160405190810160405280929190818152602001828054610b3290611052565b8015610b7f5780601f10610b5457610100808354040283529160200191610b7f565b820191906000526020600020905b815481529060010190602001808311610b6257829003601f168201915b5050506001840154600285015460038601546004870154600588015460069098015496976001600160a01b039485169793851696509190931693509060ff1687565b600080808060015b600354811015610d1457600081815260016020526040808220815160e08101909252805482908290610bfa90611052565b80601f0160208091040260200160405190810160405280929190818152602001828054610c2690611052565b8015610c735780601f10610c4857610100808354040283529160200191610c73565b820191906000526020600020905b815481529060010190602001808311610c5657829003601f168201915b505050918352505060018201546001600160a01b039081166020830152600283015481166040830152600383015416606082015260048201546080820152600582015460a082015260069091015460ff16151560c0918201528101519091508015610ce257508060a001518810155b8015610cf15750838160800151115b15610d0157806080015193508192505b5080610d0c81611023565b915050610bc9565b509590945092505050565b80356001600160a01b0381168114610d3657600080fd5b919050565b60008060408385031215610d4e57600080fd5b610d5783610d1f565b946020939093013593505050565b60008060408385031215610d7857600080fd5b50508035926020909101359150565b600080600060608486031215610d9c57600080fd5b8335925060208401359150610db360408501610d1f565b90509250925092565b600060208284031215610dce57600080fd5b5035919050565b600080600080600080600060c0888a031215610df057600080fd5b873567ffffffffffffffff80821115610e0857600080fd5b818a0191508a601f830112610e1c57600080fd5b813581811115610e2b57600080fd5b8b6020828501011115610e3d57600080fd5b602092830199509750610e53918a019050610d1f565b9450610e6160408901610d1f565b9350610e6f60608901610d1f565b92506080880135915060a0880135905092959891949750929550565b6000815180845260005b81811015610eb157602081850181015186830182015201610e95565b506000602082860101526020601f19601f83011685010191505092915050565b602081526000825160e06020840152610eee610100840182610e8b565b9050602084015160018060a01b0380821660408601528060408701511660608601528060608701511660808601525050608084015160a084015260a084015160c084015260c0840151151560e08401528091505092915050565b60e081526000610f5b60e083018a610e8b565b6001600160a01b039889166020840152968816604083015250939095166060840152608083019190915260a082015291151560c090920191909152919050565b634e487b7160e01b600052601160045260246000fd5b8181038181111561030f5761030f610f9b565b600060208284031215610fd657600080fd5b81518015158114610fe657600080fd5b9392505050565b8082018082111561030f5761030f610f9b565b6020808252600990820152682737ba1037bbb732b960b91b604082015260600190565b60006001820161103557611035610f9b565b5060010190565b634e487b7160e01b600052604160045260246000fd5b600181811c9082168061106657607f821691505b60208210810361108657634e487b7160e01b600052602260045260246000fd5b50919050565b601f82111561080f57600081815260208120601f850160051c810160208610156110b35750805b601f850160051c820191505b818110156110d2578281556001016110bf565b505050505050565b815167ffffffffffffffff8111156110f4576110f461103c565b611108816111028454611052565b8461108c565b602080601f83116001811461113d57600084156111255750858301515b600019600386901b1c1916600185901b1785556110d2565b600085815260208120601f198616915b8281101561116c5788860151825594840194600190910190840161114d565b508582101561118a5787850151600019600388901b60f8161c191681555b5050505050600190811b01905550565b604081528260408201528284606083013760006060848301015260006060601f19601f860116830101905082602083015294935050505056fea2646970667358221220579d5ed895270bf0aa2d74305abc4cda495c8b9b8a5b73e4b2d11486f0f19ac164736f6c63430008130033","opcodes":"PUSH1 0x80 PUSH1 0x40 MSTORE PUSH1 0x1 PUSH1 0x3 SSTORE CALLVALUE DUP1 ISZERO PUSH3 0x16 JUMPI PUSH1 0x0 DUP1 REVERT JUMPDEST POP PUSH1 0x0 DUP1 SLOAD PUSH1 0x1 PUSH1 0x1 PUSH1 0xA0 SHL SUB NOT AND CALLER OR SWAP1 SSTORE PUSH3 0x33 PUSH3 0x39 JUMP JUMPDEST PUSH3 0x406 JUMP JUMPDEST PUSH1 0x40 DUP1 MLOAD PUSH2 0x120 DUP2 ADD DUP3 MSTORE PUSH1 0x10 PUSH1 0xE0 DUP3 ADD SWAP1 DUP2 MSTORE PUSH16 0x41676E69204D4E542D55534443204C5 PUSH1 0x84 SHL PUSH2 0x100 DUP4 ADD MSTORE DUP2 MSTORE PUSH1 0x0 PUSH1 0x20 DUP1 DUP4 ADD DUP3 SWAP1 MSTORE DUP3 DUP5 ADD DUP3 SWAP1 MSTORE PUSH1 0x60 DUP4 ADD DUP3 SWAP1 MSTORE PUSH2 0x4B0 PUSH1 0x80 DUP5 ADD MSTORE PUSH9 0x56BC75E2D63100000 PUSH1 0xA0 DUP5 ADD MSTORE PUSH1 0xC0 DUP4 ADD DUP3 SWAP1 MSTORE PUSH1 0x3 SLOAD DUP3 MSTORE PUSH1 0x1 SWAP1 MSTORE SWAP2 SWAP1 SWAP2 KECCAK256 DUP2 MLOAD DUP2 SWAP1 PUSH3 0xBB SWAP1 DUP3 PUSH3 0x312 JUMP JUMPDEST POP PUSH1 0x20 DUP3 ADD MLOAD PUSH1 0x1 DUP3 ADD DUP1 SLOAD PUSH1 0x1 PUSH1 0x1 PUSH1 0xA0 SHL SUB NOT SWAP1 DUP2 AND PUSH1 0x1 PUSH1 0x1 PUSH1 0xA0 SHL SUB SWAP4 DUP5 AND OR SWAP1 SWAP2 SSTORE PUSH1 0x40 DUP5 ADD MLOAD PUSH1 0x2 DUP5 ADD DUP1 SLOAD DUP4 AND SWAP2 DUP5 AND SWAP2 SWAP1 SWAP2 OR SWAP1 SSTORE PUSH1 0x60 DUP5 ADD MLOAD PUSH1 0x3 DUP1 DUP6 ADD DUP1 SLOAD SWAP1 SWAP4 AND SWAP2 SWAP1 SWAP4 AND OR SWAP1 SSTORE PUSH1 0x80 DUP4 ADD MLOAD PUSH1 0x4 DUP4 ADD SSTORE PUSH1 0xA0 DUP4 ADD MLOAD PUSH1 0x5 DUP4 ADD SSTORE PUSH1 0xC0 SWAP1 SWAP3 ADD MLOAD PUSH1 0x6 SWAP1 SWAP2 ADD DUP1 SLOAD PUSH1 0xFF NOT AND SWAP2 ISZERO ISZERO SWAP2 SWAP1 SWAP2 OR SWAP1 SSTORE DUP1 SLOAD SWAP1 PUSH1 0x0 PUSH3 0x14C DUP4 PUSH3 0x3DE JUMP JUMPDEST SWAP1 SWAP2 SSTORE POP POP PUSH1 0x40 DUP1 MLOAD PUSH2 0x120 DUP2 ADD DUP3 MSTORE PUSH1 0x12 PUSH1 0xE0 DUP3 ADD SWAP1 DUP2 MSTORE PUSH18 0x4C656E646C65204D4E54204C656E64696E67 PUSH1 0x70 SHL PUSH2 0x100 DUP4 ADD MSTORE DUP2 MSTORE PUSH1 0x0 PUSH1 0x20 DUP1 DUP4 ADD DUP3 SWAP1 MSTORE DUP3 DUP5 ADD DUP3 SWAP1 MSTORE PUSH1 0x60 DUP4 ADD DUP3 SWAP1 MSTORE PUSH2 0x320 PUSH1 0x80 DUP5 ADD MSTORE PUSH9 0x3635C9ADC5DEA00000 PUSH1 0xA0 DUP5 ADD MSTORE PUSH1 0xC0 DUP4 ADD DUP3 SWAP1 MSTORE PUSH1 0x3 SLOAD DUP3 MSTORE PUSH1 0x1 SWAP1 MSTORE SWAP2 SWAP1 SWAP2 KECCAK256 DUP2 MLOAD DUP2 SWAP1 PUSH3 0x1D5 SWAP1 DUP3 PUSH3 0x312 JUMP JUMPDEST POP PUSH1 0x20 DUP3 ADD MLOAD PUSH1 0x1 DUP3 ADD DUP1 SLOAD PUSH1 0x1 PUSH1 0x1 PUSH1 0xA0 SHL SUB NOT SWAP1 DUP2 AND PUSH1 0x1 PUSH1 0x1 PUSH1 0xA0 SHL SUB SWAP4 DUP5 AND OR SWAP1 SWAP2 SSTORE PUSH1 0x40 DUP5 ADD MLOAD PUSH1 0x2 DUP5 ADD DUP1 SLOAD DUP4 AND SWAP2 DUP5 AND SWAP2 SWAP1 SWAP2 OR SWAP1 SSTORE PUSH1 0x60 DUP5 ADD MLOAD PUSH1 0x3 DUP1 DUP6 ADD DUP1 SLOAD SWAP1 SWAP4 AND SWAP2 SWAP1 SWAP4 AND OR SWAP1 SSTORE PUSH1 0x80 DUP4 ADD MLOAD PUSH1 0x4 DUP4 ADD SSTORE PUSH1 0xA0 DUP4 ADD MLOAD PUSH1 0x5 DUP4 ADD SSTORE PUSH1 0xC0 SWAP1 SWAP3 ADD MLOAD PUSH1 0x6 SWAP1 SWAP2 ADD DUP1 SLOAD PUSH1 0xFF NOT AND SWAP2 ISZERO ISZERO SWAP2 SWAP1 SWAP2 OR SWAP1 SSTORE DUP1 SLOAD SWAP1 PUSH1 0x0 PUSH3 0x266 DUP4 PUSH3 0x3DE JUMP JUMPDEST SWAP2 SWAP1 POP SSTORE POP JUMP JUMPDEST PUSH4 0x4E487B71 PUSH1 0xE0 SHL PUSH1 0x0 MSTORE PUSH1 0x41 PUSH1 0x4 MSTORE PUSH1 0x24 PUSH1 0x0 REVERT JUMPDEST PUSH1 0x1 DUP2 DUP2 SHR SWAP1 DUP3 AND DUP1 PUSH3 0x298 JUMPI PUSH1 0x7F DUP3 AND SWAP2 POP JUMPDEST PUSH1 0x20 DUP3 LT DUP2 SUB PUSH3 0x2B9 JUMPI PUSH4 0x4E487B71 PUSH1 0xE0 SHL PUSH1 0x0 MSTORE PUSH1 0x22 PUSH1 0x4 MSTORE PUSH1 0x24 PUSH1 0x0 REVERT JUMPDEST POP SWAP2 SWAP1 POP JUMP JUMPDEST PUSH1 0x1F DUP3 GT ISZERO PUSH3 0x30D JUMPI PUSH1 0x0 DUP2 DUP2 MSTORE PUSH1 0x20 DUP2 KECCAK256 PUSH1 0x1F DUP6 ADD PUSH1 0x5 SHR DUP2 ADD PUSH1 0x20 DUP7 LT ISZERO PUSH3 0x2E8 JUMPI POP DUP1 JUMPDEST PUSH1 0x1F DUP6 ADD PUSH1 0x5 SHR DUP3 ADD SWAP2 POP JUMPDEST DUP2 DUP2 LT ISZERO PUSH3 0x309 JUMPI DUP3 DUP2 SSTORE PUSH1 0x1 ADD PUSH3 0x2F4 JUMP JUMPDEST POP POP POP JUMPDEST POP POP POP JUMP JUMPDEST DUP2 MLOAD PUSH1 0x1 PUSH1 0x1 PUSH1 0x40 SHL SUB DUP2 GT ISZERO PUSH3 0x32E JUMPI PUSH3 0x32E PUSH3 0x26D JUMP JUMPDEST PUSH3 0x346 DUP2 PUSH3 0x33F DUP5 SLOAD PUSH3 0x283 JUMP JUMPDEST DUP5 PUSH3 0x2BF JUMP JUMPDEST PUSH1 0x20 DUP1 PUSH1 0x1F DUP4 GT PUSH1 0x1 DUP2 EQ PUSH3 0x37E JUMPI PUSH1 0x0 DUP5 ISZERO PUSH3 0x365 JUMPI POP DUP6 DUP4 ADD MLOAD JUMPDEST PUSH1 0x0 NOT PUSH1 0x3 DUP7 SWAP1 SHL SHR NOT AND PUSH1 0x1 DUP6 SWAP1 SHL OR DUP6 SSTORE PUSH3 0x309 JUMP JUMPDEST PUSH1 0x0 DUP6 DUP2 MSTORE PUSH1 0x20 DUP2 KECCAK256 PUSH1 0x1F NOT DUP7 AND SWAP2 JUMPDEST DUP3 DUP2 LT ISZERO PUSH3 0x3AF JUMPI DUP9 DUP7 ADD MLOAD DUP3 SSTORE SWAP5 DUP5 ADD SWAP5 PUSH1 0x1 SWAP1 SWAP2 ADD SWAP1 DUP5 ADD PUSH3 0x38E JUMP JUMPDEST POP DUP6 DUP3 LT ISZERO PUSH3 0x3CE JUMPI DUP8 DUP6 ADD MLOAD PUSH1 0x0 NOT PUSH1 0x3 DUP9 SWAP1 SHL PUSH1 0xF8 AND SHR NOT AND DUP2 SSTORE JUMPDEST POP POP POP POP POP PUSH1 0x1 SWAP1 DUP2 SHL ADD SWAP1 SSTORE POP JUMP JUMPDEST PUSH1 0x0 PUSH1 0x1 DUP3 ADD PUSH3 0x3FF JUMPI PUSH4 0x4E487B71 PUSH1 0xE0 SHL PUSH1 0x0 MSTORE PUSH1 0x11 PUSH1 0x4 MSTORE PUSH1 0x24 PUSH1 0x0 REVERT JUMPDEST POP PUSH1 0x1 ADD SWAP1 JUMP JUMPDEST PUSH2 0x1209 DUP1 PUSH3 0x416 PUSH1 0x0 CODECOPY PUSH1 0x0 RETURN INVALID PUSH1 0x80 PUSH1 0x40 MSTORE CALLVALUE DUP1 ISZERO PUSH2 0x10 JUMPI PUSH1 0x0 DUP1 REVERT JUMPDEST POP PUSH1 0x4 CALLDATASIZE LT PUSH2 0xB4 JUMPI PUSH1 0x0 CALLDATALOAD PUSH1 0xE0 SHR DUP1 PUSH4 0x8DA5CB5B GT PUSH2 0x71 JUMPI DUP1 PUSH4 0x8DA5CB5B EQ PUSH2 0x1CC JUMPI DUP1 PUSH4 0x95CCEA67 EQ PUSH2 0x1F7 JUMPI DUP1 PUSH4 0xC59AA717 EQ PUSH2 0x20A JUMPI DUP1 PUSH4 0xCFC0CC34 EQ PUSH2 0x21D JUMPI DUP1 PUSH4 0xD574EA3D EQ PUSH2 0x23D JUMPI DUP1 PUSH4 0xD5B3D05B EQ PUSH2 0x263 JUMPI PUSH1 0x0 DUP1 REVERT JUMPDEST DUP1 PUSH4 0x185F8447 EQ PUSH2 0xB9 JUMPI DUP1 PUSH4 0x1C88EF1E EQ PUSH2 0xD5 JUMPI DUP1 PUSH4 0x441A3E70 EQ PUSH2 0x11D JUMPI DUP1 PUSH4 0x5E1B4D99 EQ PUSH2 0x132 JUMPI DUP1 PUSH4 0x7C869D13 EQ PUSH2 0x196 JUMPI DUP1 PUSH4 0x8A524FA7 EQ PUSH2 0x1B9 JUMPI JUMPDEST PUSH1 0x0 DUP1 REVERT JUMPDEST PUSH2 0xC2 PUSH1 0x3 SLOAD DUP2 JUMP JUMPDEST PUSH1 0x40 MLOAD SWAP1 DUP2 MSTORE PUSH1 0x20 ADD JUMPDEST PUSH1 0x40 MLOAD DUP1 SWAP2 SUB SWAP1 RETURN JUMPDEST PUSH2 0xE8 PUSH2 0xE3 CALLDATASIZE PUSH1 0x4 PUSH2 0xD3B JUMP JUMPDEST PUSH2 0x28B JUMP JUMPDEST PUSH1 0x40 MLOAD PUSH2 0xCC SWAP2 SWAP1 DUP2 MLOAD DUP2 MSTORE PUSH1 0x20 DUP1 DUP4 ADD MLOAD SWAP1 DUP3 ADD MSTORE PUSH1 0x40 DUP1 DUP4 ADD MLOAD SWAP1 DUP3 ADD MSTORE PUSH1 0x60 SWAP2 DUP3 ADD MLOAD ISZERO ISZERO SWAP2 DUP2 ADD SWAP2 SWAP1 SWAP2 MSTORE PUSH1 0x80 ADD SWAP1 JUMP JUMPDEST PUSH2 0x130 PUSH2 0x12B CALLDATASIZE PUSH1 0x4 PUSH2 0xD65 JUMP JUMPDEST PUSH2 0x315 JUMP JUMPDEST STOP JUMPDEST PUSH2 0x174 PUSH2 0x140 CALLDATASIZE PUSH1 0x4 PUSH2 0xD3B JUMP JUMPDEST PUSH1 0x2 PUSH1 0x20 DUP2 DUP2 MSTORE PUSH1 0x0 SWAP4 DUP5 MSTORE PUSH1 0x40 DUP1 DUP6 KECCAK256 SWAP1 SWAP2 MSTORE SWAP2 DUP4 MSTORE SWAP2 KECCAK256 DUP1 SLOAD PUSH1 0x1 DUP3 ADD SLOAD SWAP3 DUP3 ADD SLOAD PUSH1 0x3 SWAP1 SWAP3 ADD SLOAD SWAP1 SWAP3 SWAP2 SWAP1 PUSH1 0xFF AND DUP5 JUMP JUMPDEST PUSH1 0x40 DUP1 MLOAD SWAP5 DUP6 MSTORE PUSH1 0x20 DUP6 ADD SWAP4 SWAP1 SWAP4 MSTORE SWAP2 DUP4 ADD MSTORE ISZERO ISZERO PUSH1 0x60 DUP3 ADD MSTORE PUSH1 0x80 ADD PUSH2 0xCC JUMP JUMPDEST PUSH2 0x1A9 PUSH2 0x1A4 CALLDATASIZE PUSH1 0x4 PUSH2 0xD87 JUMP JUMPDEST PUSH2 0x4C7 JUMP JUMPDEST PUSH1 0x40 MLOAD SWAP1 ISZERO ISZERO DUP2 MSTORE PUSH1 0x20 ADD PUSH2 0xCC JUMP JUMPDEST PUSH2 0x130 PUSH2 0x1C7 CALLDATASIZE PUSH1 0x4 PUSH2 0xDBC JUMP JUMPDEST PUSH2 0x729 JUMP JUMPDEST PUSH1 0x0 SLOAD PUSH2 0x1DF SWAP1 PUSH1 0x1 PUSH1 0x1 PUSH1 0xA0 SHL SUB AND DUP2 JUMP JUMPDEST PUSH1 0x40 MLOAD PUSH1 0x1 PUSH1 0x1 PUSH1 0xA0 SHL SUB SWAP1 SWAP2 AND DUP2 MSTORE PUSH1 0x20 ADD PUSH2 0xCC JUMP JUMPDEST PUSH2 0x130 PUSH2 0x205 CALLDATASIZE PUSH1 0x4 PUSH2 0xD3B JUMP JUMPDEST PUSH2 0x76E JUMP JUMPDEST PUSH2 0x130 PUSH2 0x218 CALLDATASIZE PUSH1 0x4 PUSH2 0xDD5 JUMP JUMPDEST PUSH2 0x814 JUMP JUMPDEST PUSH2 0x230 PUSH2 0x22B CALLDATASIZE PUSH1 0x4 PUSH2 0xDBC JUMP JUMPDEST PUSH2 0x9B2 JUMP JUMPDEST PUSH1 0x40 MLOAD PUSH2 0xCC SWAP2 SWAP1 PUSH2 0xED1 JUMP JUMPDEST PUSH2 0x250 PUSH2 0x24B CALLDATASIZE PUSH1 0x4 PUSH2 0xDBC JUMP JUMPDEST PUSH2 0xAEB JUMP JUMPDEST PUSH1 0x40 MLOAD PUSH2 0xCC SWAP8 SWAP7 SWAP6 SWAP5 SWAP4 SWAP3 SWAP2 SWAP1 PUSH2 0xF48 JUMP JUMPDEST PUSH2 0x276 PUSH2 0x271 CALLDATASIZE PUSH1 0x4 PUSH2 0xD65 JUMP JUMPDEST PUSH2 0xBC1 JUMP JUMPDEST PUSH1 0x40 DUP1 MLOAD SWAP3 DUP4 MSTORE PUSH1 0x20 DUP4 ADD SWAP2 SWAP1 SWAP2 MSTORE ADD PUSH2 0xCC JUMP JUMPDEST PUSH2 0x2B8 PUSH1 0x40 MLOAD DUP1 PUSH1 0x80 ADD PUSH1 0x40 MSTORE DUP1 PUSH1 0x0 DUP2 MSTORE PUSH1 0x20 ADD PUSH1 0x0 DUP2 MSTORE PUSH1 0x20 ADD PUSH1 0x0 DUP2 MSTORE PUSH1 0x20 ADD PUSH1 0x0 ISZERO ISZERO DUP2 MSTORE POP SWAP1 JUMP JUMPDEST POP PUSH1 0x1 PUSH1 0x1 PUSH1 0xA0 SHL SUB DUP3 AND PUSH1 0x0 SWAP1 DUP2 MSTORE PUSH1 0x2 PUSH1 0x20 DUP2 DUP2 MSTORE PUSH1 0x40 DUP1 DUP5 KECCAK256 DUP6 DUP6 MSTORE DUP3 MSTORE SWAP3 DUP4 SWAP1 KECCAK256 DUP4 MLOAD PUSH1 0x80 DUP2 ADD DUP6 MSTORE DUP2 SLOAD DUP2 MSTORE PUSH1 0x1 DUP3 ADD SLOAD SWAP3 DUP2 ADD SWAP3 SWAP1 SWAP3 MSTORE SWAP2 DUP3 ADD SLOAD SWAP3 DUP2 ADD SWAP3 SWAP1 SWAP3 MSTORE PUSH1 0x3 ADD SLOAD PUSH1 0xFF AND ISZERO ISZERO PUSH1 0x60 DUP3 ADD MSTORE JUMPDEST SWAP3 SWAP2 POP POP JUMP JUMPDEST CALLER PUSH1 0x0 SWAP1 DUP2 MSTORE PUSH1 0x2 PUSH1 0x20 SWAP1 DUP2 MSTORE PUSH1 0x40 DUP1 DUP4 KECCAK256 DUP6 DUP5 MSTORE SWAP1 SWAP2 MSTORE SWAP1 KECCAK256 PUSH1 0x3 DUP2 ADD SLOAD PUSH1 0xFF AND PUSH2 0x37D JUMPI PUSH1 0x40 MLOAD PUSH3 0x461BCD PUSH1 0xE5 SHL DUP2 MSTORE PUSH1 0x20 PUSH1 0x4 DUP3 ADD MSTORE PUSH1 0x12 PUSH1 0x24 DUP3 ADD MSTORE PUSH18 0x27379030B1BA34BB32903837B9B4BA34B7B7 PUSH1 0x71 SHL PUSH1 0x44 DUP3 ADD MSTORE PUSH1 0x64 ADD JUMPDEST PUSH1 0x40 MLOAD DUP1 SWAP2 SUB SWAP1 REVERT JUMPDEST DUP1 PUSH1 0x1 ADD SLOAD DUP3 GT ISZERO PUSH2 0x3D1 JUMPI PUSH1 0x40 MLOAD PUSH3 0x461BCD PUSH1 0xE5 SHL DUP2 MSTORE PUSH1 0x20 PUSH1 0x4 DUP3 ADD MSTORE PUSH1 0x1A PUSH1 0x24 DUP3 ADD MSTORE PUSH32 0x496E73756666696369656E74207374616B656420616D6F756E74000000000000 PUSH1 0x44 DUP3 ADD MSTORE PUSH1 0x64 ADD PUSH2 0x374 JUMP JUMPDEST DUP2 DUP2 PUSH1 0x1 ADD PUSH1 0x0 DUP3 DUP3 SLOAD PUSH2 0x3E5 SWAP2 SWAP1 PUSH2 0xFB1 JUMP JUMPDEST SWAP1 SWAP2 SSTORE POP POP PUSH1 0x1 DUP2 ADD SLOAD PUSH1 0x0 SUB PUSH2 0x403 JUMPI PUSH1 0x3 DUP2 ADD DUP1 SLOAD PUSH1 0xFF NOT AND SWAP1 SSTORE JUMPDEST PUSH1 0x0 DUP4 DUP2 MSTORE PUSH1 0x1 PUSH1 0x20 MSTORE PUSH1 0x40 SWAP1 DUP2 SWAP1 KECCAK256 PUSH1 0x3 DUP2 ADD SLOAD SWAP2 MLOAD PUSH4 0xA9059CBB PUSH1 0xE0 SHL DUP2 MSTORE CALLER PUSH1 0x4 DUP3 ADD MSTORE PUSH1 0x24 DUP2 ADD DUP6 SWAP1 MSTORE SWAP1 SWAP2 PUSH1 0x1 PUSH1 0x1 PUSH1 0xA0 SHL SUB AND SWAP1 PUSH4 0xA9059CBB SWAP1 PUSH1 0x44 ADD PUSH1 0x20 PUSH1 0x40 MLOAD DUP1 DUP4 SUB DUP2 PUSH1 0x0 DUP8 GAS CALL ISZERO DUP1 ISZERO PUSH2 0x465 JUMPI RETURNDATASIZE PUSH1 0x0 DUP1 RETURNDATACOPY RETURNDATASIZE PUSH1 0x0 REVERT JUMPDEST POP POP POP POP PUSH1 0x40 MLOAD RETURNDATASIZE PUSH1 0x1F NOT PUSH1 0x1F DUP3 ADD AND DUP3 ADD DUP1 PUSH1 0x40 MSTORE POP DUP2 ADD SWAP1 PUSH2 0x489 SWAP2 SWAP1 PUSH2 0xFC4 JUMP JUMPDEST POP PUSH1 0x40 MLOAD DUP4 DUP2 MSTORE DUP5 SWAP1 CALLER SWAP1 PUSH32 0xFBC3A599B784FE88772FC5ABCC07223F64CA0B13ACC341F4FB1E46BEF0510EB4 SWAP1 PUSH1 0x20 ADD PUSH1 0x40 MLOAD DUP1 SWAP2 SUB SWAP1 LOG3 POP POP POP POP JUMP JUMPDEST PUSH1 0x0 DUP4 DUP2 MSTORE PUSH1 0x1 PUSH1 0x20 MSTORE PUSH1 0x40 DUP2 KECCAK256 PUSH1 0x6 DUP2 ADD SLOAD PUSH1 0xFF AND PUSH2 0x51F JUMPI PUSH1 0x40 MLOAD PUSH3 0x461BCD PUSH1 0xE5 SHL DUP2 MSTORE PUSH1 0x20 PUSH1 0x4 DUP3 ADD MSTORE PUSH1 0x13 PUSH1 0x24 DUP3 ADD MSTORE PUSH19 0x5374726174656779206E6F7420616374697665 PUSH1 0x68 SHL PUSH1 0x44 DUP3 ADD MSTORE PUSH1 0x64 ADD PUSH2 0x374 JUMP JUMPDEST DUP1 PUSH1 0x5 ADD SLOAD DUP5 LT ISZERO PUSH2 0x56B JUMPI PUSH1 0x40 MLOAD PUSH3 0x461BCD PUSH1 0xE5 SHL DUP2 MSTORE PUSH1 0x20 PUSH1 0x4 DUP3 ADD MSTORE PUSH1 0x15 PUSH1 0x24 DUP3 ADD MSTORE PUSH21 0x10995B1BDDC81B5A5B9A5B5D5B4819195C1BDCDA5D PUSH1 0x5A SHL PUSH1 0x44 DUP3 ADD MSTORE PUSH1 0x64 ADD PUSH2 0x374 JUMP JUMPDEST PUSH1 0x3 DUP2 ADD SLOAD PUSH1 0x40 MLOAD PUSH4 0x23B872DD PUSH1 0xE0 SHL DUP2 MSTORE PUSH1 0x1 PUSH1 0x1 PUSH1 0xA0 SHL SUB DUP6 DUP2 AND PUSH1 0x4 DUP4 ADD MSTORE ADDRESS PUSH1 0x24 DUP4 ADD MSTORE PUSH1 0x44 DUP3 ADD DUP8 SWAP1 MSTORE SWAP1 SWAP2 AND SWAP1 PUSH4 0x23B872DD SWAP1 PUSH1 0x64 ADD PUSH1 0x20 PUSH1 0x40 MLOAD DUP1 DUP4 SUB DUP2 PUSH1 0x0 DUP8 GAS CALL ISZERO DUP1 ISZERO PUSH2 0x5C6 JUMPI RETURNDATASIZE PUSH1 0x0 DUP1 RETURNDATACOPY RETURNDATASIZE PUSH1 0x0 REVERT JUMPDEST POP POP POP POP PUSH1 0x40 MLOAD RETURNDATASIZE PUSH1 0x1F NOT PUSH1 0x1F DUP3 ADD AND DUP3 ADD DUP1 PUSH1 0x40 MSTORE POP DUP2 ADD SWAP1 PUSH2 0x5EA SWAP2 SWAP1 PUSH2 0xFC4 JUMP JUMPDEST POP PUSH1 0x1 PUSH1 0x1 PUSH1 0xA0 SHL SUB DUP4 AND PUSH1 0x0 SWAP1 DUP2 MSTORE PUSH1 0x2 PUSH1 0x20 SWAP1 DUP2 MSTORE PUSH1 0x40 DUP1 DUP4 KECCAK256 DUP9 DUP5 MSTORE SWAP1 SWAP2 MSTORE SWAP1 KECCAK256 PUSH1 0x3 DUP2 ADD SLOAD PUSH1 0xFF AND ISZERO PUSH2 0x63A JUMPI DUP5 DUP2 PUSH1 0x1 ADD PUSH1 0x0 DUP3 DUP3 SLOAD PUSH2 0x62F SWAP2 SWAP1 PUSH2 0xFED JUMP JUMPDEST SWAP1 SWAP2 SSTORE POP PUSH2 0x65B SWAP1 POP JUMP JUMPDEST DUP6 DUP2 SSTORE PUSH1 0x1 DUP1 DUP3 ADD DUP7 SWAP1 SSTORE TIMESTAMP PUSH1 0x2 DUP4 ADD SSTORE PUSH1 0x3 DUP3 ADD DUP1 SLOAD PUSH1 0xFF NOT AND SWAP1 SWAP2 OR SWAP1 SSTORE JUMPDEST PUSH1 0x3 DUP3 ADD SLOAD PUSH1 0x1 DUP4 ADD SLOAD PUSH1 0x40 MLOAD PUSH4 0x95EA7B3 PUSH1 0xE0 SHL DUP2 MSTORE PUSH1 0x1 PUSH1 0x1 PUSH1 0xA0 SHL SUB SWAP2 DUP3 AND PUSH1 0x4 DUP3 ADD MSTORE PUSH1 0x24 DUP2 ADD DUP9 SWAP1 MSTORE SWAP2 AND SWAP1 PUSH4 0x95EA7B3 SWAP1 PUSH1 0x44 ADD PUSH1 0x20 PUSH1 0x40 MLOAD DUP1 DUP4 SUB DUP2 PUSH1 0x0 DUP8 GAS CALL ISZERO DUP1 ISZERO PUSH2 0x6B4 JUMPI RETURNDATASIZE PUSH1 0x0 DUP1 RETURNDATACOPY RETURNDATASIZE PUSH1 0x0 REVERT JUMPDEST POP POP POP POP PUSH1 0x40 MLOAD RETURNDATASIZE PUSH1 0x1F NOT PUSH1 0x1F DUP3 ADD AND DUP3 ADD DUP1 PUSH1 0x40 MSTORE POP DUP2 ADD SWAP1 PUSH2 0x6D8 SWAP2 SWAP1 PUSH2 0xFC4 JUMP JUMPDEST POP DUP6 DUP5 PUSH1 0x1 PUSH1 0x1 PUSH1 0xA0 SHL SUB AND PUSH32 0xBEE4FE3675934FCA827426C793623996A3079255089BDA3A717019FFC5DB2765 DUP8 PUSH1 0x40 MLOAD PUSH2 0x715 SWAP2 DUP2 MSTORE PUSH1 0x20 ADD SWAP1 JUMP JUMPDEST PUSH1 0x40 MLOAD DUP1 SWAP2 SUB SWAP1 LOG3 POP PUSH1 0x1 SWAP6 SWAP5 POP POP POP POP POP JUMP JUMPDEST PUSH1 0x0 SLOAD PUSH1 0x1 PUSH1 0x1 PUSH1 0xA0 SHL SUB AND CALLER EQ PUSH2 0x753 JUMPI PUSH1 0x40 MLOAD PUSH3 0x461BCD PUSH1 0xE5 SHL DUP2 MSTORE PUSH1 0x4 ADD PUSH2 0x374 SWAP1 PUSH2 0x1000 JUMP JUMPDEST PUSH1 0x0 SWAP1 DUP2 MSTORE PUSH1 0x1 PUSH1 0x20 MSTORE PUSH1 0x40 SWAP1 KECCAK256 PUSH1 0x6 ADD DUP1 SLOAD PUSH1 0xFF NOT AND SWAP1 SSTORE JUMP JUMPDEST PUSH1 0x0 SLOAD PUSH1 0x1 PUSH1 0x1 PUSH1 0xA0 SHL SUB AND CALLER EQ PUSH2 0x798 JUMPI PUSH1 0x40 MLOAD PUSH3 0x461BCD PUSH1 0xE5 SHL DUP2 MSTORE PUSH1 0x4 ADD PUSH2 0x374 SWAP1 PUSH2 0x1000 JUMP JUMPDEST PUSH1 0x0 SLOAD PUSH1 0x40 MLOAD PUSH4 0xA9059CBB PUSH1 0xE0 SHL DUP2 MSTORE PUSH1 0x1 PUSH1 0x1 PUSH1 0xA0 SHL SUB SWAP2 DUP3 AND PUSH1 0x4 DUP3 ADD MSTORE PUSH1 0x24 DUP2 ADD DUP4 SWAP1 MSTORE SWAP1 DUP4 AND SWAP1 PUSH4 0xA9059CBB SWAP1 PUSH1 0x44 ADD PUSH1 0x20 PUSH1 0x40 MLOAD DUP1 DUP4 SUB DUP2 PUSH1 0x0 DUP8 GAS CALL ISZERO DUP1 ISZERO PUSH2 0x7EB JUMPI RETURNDATASIZE PUSH1 0x0 DUP1 RETURNDATACOPY RETURNDATASIZE PUSH1 0x0 REVERT JUMPDEST POP POP POP POP PUSH1 0x40 MLOAD RETURNDATASIZE PUSH1 0x1F NOT PUSH1 0x1F DUP3 ADD AND DUP3 ADD DUP1 PUSH1 0x40 MSTORE POP DUP2 ADD SWAP1 PUSH2 0x80F SWAP2 SWAP1 PUSH2 0xFC4 JUMP JUMPDEST POP POP POP JUMP JUMPDEST PUSH1 0x0 SLOAD PUSH1 0x1 PUSH1 0x1 PUSH1 0xA0 SHL SUB AND CALLER EQ PUSH2 0x83E JUMPI PUSH1 0x40 MLOAD PUSH3 0x461BCD PUSH1 0xE5 SHL DUP2 MSTORE PUSH1 0x4 ADD PUSH2 0x374 SWAP1 PUSH2 0x1000 JUMP JUMPDEST PUSH1 0x3 DUP1 SLOAD PUSH1 0x0 SWAP2 DUP3 PUSH2 0x84F DUP4 PUSH2 0x1023 JUMP JUMPDEST SWAP1 SWAP2 SSTORE POP PUSH1 0x40 DUP1 MLOAD PUSH2 0x100 PUSH1 0x20 PUSH1 0x1F DUP13 ADD DUP2 SWAP1 DIV MUL DUP3 ADD DUP2 ADD SWAP1 SWAP3 MSTORE PUSH1 0xE0 DUP2 ADD DUP11 DUP2 MSTORE SWAP3 SWAP4 POP SWAP2 DUP3 SWAP2 DUP12 SWAP1 DUP12 SWAP1 DUP2 SWAP1 DUP6 ADD DUP4 DUP3 DUP1 DUP3 DUP5 CALLDATACOPY PUSH1 0x0 SWAP3 ADD DUP3 SWAP1 MSTORE POP SWAP4 DUP6 MSTORE POP POP POP PUSH1 0x1 PUSH1 0x1 PUSH1 0xA0 SHL SUB DUP1 DUP11 AND PUSH1 0x20 DUP1 DUP6 ADD SWAP2 SWAP1 SWAP2 MSTORE DUP10 DUP3 AND PUSH1 0x40 DUP1 DUP7 ADD SWAP2 SWAP1 SWAP2 MSTORE SWAP2 DUP10 AND PUSH1 0x60 DUP6 ADD MSTORE PUSH1 0x80 DUP5 ADD DUP9 SWAP1 MSTORE PUSH1 0xA0 DUP5 ADD DUP8 SWAP1 MSTORE PUSH1 0x1 PUSH1 0xC0 SWAP1 SWAP5 ADD DUP5 SWAP1 MSTORE DUP6 DUP4 MSTORE SWAP3 SWAP1 SWAP3 MSTORE KECCAK256 DUP2 MLOAD DUP2 SWAP1 PUSH2 0x8EA SWAP1 DUP3 PUSH2 0x10DA JUMP JUMPDEST POP PUSH1 0x20 DUP3 ADD MLOAD PUSH1 0x1 DUP3 ADD DUP1 SLOAD PUSH1 0x1 PUSH1 0x1 PUSH1 0xA0 SHL SUB NOT SWAP1 DUP2 AND PUSH1 0x1 PUSH1 0x1 PUSH1 0xA0 SHL SUB SWAP4 DUP5 AND OR SWAP1 SWAP2 SSTORE PUSH1 0x40 DUP1 DUP6 ADD MLOAD PUSH1 0x2 DUP6 ADD DUP1 SLOAD DUP5 AND SWAP2 DUP6 AND SWAP2 SWAP1 SWAP2 OR SWAP1 SSTORE PUSH1 0x60 DUP6 ADD MLOAD PUSH1 0x3 DUP6 ADD DUP1 SLOAD SWAP1 SWAP4 AND SWAP4 AND SWAP3 SWAP1 SWAP3 OR SWAP1 SSTORE PUSH1 0x80 DUP4 ADD MLOAD PUSH1 0x4 DUP4 ADD SSTORE PUSH1 0xA0 DUP4 ADD MLOAD PUSH1 0x5 DUP4 ADD SSTORE PUSH1 0xC0 SWAP1 SWAP3 ADD MLOAD PUSH1 0x6 SWAP1 SWAP2 ADD DUP1 SLOAD PUSH1 0xFF NOT AND SWAP2 ISZERO ISZERO SWAP2 SWAP1 SWAP2 OR SWAP1 SSTORE MLOAD DUP2 SWAP1 PUSH32 0x6775A9046BBE59478DD494D50A36E41B492553C450763494B97C3DC5BD4A93C3 SWAP1 PUSH2 0x9A0 SWAP1 DUP12 SWAP1 DUP12 SWAP1 DUP9 SWAP1 PUSH2 0x119A JUMP JUMPDEST PUSH1 0x40 MLOAD DUP1 SWAP2 SUB SWAP1 LOG2 POP POP POP POP POP POP POP POP JUMP JUMPDEST PUSH1 0x40 DUP1 MLOAD PUSH1 0xE0 DUP2 ADD DUP3 MSTORE PUSH1 0x60 DUP1 DUP3 MSTORE PUSH1 0x0 PUSH1 0x20 DUP4 ADD DUP2 SWAP1 MSTORE SWAP3 DUP3 ADD DUP4 SWAP1 MSTORE DUP2 ADD DUP3 SWAP1 MSTORE PUSH1 0x80 DUP2 ADD DUP3 SWAP1 MSTORE PUSH1 0xA0 DUP2 ADD DUP3 SWAP1 MSTORE PUSH1 0xC0 DUP2 ADD SWAP2 SWAP1 SWAP2 MSTORE PUSH1 0x0 DUP3 DUP2 MSTORE PUSH1 0x1 PUSH1 0x20 MSTORE PUSH1 0x40 SWAP1 DUP2 SWAP1 KECCAK256 DUP2 MLOAD PUSH1 0xE0 DUP2 ADD SWAP1 SWAP3 MSTORE DUP1 SLOAD DUP3 SWAP1 DUP3 SWAP1 PUSH2 0xA13 SWAP1 PUSH2 0x1052 JUMP JUMPDEST DUP1 PUSH1 0x1F ADD PUSH1 0x20 DUP1 SWAP2 DIV MUL PUSH1 0x20 ADD PUSH1 0x40 MLOAD SWAP1 DUP2 ADD PUSH1 0x40 MSTORE DUP1 SWAP3 SWAP2 SWAP1 DUP2 DUP2 MSTORE PUSH1 0x20 ADD DUP3 DUP1 SLOAD PUSH2 0xA3F SWAP1 PUSH2 0x1052 JUMP JUMPDEST DUP1 ISZERO PUSH2 0xA8C JUMPI DUP1 PUSH1 0x1F LT PUSH2 0xA61 JUMPI PUSH2 0x100 DUP1 DUP4 SLOAD DIV MUL DUP4 MSTORE SWAP2 PUSH1 0x20 ADD SWAP2 PUSH2 0xA8C JUMP JUMPDEST DUP3 ADD SWAP2 SWAP1 PUSH1 0x0 MSTORE PUSH1 0x20 PUSH1 0x0 KECCAK256 SWAP1 JUMPDEST DUP2 SLOAD DUP2 MSTORE SWAP1 PUSH1 0x1 ADD SWAP1 PUSH1 0x20 ADD DUP1 DUP4 GT PUSH2 0xA6F JUMPI DUP3 SWAP1 SUB PUSH1 0x1F AND DUP3 ADD SWAP2 JUMPDEST POP POP POP SWAP2 DUP4 MSTORE POP POP PUSH1 0x1 DUP3 ADD SLOAD PUSH1 0x1 PUSH1 0x1 PUSH1 0xA0 SHL SUB SWAP1 DUP2 AND PUSH1 0x20 DUP4 ADD MSTORE PUSH1 0x2 DUP4 ADD SLOAD DUP2 AND PUSH1 0x40 DUP4 ADD MSTORE PUSH1 0x3 DUP4 ADD SLOAD AND PUSH1 0x60 DUP3 ADD MSTORE PUSH1 0x4 DUP3 ADD SLOAD PUSH1 0x80 DUP3 ADD MSTORE PUSH1 0x5 DUP3 ADD SLOAD PUSH1 0xA0 DUP3 ADD MSTORE PUSH1 0x6 SWAP1 SWAP2 ADD SLOAD PUSH1 0xFF AND ISZERO ISZERO PUSH1 0xC0 SWAP1 SWAP2 ADD MSTORE SWAP3 SWAP2 POP POP JUMP JUMPDEST PUSH1 0x1 PUSH1 0x20 MSTORE PUSH1 0x0 SWAP1 DUP2 MSTORE PUSH1 0x40 SWAP1 KECCAK256 DUP1 SLOAD DUP2 SWAP1 PUSH2 0xB06 SWAP1 PUSH2 0x1052 JUMP JUMPDEST DUP1 PUSH1 0x1F ADD PUSH1 0x20 DUP1 SWAP2 DIV MUL PUSH1 0x20 ADD PUSH1 0x40 MLOAD SWAP1 DUP2 ADD PUSH1 0x40 MSTORE DUP1 SWAP3 SWAP2 SWAP1 DUP2 DUP2 MSTORE PUSH1 0x20 ADD DUP3 DUP1 SLOAD PUSH2 0xB32 SWAP1 PUSH2 0x1052 JUMP JUMPDEST DUP1 ISZERO PUSH2 0xB7F JUMPI DUP1 PUSH1 0x1F LT PUSH2 0xB54 JUMPI PUSH2 0x100 DUP1 DUP4 SLOAD DIV MUL DUP4 MSTORE SWAP2 PUSH1 0x20 ADD SWAP2 PUSH2 0xB7F JUMP JUMPDEST DUP3 ADD SWAP2 SWAP1 PUSH1 0x0 MSTORE PUSH1 0x20 PUSH1 0x0 KECCAK256 SWAP1 JUMPDEST DUP2 SLOAD DUP2 MSTORE SWAP1 PUSH1 0x1 ADD SWAP1 PUSH1 0x20 ADD DUP1 DUP4 GT PUSH2 0xB62 JUMPI DUP3 SWAP1 SUB PUSH1 0x1F AND DUP3 ADD SWAP2 JUMPDEST POP POP POP PUSH1 0x1 DUP5 ADD SLOAD PUSH1 0x2 DUP6 ADD SLOAD PUSH1 0x3 DUP7 ADD SLOAD PUSH1 0x4 DUP8 ADD SLOAD PUSH1 0x5 DUP9 ADD SLOAD PUSH1 0x6 SWAP1 SWAP9 ADD SLOAD SWAP7 SWAP8 PUSH1 0x1 PUSH1 0x1 PUSH1 0xA0 SHL SUB SWAP5 DUP6 AND SWAP8 SWAP4 DUP6 AND SWAP7 POP SWAP2 SWAP1 SWAP4 AND SWAP4 POP SWAP1 PUSH1 0xFF AND DUP8 JUMP JUMPDEST PUSH1 0x0 DUP1 DUP1 DUP1 PUSH1 0x1 JUMPDEST PUSH1 0x3 SLOAD DUP2 LT ISZERO PUSH2 0xD14 JUMPI PUSH1 0x0 DUP2 DUP2 MSTORE PUSH1 0x1 PUSH1 0x20 MSTORE PUSH1 0x40 DUP1 DUP3 KECCAK256 DUP2 MLOAD PUSH1 0xE0 DUP2 ADD SWAP1 SWAP3 MSTORE DUP1 SLOAD DUP3 SWAP1 DUP3 SWAP1 PUSH2 0xBFA SWAP1 PUSH2 0x1052 JUMP JUMPDEST DUP1 PUSH1 0x1F ADD PUSH1 0x20 DUP1 SWAP2 DIV MUL PUSH1 0x20 ADD PUSH1 0x40 MLOAD SWAP1 DUP2 ADD PUSH1 0x40 MSTORE DUP1 SWAP3 SWAP2 SWAP1 DUP2 DUP2 MSTORE PUSH1 0x20 ADD DUP3 DUP1 SLOAD PUSH2 0xC26 SWAP1 PUSH2 0x1052 JUMP JUMPDEST DUP1 ISZERO PUSH2 0xC73 JUMPI DUP1 PUSH1 0x1F LT PUSH2 0xC48 JUMPI PUSH2 0x100 DUP1 DUP4 SLOAD DIV MUL DUP4 MSTORE SWAP2 PUSH1 0x20 ADD SWAP2 PUSH2 0xC73 JUMP JUMPDEST DUP3 ADD SWAP2 SWAP1 PUSH1 0x0 MSTORE PUSH1 0x20 PUSH1 0x0 KECCAK256 SWAP1 JUMPDEST DUP2 SLOAD DUP2 MSTORE SWAP1 PUSH1 0x1 ADD SWAP1 PUSH1 0x20 ADD DUP1 DUP4 GT PUSH2 0xC56 JUMPI DUP3 SWAP1 SUB PUSH1 0x1F AND DUP3 ADD SWAP2 JUMPDEST POP POP POP SWAP2 DUP4 MSTORE POP POP PUSH1 0x1 DUP3 ADD SLOAD PUSH1 0x1 PUSH1 0x1 PUSH1 0xA0 SHL SUB SWAP1 DUP2 AND PUSH1 0x20 DUP4 ADD MSTORE PUSH1 0x2 DUP4 ADD SLOAD DUP2 AND PUSH1 0x40 DUP4 ADD MSTORE PUSH1 0x3 DUP4 ADD SLOAD AND PUSH1 0x60 DUP3 ADD MSTORE PUSH1 0x4 DUP3 ADD SLOAD PUSH1 0x80 DUP3 ADD MSTORE PUSH1 0x5 DUP3 ADD SLOAD PUSH1 0xA0 DUP3 ADD MSTORE PUSH1 0x6 SWAP1 SWAP2 ADD SLOAD PUSH1 0xFF AND ISZERO ISZERO PUSH1 0xC0 SWAP2 DUP3 ADD MSTORE DUP2 ADD MLOAD SWAP1 SWAP2 POP DUP1 ISZERO PUSH2 0xCE2 JUMPI POP DUP1 PUSH1 0xA0 ADD MLOAD DUP9 LT ISZERO JUMPDEST DUP1 ISZERO PUSH2 0xCF1 JUMPI POP DUP4 DUP2 PUSH1 0x80 ADD MLOAD GT JUMPDEST ISZERO PUSH2 0xD01 JUMPI DUP1 PUSH1 0x80 ADD MLOAD SWAP4 POP DUP2 SWAP3 POP JUMPDEST POP DUP1 PUSH2 0xD0C DUP2 PUSH2 0x1023 JUMP JUMPDEST SWAP2 POP POP PUSH2 0xBC9 JUMP JUMPDEST POP SWAP6 SWAP1 SWAP5 POP SWAP3 POP POP POP JUMP JUMPDEST DUP1 CALLDATALOAD PUSH1 0x1 PUSH1 0x1 PUSH1 0xA0 SHL SUB DUP2 AND DUP2 EQ PUSH2 0xD36 JUMPI PUSH1 0x0 DUP1 REVERT JUMPDEST SWAP2 SWAP1 POP JUMP JUMPDEST PUSH1 0x0 DUP1 PUSH1 0x40 DUP4 DUP6 SUB SLT ISZERO PUSH2 0xD4E JUMPI PUSH1 0x0 DUP1 REVERT JUMPDEST PUSH2 0xD57 DUP4 PUSH2 0xD1F JUMP JUMPDEST SWAP5 PUSH1 0x20 SWAP4 SWAP1 SWAP4 ADD CALLDATALOAD SWAP4 POP POP POP JUMP JUMPDEST PUSH1 0x0 DUP1 PUSH1 0x40 DUP4 DUP6 SUB SLT ISZERO PUSH2 0xD78 JUMPI PUSH1 0x0 DUP1 REVERT JUMPDEST POP POP DUP1 CALLDATALOAD SWAP3 PUSH1 0x20 SWAP1 SWAP2 ADD CALLDATALOAD SWAP2 POP JUMP JUMPDEST PUSH1 0x0 DUP1 PUSH1 0x0 PUSH1 0x60 DUP5 DUP7 SUB SLT ISZERO PUSH2 0xD9C JUMPI PUSH1 0x0 DUP1 REVERT JUMPDEST DUP4 CALLDATALOAD SWAP3 POP PUSH1 0x20 DUP5 ADD CALLDATALOAD SWAP2 POP PUSH2 0xDB3 PUSH1 0x40 DUP6 ADD PUSH2 0xD1F JUMP JUMPDEST SWAP1 POP SWAP3 POP SWAP3 POP SWAP3 JUMP JUMPDEST PUSH1 0x0 PUSH1 0x20 DUP3 DUP5 SUB SLT ISZERO PUSH2 0xDCE JUMPI PUSH1 0x0 DUP1 REVERT JUMPDEST POP CALLDATALOAD SWAP2 SWAP1 POP JUMP JUMPDEST PUSH1 0x0 DUP1 PUSH1 0x0 DUP1 PUSH1 0x0 DUP1 PUSH1 0x0 PUSH1 0xC0 DUP9 DUP11 SUB SLT ISZERO PUSH2 0xDF0 JUMPI PUSH1 0x0 DUP1 REVERT JUMPDEST DUP8 CALLDATALOAD PUSH8 0xFFFFFFFFFFFFFFFF DUP1 DUP3 GT ISZERO PUSH2 0xE08 JUMPI PUSH1 0x0 DUP1 REVERT JUMPDEST DUP2 DUP11 ADD SWAP2 POP DUP11 PUSH1 0x1F DUP4 ADD SLT PUSH2 0xE1C JUMPI PUSH1 0x0 DUP1 REVERT JUMPDEST DUP2 CALLDATALOAD DUP2 DUP2 GT ISZERO PUSH2 0xE2B JUMPI PUSH1 0x0 DUP1 REVERT JUMPDEST DUP12 PUSH1 0x20 DUP3 DUP6 ADD ADD GT ISZERO PUSH2 0xE3D JUMPI PUSH1 0x0 DUP1 REVERT JUMPDEST PUSH1 0x20 SWAP3 DUP4 ADD SWAP10 POP SWAP8 POP PUSH2 0xE53 SWAP2 DUP11 ADD SWAP1 POP PUSH2 0xD1F JUMP JUMPDEST SWAP5 POP PUSH2 0xE61 PUSH1 0x40 DUP10 ADD PUSH2 0xD1F JUMP JUMPDEST SWAP4 POP PUSH2 0xE6F PUSH1 0x60 DUP10 ADD PUSH2 0xD1F JUMP JUMPDEST SWAP3 POP PUSH1 0x80 DUP9 ADD CALLDATALOAD SWAP2 POP PUSH1 0xA0 DUP9 ADD CALLDATALOAD SWAP1 POP SWAP3 SWAP6 SWAP9 SWAP2 SWAP5 SWAP8 POP SWAP3 SWAP6 POP JUMP JUMPDEST PUSH1 0x0 DUP2 MLOAD DUP1 DUP5 MSTORE PUSH1 0x0 JUMPDEST DUP2 DUP2 LT ISZERO PUSH2 0xEB1 JUMPI PUSH1 0x20 DUP2 DUP6 ADD DUP2 ADD MLOAD DUP7 DUP4 ADD DUP3 ADD MSTORE ADD PUSH2 0xE95 JUMP JUMPDEST POP PUSH1 0x0 PUSH1 0x20 DUP3 DUP7 ADD ADD MSTORE PUSH1 0x20 PUSH1 0x1F NOT PUSH1 0x1F DUP4 ADD AND DUP6 ADD ADD SWAP2 POP POP SWAP3 SWAP2 POP POP JUMP JUMPDEST PUSH1 0x20 DUP2 MSTORE PUSH1 0x0 DUP3 MLOAD PUSH1 0xE0 PUSH1 0x20 DUP5 ADD MSTORE PUSH2 0xEEE PUSH2 0x100 DUP5 ADD DUP3 PUSH2 0xE8B JUMP JUMPDEST SWAP1 POP PUSH1 0x20 DUP5 ADD MLOAD PUSH1 0x1 DUP1 PUSH1 0xA0 SHL SUB DUP1 DUP3 AND PUSH1 0x40 DUP7 ADD MSTORE DUP1 PUSH1 0x40 DUP8 ADD MLOAD AND PUSH1 0x60 DUP7 ADD MSTORE DUP1 PUSH1 0x60 DUP8 ADD MLOAD AND PUSH1 0x80 DUP7 ADD MSTORE POP POP PUSH1 0x80 DUP5 ADD MLOAD PUSH1 0xA0 DUP5 ADD MSTORE PUSH1 0xA0 DUP5 ADD MLOAD PUSH1 0xC0 DUP5 ADD MSTORE PUSH1 0xC0 DUP5 ADD MLOAD ISZERO ISZERO PUSH1 0xE0 DUP5 ADD MSTORE DUP1 SWAP2 POP POP SWAP3 SWAP2 POP POP JUMP JUMPDEST PUSH1 0xE0 DUP2 MSTORE PUSH1 0x0 PUSH2 0xF5B PUSH1 0xE0 DUP4 ADD DUP11 PUSH2 0xE8B JUMP JUMPDEST PUSH1 0x1 PUSH1 0x1 PUSH1 0xA0 SHL SUB SWAP9 DUP10 AND PUSH1 0x20 DUP5 ADD MSTORE SWAP7 DUP9 AND PUSH1 0x40 DUP4 ADD MSTORE POP SWAP4 SWAP1 SWAP6 AND PUSH1 0x60 DUP5 ADD MSTORE PUSH1 0x80 DUP4 ADD SWAP2 SWAP1 SWAP2 MSTORE PUSH1 0xA0 DUP3 ADD MSTORE SWAP2 ISZERO ISZERO PUSH1 0xC0 SWAP1 SWAP3 ADD SWAP2 SWAP1 SWAP2 MSTORE SWAP2 SWAP1 POP JUMP JUMPDEST PUSH4 0x4E487B71 PUSH1 0xE0 SHL PUSH1 0x0 MSTORE PUSH1 0x11 PUSH1 0x4 MSTORE PUSH1 0x24 PUSH1 0x0 REVERT JUMPDEST DUP2 DUP2 SUB DUP2 DUP2 GT ISZERO PUSH2 0x30F JUMPI PUSH2 0x30F PUSH2 0xF9B JUMP JUMPDEST PUSH1 0x0 PUSH1 0x20 DUP3 DUP5 SUB SLT ISZERO PUSH2 0xFD6 JUMPI PUSH1 0x0 DUP1 REVERT JUMPDEST DUP2 MLOAD DUP1 ISZERO ISZERO DUP2 EQ PUSH2 0xFE6 JUMPI PUSH1 0x0 DUP1 REVERT JUMPDEST SWAP4 SWAP3 POP POP POP JUMP JUMPDEST DUP1 DUP3 ADD DUP1 DUP3 GT ISZERO PUSH2 0x30F JUMPI PUSH2 0x30F PUSH2 0xF9B JUMP JUMPDEST PUSH1 0x20 DUP1 DUP3 MSTORE PUSH1 0x9 SWAP1 DUP3 ADD MSTORE PUSH9 0x2737BA1037BBB732B9 PUSH1 0xB9 SHL PUSH1 0x40 DUP3 ADD MSTORE PUSH1 0x60 ADD SWAP1 JUMP JUMPDEST PUSH1 0x0 PUSH1 0x1 DUP3 ADD PUSH2 0x1035 JUMPI PUSH2 0x1035 PUSH2 0xF9B JUMP JUMPDEST POP PUSH1 0x1 ADD SWAP1 JUMP JUMPDEST PUSH4 0x4E487B71 PUSH1 0xE0 SHL PUSH1 0x0 MSTORE PUSH1 0x41 PUSH1 0x4 MSTORE PUSH1 0x24 PUSH1 0x0 REVERT JUMPDEST PUSH1 0x1 DUP2 DUP2 SHR SWAP1 DUP3 AND DUP1 PUSH2 0x1066 JUMPI PUSH1 0x7F DUP3 AND SWAP2 POP JUMPDEST PUSH1 0x20 DUP3 LT DUP2 SUB PUSH2 0x1086 JUMPI PUSH4 0x4E487B71 PUSH1 0xE0 SHL PUSH1 0x0 MSTORE PUSH1 0x22 PUSH1 0x4 MSTORE PUSH1 0x24 PUSH1 0x0 REVERT JUMPDEST POP SWAP2 SWAP1 POP JUMP JUMPDEST PUSH1 0x1F DUP3 GT ISZERO PUSH2 0x80F JUMPI PUSH1 0x0 DUP2 DUP2 MSTORE PUSH1 0x20 DUP2 KECCAK256 PUSH1 0x1F DUP6 ADD PUSH1 0x5 SHR DUP2 ADD PUSH1 0x20 DUP7 LT ISZERO PUSH2 0x10B3 JUMPI POP DUP1 JUMPDEST PUSH1 0x1F DUP6 ADD PUSH1 0x5 SHR DUP3 ADD SWAP2 POP JUMPDEST DUP2 DUP2 LT ISZERO PUSH2 0x10D2 JUMPI DUP3 DUP2 SSTORE PUSH1 0x1 ADD PUSH2 0x10BF JUMP JUMPDEST POP POP POP POP POP POP JUMP JUMPDEST DUP2 MLOAD PUSH8 0xFFFFFFFFFFFFFFFF DUP2 GT ISZERO PUSH2 0x10F4 JUMPI PUSH2 0x10F4 PUSH2 0x103C JUMP JUMPDEST PUSH2 0x1108 DUP2 PUSH2 0x1102 DUP5 SLOAD PUSH2 0x1052 JUMP JUMPDEST DUP5 PUSH2 0x108C JUMP JUMPDEST PUSH1 0x20 DUP1 PUSH1 0x1F DUP4 GT PUSH1 0x1 DUP2 EQ PUSH2 0x113D JUMPI PUSH1 0x0 DUP5 ISZERO PUSH2 0x1125 JUMPI POP DUP6 DUP4 ADD MLOAD JUMPDEST PUSH1 0x0 NOT PUSH1 0x3 DUP7 SWAP1 SHL SHR NOT AND PUSH1 0x1 DUP6 SWAP1 SHL OR DUP6 SSTORE PUSH2 0x10D2 JUMP JUMPDEST PUSH1 0x0 DUP6 DUP2 MSTORE PUSH1 0x20 DUP2 KECCAK256 PUSH1 0x1F NOT DUP7 AND SWAP2 JUMPDEST DUP3 DUP2 LT ISZERO PUSH2 0x116C JUMPI DUP9 DUP7 ADD MLOAD DUP3 SSTORE SWAP5 DUP5 ADD SWAP5 PUSH1 0x1 SWAP1 SWAP2 ADD SWAP1 DUP5 ADD PUSH2 0x114D JUMP JUMPDEST POP DUP6 DUP3 LT ISZERO PUSH2 0x118A JUMPI DUP8 DUP6 ADD MLOAD PUSH1 0x0 NOT PUSH1 0x3 DUP9 SWAP1 SHL PUSH1 0xF8 AND SHR NOT AND DUP2 SSTORE JUMPDEST POP POP POP POP POP PUSH1 0x1 SWAP1 DUP2 SHL ADD SWAP1 SSTORE POP JUMP JUMPDEST PUSH1 0x40 DUP2 MSTORE DUP3 PUSH1 0x40 DUP3 ADD MSTORE DUP3 DUP5 PUSH1 0x60 DUP4 ADD CALLDATACOPY PUSH1 0x0 PUSH1 0x60 DUP5 DUP4 ADD ADD MSTORE PUSH1 0x0 PUSH1 0x60 PUSH1 0x1F NOT PUSH1 0x1F DUP7 ADD AND DUP4 ADD ADD SWAP1 POP DUP3 PUSH1 0x20 DUP4 ADD MSTORE SWAP5 SWAP4 POP POP POP POP JUMP INVALID LOG2 PUSH5 0x6970667358 0x22 SLT KECCAK256 JUMPI SWAP14 0x5E 0xD8 SWAP6 0x27 SIGNEXTEND CREATE 0xAA 0x2D PUSH21 0x305ABC4CDA495C8B9B8A5B73E4B2D11486F0F19AC1 PUSH5 0x736F6C6343 STOP ADDMOD SGT STOP CALLER "},"methodIdentifiers":{"addStrategy(string,address,address,address,uint256,uint256)":"c59aa717","emergencyWithdraw(address,uint256)":"95ccea67","executeYieldAction(uint256,uint256,address)":"7c869d13","getBestStrategy(uint256,uint256)":"d5b3d05b","getStrategy(uint256)":"cfc0cc34","getUserPosition(address,uint256)":"1c88ef1e","nextStrategyId()":"185f8447","owner()":"8da5cb5b","pauseStrategy(uint256)":"8a524fa7","strategies(uint256)":"d574ea3d","userPositions(address,uint256)":"5e1b4d99","withdraw(uint256,uint256)":"441a3e70"}}}}}