{
  "_format": "hh-sol-artifact-1",
  "contractName": "YieldFarmer",
  "sourceName": "contracts/YieldFarmer.sol",
  "abi": [
    {
      "inputs": [],
      "stateMutability": "nonpayable",
      "type": "constructor"
    },
    {
      "anonymous": false,
      "inputs": [
        {
          "indexed": true,
          "internalType": "address",
          "name": "user",
          "type": "address"
        },
        {
          "indexed": true,
          "internalType": "uint256",
          "name": "strategyId",
          "type": "uint256"
        },
        {
          "indexed": false,
          "internalType": "uint256",
          "name": "amount",
          "type": "uint256"
        }
      ],
      "name": "FundsDeposited",
      "type": "event"
    },
    {
      "anonymous": false,
      "inputs": [
        {
          "indexed": true,
          "internalType": "address",
          "name": "user",
          "type": "address"
        },
        {
          "indexed": true,
          "internalType": "uint256",
          "name": "strategyId",
          "type": "uint256"
        },
        {
          "indexed": false,
          "internalType": "uint256",
          "name": "amount",
          "type": "uint256"
        }
      ],
      "name": "FundsWithdrawn",
      "type": "event"
    },
    {
      "anonymous": false,
      "inputs": [
        {
          "indexed": true,
          "internalType": "uint256",
          "name": "strategyId",
          "type": "uint256"
        },
        {
          "indexed": false,
          "internalType": "string",
          "name": "name",
          "type": "string"
        },
        {
          "indexed": false,
          "internalType": "uint256",
          "name": "apy",
          "type": "uint256"
        }
      ],
      "name": "StrategyAdded",
      "type": "event"
    },
    {
      "inputs": [
        {
          "internalType": "string",
          "name": "name",
          "type": "string"
        },
        {
          "internalType": "address",
          "name": "stakingContract",
          "type": "address"
        },
        {
          "internalType": "address",
          "name": "rewardToken",
          "type": "address"
        },
        {
          "internalType": "address",
          "name": "lpToken",
          "type": "address"
        },
        {
          "internalType": "uint256",
          "name": "apy",
          "type": "uint256"
        },
        {
          "internalType": "uint256",
          "name": "minDeposit",
          "type": "uint256"
        }
      ],
      "name": "addStrategy",
      "outputs": [],
      "stateMutability": "nonpayable",
      "type": "function"
    },
    {
      "inputs": [
        {
          "internalType": "address",
          "name": "token",
          "type": "address"
        },
        {
          "internalType": "uint256",
          "name": "amount",
          "type": "uint256"
        }
      ],
      "name": "emergencyWithdraw",
      "outputs": [],
      "stateMutability": "nonpayable",
      "type": "function"
    },
    {
      "inputs": [
        {
          "internalType": "uint256",
          "name": "strategyId",
          "type": "uint256"
        },
        {
          "internalType": "uint256",
          "name": "amount",
          "type": "uint256"
        },
        {
          "internalType": "address",
          "name": "user",
          "type": "address"
        }
      ],
      "name": "executeYieldAction",
      "outputs": [
        {
          "internalType": "bool",
          "name": "",
          "type": "bool"
        }
      ],
      "stateMutability": "nonpayable",
      "type": "function"
    },
    {
      "inputs": [
        {
          "internalType": "uint256",
          "name": "amount",
          "type": "uint256"
        },
        {
          "internalType": "uint256",
          "name": "",
          "type": "uint256"
        }
      ],
      "name": "getBestStrategy",
      "outputs": [
        {
          "internalType": "uint256",
          "name": "strategyId",
          "type": "uint256"
        },
        {
          "internalType": "uint256",
          "name": "expectedAPY",
          "type": "uint256"
        }
      ],
      "stateMutability": "view",
      "type": "function"
    },
    {
      "inputs": [
        {
          "internalType": "uint256",
          "name": "strategyId",
          "type": "uint256"
        }
      ],
      "name": "getStrategy",
      "outputs": [
        {
          "components": [
            {
              "internalType": "string",
              "name": "name",
              "type": "string"
            },
            {
              "internalType": "address",
              "name": "stakingContract",
              "type": "address"
            },
            {
              "internalType": "address",
              "name": "rewardToken",
              "type": "address"
            },
            {
              "internalType": "address",
              "name": "lpToken",
              "type": "address"
            },
            {
              "internalType": "uint256",
              "name": "apy",
              "type": "uint256"
            },
            {
              "internalType": "uint256",
              "name": "minDeposit",
              "type": "uint256"
            },
            {
              "internalType": "bool",
              "name": "isActive",
              "type": "bool"
            }
          ],
          "internalType": "struct YieldFarmer.YieldStrategy",
          "name": "",
          "type": "tuple"
        }
      ],
      "stateMutability": "view",
      "type": "function"
    },
    {
      "inputs": [
        {
          "internalType": "address",
          "name": "user",
          "type": "address"
        },
        {
          "internalType": "uint256",
          "name": "strategyId",
          "type": "uint256"
        }
      ],
      "name": "getUserPosition",
      "outputs": [
        {
          "components": [
            {
              "internalType": "uint256",
              "name": "strategyId",
              "type": "uint256"
            },
            {
              "internalType": "uint256",
              "name": "stakedAmount",
              "type": "uint256"
            },
            {
              "internalType": "uint256",
              "name": "depositTimestamp",
              "type": "uint256"
            },
            {
              "internalType": "bool",
              "name": "isActive",
              "type": "bool"
            }
          ],
          "internalType": "struct YieldFarmer.UserPosition",
          "name": "",
          "type": "tuple"
        }
      ],
      "stateMutability": "view",
      "type": "function"
    },
    {
      "inputs": [],
      "name": "nextStrategyId",
      "outputs": [
        {
          "internalType": "uint256",
          "name": "",
          "type": "uint256"
        }
      ],
      "stateMutability": "view",
      "type": "function"
    },
    {
      "inputs": [],
      "name": "owner",
      "outputs": [
        {
          "internalType": "address",
          "name": "",
          "type": "address"
        }
      ],
      "stateMutability": "view",
      "type": "function"
    },
    {
      "inputs": [
        {
          "internalType": "uint256",
          "name": "strategyId",
          "type": "uint256"
        }
      ],
      "name": "pauseStrategy",
      "outputs": [],
      "stateMutability": "nonpayable",
      "type": "function"
    },
    {
      "inputs": [
        {
          "internalType": "uint256",
          "name": "",
          "type": "uint256"
        }
      ],
      "name": "strategies",
      "outputs": [
        {
          "internalType": "string",
          "name": "name",
          "type": "string"
        },
        {
          "internalType": "address",
          "name": "stakingContract",
          "type": "address"
        },
        {
          "internalType": "address",
          "name": "rewardToken",
          "type": "address"
        },
        {
          "internalType": "address",
          "name": "lpToken",
          "type": "address"
        },
        {
          "internalType": "uint256",
          "name": "apy",
          "type": "uint256"
        },
        {
          "internalType": "uint256",
          "name": "minDeposit",
          "type": "uint256"
        },
        {
          "internalType": "bool",
          "name": "isActive",
          "type": "bool"
        }
      ],
      "stateMutability": "view",
      "type": "function"
    },
    {
      "inputs": [
        {
          "internalType": "address",
          "name": "",
          "type": "address"
        },
        {
          "internalType": "uint256",
          "name": "",
          "type": "uint256"
        }
      ],
      "name": "userPositions",
      "outputs": [
        {
          "internalType": "uint256",
          "name": "strategyId",
          "type": "uint256"
        },
        {
          "internalType": "uint256",
          "name": "stakedAmount",
          "type": "uint256"
        },
        {
          "internalType": "uint256",
          "name": "depositTimestamp",
          "type": "uint256"
        },
        {
          "internalType": "bool",
          "name": "isActive",
          "type": "bool"
        }
      ],
      "stateMutability": "view",
      "type": "function"
    },
    {
      "inputs": [
        {
          "internalType": "uint256",
          "name": "strategyId",
          "type": "uint256"
        },
        {
          "internalType": "uint256",
          "name": "amount",
          "type": "uint256"
        }
      ],
      "name": "withdraw",
      "outputs": [],
      "stateMutability": "nonpayable",
      "type": "function"
    }
  ],
  "bytecode": "0x608060405260016003553480156200001657600080fd5b50600080546001600160a01b031916331790556200003362000039565b62000406565b6040805161012081018252601060e082019081526f041676e69204d4e542d55534443204c560841b610100830152815260006020808301829052828401829052606083018290526104b0608084015268056bc75e2d6310000060a084015260c083018290526003548252600190529190912081518190620000bb908262000312565b5060208201516001820180546001600160a01b03199081166001600160a01b039384161790915560408401516002840180548316918416919091179055606084015160038085018054909316919093161790556080830151600483015560a0830151600583015560c0909201516006909101805460ff191691151591909117905580549060006200014c83620003de565b90915550506040805161012081018252601260e08201908152714c656e646c65204d4e54204c656e64696e6760701b610100830152815260006020808301829052828401829052606083018290526103206080840152683635c9adc5dea0000060a084015260c083018290526003548252600190529190912081518190620001d5908262000312565b5060208201516001820180546001600160a01b03199081166001600160a01b039384161790915560408401516002840180548316918416919091179055606084015160038085018054909316919093161790556080830151600483015560a0830151600583015560c0909201516006909101805460ff191691151591909117905580549060006200026683620003de565b9190505550565b634e487b7160e01b600052604160045260246000fd5b600181811c908216806200029857607f821691505b602082108103620002b957634e487b7160e01b600052602260045260246000fd5b50919050565b601f8211156200030d57600081815260208120601f850160051c81016020861015620002e85750805b601f850160051c820191505b818110156200030957828155600101620002f4565b5050505b505050565b81516001600160401b038111156200032e576200032e6200026d565b62000346816200033f845462000283565b84620002bf565b602080601f8311600181146200037e5760008415620003655750858301515b600019600386901b1c1916600185901b17855562000309565b600085815260208120601f198616915b82811015620003af578886015182559484019460019091019084016200038e565b5085821015620003ce5787850151600019600388901b60f8161c191681555b5050505050600190811b01905550565b600060018201620003ff57634e487b7160e01b600052601160045260246000fd5b5060010190565b61120980620004166000396000f3fe608060405234801561001057600080fd5b50600436106100b45760003560e01c80638da5cb5b116100715780638da5cb5b146101cc57806395ccea67146101f7578063c59aa7171461020a578063cfc0cc341461021d578063d574ea3d1461023d578063d5b3d05b1461026357600080fd5b8063185f8447146100b95780631c88ef1e146100d5578063441a3e701461011d5780635e1b4d99146101325780637c869d13146101965780638a524fa7146101b9575b600080fd5b6100c260035481565b6040519081526020015b60405180910390f35b6100e86100e3366004610d3b565b61028b565b6040516100cc919081518152602080830151908201526040808301519082015260609182015115159181019190915260800190565b61013061012b366004610d65565b610315565b005b610174610140366004610d3b565b6002602081815260009384526040808520909152918352912080546001820154928201546003909201549092919060ff1684565b60408051948552602085019390935291830152151560608201526080016100cc565b6101a96101a4366004610d87565b6104c7565b60405190151581526020016100cc565b6101306101c7366004610dbc565b610729565b6000546101df906001600160a01b031681565b6040516001600160a01b0390911681526020016100cc565b610130610205366004610d3b565b61076e565b610130610218366004610dd5565b610814565b61023061022b366004610dbc565b6109b2565b6040516100cc9190610ed1565b61025061024b366004610dbc565b610aeb565b6040516100cc9796959493929190610f48565b610276610271366004610d65565b610bc1565b604080519283526020830191909152016100cc565b6102b860405180608001604052806000815260200160008152602001600081526020016000151581525090565b506001600160a01b038216600090815260026020818152604080842085855282529283902083516080810185528154815260018201549281019290925291820154928101929092526003015460ff16151560608201525b92915050565b3360009081526002602090815260408083208584529091529020600381015460ff1661037d5760405162461bcd60e51b815260206004820152601260248201527127379030b1ba34bb32903837b9b4ba34b7b760711b60448201526064015b60405180910390fd5b80600101548211156103d15760405162461bcd60e51b815260206004820152601a60248201527f496e73756666696369656e74207374616b656420616d6f756e740000000000006044820152606401610374565b818160010160008282546103e59190610fb1565b909155505060018101546000036104035760038101805460ff191690555b600083815260016020526040908190206003810154915163a9059cbb60e01b81523360048201526024810185905290916001600160a01b03169063a9059cbb906044016020604051808303816000875af1158015610465573d6000803e3d6000fd5b505050506040513d601f19601f820116820180604052508101906104899190610fc4565b50604051838152849033907ffbc3a599b784fe88772fc5abcc07223f64ca0b13acc341f4fb1e46bef0510eb49060200160405180910390a350505050565b6000838152600160205260408120600681015460ff1661051f5760405162461bcd60e51b81526020600482015260136024820152725374726174656779206e6f742061637469766560681b6044820152606401610374565b806005015484101561056b5760405162461bcd60e51b815260206004820152601560248201527410995b1bddc81b5a5b9a5b5d5b4819195c1bdcda5d605a1b6044820152606401610374565b60038101546040516323b872dd60e01b81526001600160a01b03858116600483015230602483015260448201879052909116906323b872dd906064016020604051808303816000875af11580156105c6573d6000803e3d6000fd5b505050506040513d601f19601f820116820180604052508101906105ea9190610fc4565b506001600160a01b03831660009081526002602090815260408083208884529091529020600381015460ff161561063a578481600101600082825461062f9190610fed565b9091555061065b9050565b858155600180820186905542600283015560038201805460ff191690911790555b6003820154600183015460405163095ea7b360e01b81526001600160a01b0391821660048201526024810188905291169063095ea7b3906044016020604051808303816000875af11580156106b4573d6000803e3d6000fd5b505050506040513d601f19601f820116820180604052508101906106d89190610fc4565b5085846001600160a01b03167fbee4fe3675934fca827426c793623996a3079255089bda3a717019ffc5db27658760405161071591815260200190565b60405180910390a350600195945050505050565b6000546001600160a01b031633146107535760405162461bcd60e51b815260040161037490611000565b6000908152600160205260409020600601805460ff19169055565b6000546001600160a01b031633146107985760405162461bcd60e51b815260040161037490611000565b60005460405163a9059cbb60e01b81526001600160a01b039182166004820152602481018390529083169063a9059cbb906044016020604051808303816000875af11580156107eb573d6000803e3d6000fd5b505050506040513d601f19601f8201168201806040525081019061080f9190610fc4565b505050565b6000546001600160a01b0316331461083e5760405162461bcd60e51b815260040161037490611000565b600380546000918261084f83611023565b90915550604080516101006020601f8c01819004028201810190925260e081018a81529293509182918b908b908190850183828082843760009201829052509385525050506001600160a01b03808a1660208085019190915289821660408086019190915291891660608501526080840188905260a08401879052600160c09094018490528583529290925220815181906108ea90826110da565b5060208201516001820180546001600160a01b03199081166001600160a01b03938416179091556040808501516002850180548416918516919091179055606085015160038501805490931693169290921790556080830151600483015560a0830151600583015560c0909201516006909101805460ff19169115159190911790555181907f6775a9046bbe59478dd494d50a36e41b492553c450763494b97c3dc5bd4a93c3906109a0908b908b90889061119a565b60405180910390a25050505050505050565b6040805160e081018252606080825260006020830181905292820183905281018290526080810182905260a0810182905260c081019190915260008281526001602052604090819020815160e08101909252805482908290610a1390611052565b80601f0160208091040260200160405190810160405280929190818152602001828054610a3f90611052565b8015610a8c5780601f10610a6157610100808354040283529160200191610a8c565b820191906000526020600020905b815481529060010190602001808311610a6f57829003601f168201915b505050918352505060018201546001600160a01b039081166020830152600283015481166040830152600383015416606082015260048201546080820152600582015460a082015260069091015460ff16151560c09091015292915050565b600160205260009081526040902080548190610b0690611052565b80601f0160208091040260200160405190810160405280929190818152602001828054610b3290611052565b8015610b7f5780601f10610b5457610100808354040283529160200191610b7f565b820191906000526020600020905b815481529060010190602001808311610b6257829003601f168201915b5050506001840154600285015460038601546004870154600588015460069098015496976001600160a01b039485169793851696509190931693509060ff1687565b600080808060015b600354811015610d1457600081815260016020526040808220815160e08101909252805482908290610bfa90611052565b80601f0160208091040260200160405190810160405280929190818152602001828054610c2690611052565b8015610c735780601f10610c4857610100808354040283529160200191610c73565b820191906000526020600020905b815481529060010190602001808311610c5657829003601f168201915b505050918352505060018201546001600160a01b039081166020830152600283015481166040830152600383015416606082015260048201546080820152600582015460a082015260069091015460ff16151560c0918201528101519091508015610ce257508060a001518810155b8015610cf15750838160800151115b15610d0157806080015193508192505b5080610d0c81611023565b915050610bc9565b509590945092505050565b80356001600160a01b0381168114610d3657600080fd5b919050565b60008060408385031215610d4e57600080fd5b610d5783610d1f565b946020939093013593505050565b60008060408385031215610d7857600080fd5b50508035926020909101359150565b600080600060608486031215610d9c57600080fd5b8335925060208401359150610db360408501610d1f565b90509250925092565b600060208284031215610dce57600080fd5b5035919050565b600080600080600080600060c0888a031215610df057600080fd5b873567ffffffffffffffff80821115610e0857600080fd5b818a0191508a601f830112610e1c57600080fd5b813581811115610e2b57600080fd5b8b6020828501011115610e3d57600080fd5b602092830199509750610e53918a019050610d1f565b9450610e6160408901610d1f565b9350610e6f60608901610d1f565b92506080880135915060a0880135905092959891949750929550565b6000815180845260005b81811015610eb157602081850181015186830182015201610e95565b506000602082860101526020601f19601f83011685010191505092915050565b602081526000825160e06020840152610eee610100840182610e8b565b9050602084015160018060a01b0380821660408601528060408701511660608601528060608701511660808601525050608084015160a084015260a084015160c084015260c0840151151560e08401528091505092915050565b60e081526000610f5b60e083018a610e8b565b6001600160a01b039889166020840152968816604083015250939095166060840152608083019190915260a082015291151560c090920191909152919050565b634e487b7160e01b600052601160045260246000fd5b8181038181111561030f5761030f610f9b565b600060208284031215610fd657600080fd5b81518015158114610fe657600080fd5b9392505050565b8082018082111561030f5761030f610f9b565b6020808252600990820152682737ba1037bbb732b960b91b604082015260600190565b60006001820161103557611035610f9b565b5060010190565b634e487b7160e01b600052604160045260246000fd5b600181811c9082168061106657607f821691505b60208210810361108657634e487b7160e01b600052602260045260246000fd5b50919050565b601f82111561080f57600081815260208120601f850160051c810160208610156110b35750805b601f850160051c820191505b818110156110d2578281556001016110bf565b505050505050565b815167ffffffffffffffff8111156110f4576110f461103c565b611108816111028454611052565b8461108c565b602080601f83116001811461113d57600084156111255750858301515b600019600386901b1c1916600185901b1785556110d2565b600085815260208120601f198616915b8281101561116c5788860151825594840194600190910190840161114d565b508582101561118a5787850151600019600388901b60f8161c191681555b5050505050600190811b01905550565b604081528260408201528284606083013760006060848301015260006060601f19601f860116830101905082602083015294935050505056fea2646970667358221220579d5ed895270bf0aa2d74305abc4cda495c8b9b8a5b73e4b2d11486f0f19ac164736f6c63430008130033",
  "linkReferences": {},
  "deployedLinkReferences": {}
}