{
  "_format": "hh-sol-artifact-1",
  "contractName": "MNTTransferExecutor",
  "sourceName": "contracts/MNTTransferExecutor.sol",
  "abi": [
    {
      "inputs": [],
      "stateMutability": "nonpayable",
      "type": "constructor"
    },
    {
      "anonymous": false,
      "inputs": [
        {
          "indexed": true,
          "internalType": "address",
          "name": "caller",
          "type": "address"
        },
        {
          "indexed": false,
          "internalType": "bool",
          "name": "authorized",
          "type": "bool"
        }
      ],
      "name": "AuthorizedCallerUpdated",
      "type": "event"
    },
    {
      "anonymous": false,
      "inputs": [
        {
          "indexed": true,
          "internalType": "address",
          "name": "from",
          "type": "address"
        },
        {
          "indexed": true,
          "internalType": "address",
          "name": "to",
          "type": "address"
        },
        {
          "indexed": false,
          "internalType": "uint256",
          "name": "amount",
          "type": "uint256"
        },
        {
          "indexed": true,
          "internalType": "bytes32",
          "name": "actionId",
          "type": "bytes32"
        },
        {
          "indexed": false,
          "internalType": "uint256",
          "name": "gasUsed",
          "type": "uint256"
        }
      ],
      "name": "MNTTransferred",
      "type": "event"
    },
    {
      "anonymous": false,
      "inputs": [
        {
          "indexed": true,
          "internalType": "address",
          "name": "previousOwner",
          "type": "address"
        },
        {
          "indexed": true,
          "internalType": "address",
          "name": "newOwner",
          "type": "address"
        }
      ],
      "name": "OwnershipTransferred",
      "type": "event"
    },
    {
      "anonymous": false,
      "inputs": [
        {
          "indexed": false,
          "internalType": "uint256",
          "name": "maxPerTransaction",
          "type": "uint256"
        },
        {
          "indexed": false,
          "internalType": "uint256",
          "name": "maxPerDay",
          "type": "uint256"
        },
        {
          "indexed": false,
          "internalType": "uint256",
          "name": "maxPerUser",
          "type": "uint256"
        }
      ],
      "name": "TransferLimitsUpdated",
      "type": "event"
    },
    {
      "inputs": [
        {
          "internalType": "address",
          "name": "",
          "type": "address"
        }
      ],
      "name": "authorizedCallers",
      "outputs": [
        {
          "internalType": "bool",
          "name": "",
          "type": "bool"
        }
      ],
      "stateMutability": "view",
      "type": "function"
    },
    {
      "inputs": [
        {
          "internalType": "address[]",
          "name": "_recipients",
          "type": "address[]"
        },
        {
          "internalType": "uint256[]",
          "name": "_amounts",
          "type": "uint256[]"
        },
        {
          "internalType": "bytes32",
          "name": "_actionId",
          "type": "bytes32"
        }
      ],
      "name": "batchTransfer",
      "outputs": [],
      "stateMutability": "payable",
      "type": "function"
    },
    {
      "inputs": [],
      "name": "emergencyWithdraw",
      "outputs": [],
      "stateMutability": "nonpayable",
      "type": "function"
    },
    {
      "inputs": [],
      "name": "getContractStats",
      "outputs": [
        {
          "internalType": "uint256",
          "name": "_totalTransferred",
          "type": "uint256"
        },
        {
          "internalType": "uint256",
          "name": "_totalTransactions",
          "type": "uint256"
        },
        {
          "internalType": "uint256",
          "name": "_contractBalance",
          "type": "uint256"
        }
      ],
      "stateMutability": "view",
      "type": "function"
    },
    {
      "inputs": [
        {
          "internalType": "address",
          "name": "_user",
          "type": "address"
        },
        {
          "internalType": "uint256",
          "name": "_amount",
          "type": "uint256"
        }
      ],
      "name": "getTransferQuote",
      "outputs": [
        {
          "internalType": "bool",
          "name": "canTransfer",
          "type": "bool"
        },
        {
          "internalType": "uint256",
          "name": "gasEstimate",
          "type": "uint256"
        },
        {
          "internalType": "uint256",
          "name": "remainingDaily",
          "type": "uint256"
        },
        {
          "internalType": "uint256",
          "name": "remainingTotal",
          "type": "uint256"
        }
      ],
      "stateMutability": "view",
      "type": "function"
    },
    {
      "inputs": [
        {
          "internalType": "address",
          "name": "_user",
          "type": "address"
        }
      ],
      "name": "getUserTransferInfo",
      "outputs": [
        {
          "components": [
            {
              "internalType": "uint256",
              "name": "totalTransferred",
              "type": "uint256"
            },
            {
              "internalType": "uint256",
              "name": "dailyTransferred",
              "type": "uint256"
            },
            {
              "internalType": "uint256",
              "name": "lastTransferDay",
              "type": "uint256"
            },
            {
              "internalType": "uint256",
              "name": "transactionCount",
              "type": "uint256"
            }
          ],
          "internalType": "struct MNTTransferExecutor.UserTransferInfo",
          "name": "info",
          "type": "tuple"
        }
      ],
      "stateMutability": "view",
      "type": "function"
    },
    {
      "inputs": [],
      "name": "limits",
      "outputs": [
        {
          "internalType": "uint256",
          "name": "maxPerTransaction",
          "type": "uint256"
        },
        {
          "internalType": "uint256",
          "name": "maxPerDay",
          "type": "uint256"
        },
        {
          "internalType": "uint256",
          "name": "maxPerUser",
          "type": "uint256"
        }
      ],
      "stateMutability": "view",
      "type": "function"
    },
    {
      "inputs": [],
      "name": "owner",
      "outputs": [
        {
          "internalType": "address",
          "name": "",
          "type": "address"
        }
      ],
      "stateMutability": "view",
      "type": "function"
    },
    {
      "inputs": [],
      "name": "renounceOwnership",
      "outputs": [],
      "stateMutability": "nonpayable",
      "type": "function"
    },
    {
      "inputs": [
        {
          "internalType": "address",
          "name": "_caller",
          "type": "address"
        },
        {
          "internalType": "bool",
          "name": "_authorized",
          "type": "bool"
        }
      ],
      "name": "setAuthorizedCaller",
      "outputs": [],
      "stateMutability": "nonpayable",
      "type": "function"
    },
    {
      "inputs": [],
      "name": "totalTransactions",
      "outputs": [
        {
          "internalType": "uint256",
          "name": "",
          "type": "uint256"
        }
      ],
      "stateMutability": "view",
      "type": "function"
    },
    {
      "inputs": [],
      "name": "totalTransferred",
      "outputs": [
        {
          "internalType": "uint256",
          "name": "",
          "type": "uint256"
        }
      ],
      "stateMutability": "view",
      "type": "function"
    },
    {
      "inputs": [
        {
          "internalType": "address",
          "name": "_to",
          "type": "address"
        },
        {
          "internalType": "uint256",
          "name": "_amount",
          "type": "uint256"
        },
        {
          "internalType": "bytes32",
          "name": "_actionId",
          "type": "bytes32"
        }
      ],
      "name": "transfer",
      "outputs": [],
      "stateMutability": "payable",
      "type": "function"
    },
    {
      "inputs": [
        {
          "internalType": "address",
          "name": "newOwner",
          "type": "address"
        }
      ],
      "name": "transferOwnership",
      "outputs": [],
      "stateMutability": "nonpayable",
      "type": "function"
    },
    {
      "inputs": [
        {
          "internalType": "uint256",
          "name": "_maxPerTransaction",
          "type": "uint256"
        },
        {
          "internalType": "uint256",
          "name": "_maxPerDay",
          "type": "uint256"
        },
        {
          "internalType": "uint256",
          "name": "_maxPerUser",
          "type": "uint256"
        }
      ],
      "name": "updateTransferLimits",
      "outputs": [],
      "stateMutability": "nonpayable",
      "type": "function"
    },
    {
      "inputs": [
        {
          "internalType": "address",
          "name": "",
          "type": "address"
        }
      ],
      "name": "userTransfers",
      "outputs": [
        {
          "internalType": "uint256",
          "name": "totalTransferred",
          "type": "uint256"
        },
        {
          "internalType": "uint256",
          "name": "dailyTransferred",
          "type": "uint256"
        },
        {
          "internalType": "uint256",
          "name": "lastTransferDay",
          "type": "uint256"
        },
        {
          "internalType": "uint256",
          "name": "transactionCount",
          "type": "uint256"
        }
      ],
      "stateMutability": "view",
      "type": "function"
    },
    {
      "stateMutability": "payable",
      "type": "receive"
    }
  ],
  "bytecode": "0x608060405234801561001057600080fd5b5061001a3361006b565b600180556040805160608101825269021e19e0c9bab2400000808252690a968163f0a57b4000006020830181905269152d02c7e14af6800000929093018290526002556003919091556004556100bb565b600080546001600160a01b038381166001600160a01b0319831681178455604051919092169283917f8be0079c531659141344cd1fd0a4f28419497f9722a3daafe3b4186f6b6457e09190a35050565b61141d806100ca6000396000f3fe6080604052600436106100f75760003560e01c8063860aefcf1161008a578063b9a6003811610059578063b9a6003814610346578063db2e21bc1461035c578063dfe6b5d614610371578063f2fde38b1461038a57600080fd5b8063860aefcf1461025e5780638da5cb5b146102985780639b087b2d146102c0578063b3737085146102e457600080fd5b8063536fff6c116100c6578063536fff6c146101e357806357cfeeee14610223578063715018a61461023657806385e56be61461024b57600080fd5b8063136b4e85146101035780631bfade6114610125578063418f01be14610181578063454bbd29146101c357600080fd5b366100fe57005b600080fd5b34801561010f57600080fd5b5061012361011e366004611191565b6103aa565b005b34801561013157600080fd5b506101456101403660046111d9565b6104fe565b60405161017891908151815260208083015190820152604080830151908201526060918201519181019190915260800190565b60405180910390f35b34801561018d57600080fd5b506101a161019c3660046111fb565b610577565b6040805194151585526020850193909352918301526060820152608001610178565b3480156101cf57600080fd5b506101236101de366004611225565b610672565b3480156101ef57600080fd5b506102136101fe3660046111d9565b60066020526000908152604090205460ff1681565b6040519015158152602001610178565b610123610231366004611261565b6106d9565b34801561024257600080fd5b506101236109d4565b6101236102593660046112e0565b6109e8565b34801561026a57600080fd5b5060025460035460045461027d92919083565b60408051938452602084019290925290820152606001610178565b3480156102a457600080fd5b506000546040516001600160a01b039091168152602001610178565b3480156102cc57600080fd5b506102d660075481565b604051908152602001610178565b3480156102f057600080fd5b506103266102ff3660046111d9565b60056020526000908152604090208054600182015460028301546003909301549192909184565b604080519485526020850193909352918301526060820152608001610178565b34801561035257600080fd5b506102d660085481565b34801561036857600080fd5b50610123610e1a565b34801561037d57600080fd5b506007546008544761027d565b34801561039657600080fd5b506101236103a53660046111d9565b610e5f565b6103b2610ed5565b600083116104075760405162461bcd60e51b815260206004820152601960248201527f496e76616c6964207472616e73616374696f6e206c696d69740000000000000060448201526064015b60405180910390fd5b8282101561044d5760405162461bcd60e51b81526020600482015260136024820152724461696c79206c696d697420746f6f206c6f7760681b60448201526064016103fe565b818110156104925760405162461bcd60e51b815260206004820152601260248201527155736572206c696d697420746f6f206c6f7760701b60448201526064016103fe565b6040805160608082018352858252602080830186905291830184905260028690556003859055600484905582518681529182018590529181018390527f9bdc8bbfb98795abd31b4e10d43f19a0d470000833b64d401e10ac4b589ad763910160405180910390a1505050565b6105296040518060800160405280600081526020016000815260200160008152602001600081525090565b506001600160a01b0316600090815260056020908152604091829020825160808101845281548152600182015492810192909252600281015492820192909252600390910154606082015290565b6001600160a01b0382166000908152600560209081526040808320815160808101835281548152600182015493810193909352600281015491830191909152600301546060820152819081908190816105d3620151804261136a565b8251600454919250106105e75760006105f6565b81516004546105f6919061138c565b92508082604001510361063057602082015160035411610617576000610629565b6020820151600354610629919061138c565b9350610636565b60035493505b60008711801561064857506002548711155b80156106545750838711155b80156106605750828711155b95506161a89450505092959194509250565b61067a610ed5565b6001600160a01b038216600081815260066020908152604091829020805460ff191685151590811790915591519182527fad857fa38c9319cb80848f1ef2f924383b90297eb5d71755738ff037d100faa1910160405180910390a25050565b6106e1610f2f565b3360009081526006602052604090205460ff168061070957506000546001600160a01b031633145b61074d5760405162461bcd60e51b81526020600482015260156024820152742737ba1030baba3437b934bd32b21031b0b63632b960591b60448201526064016103fe565b82826001600160a01b0382166107995760405162461bcd60e51b8152602060048201526011602482015270125b9d985b1a59081c9958da5c1a595b9d607a1b60448201526064016103fe565b306001600160a01b038316036107f15760405162461bcd60e51b815260206004820152601760248201527f43616e6e6f74207472616e7366657220746f2073656c6600000000000000000060448201526064016103fe565b600081116108415760405162461bcd60e51b815260206004820152601760248201527f416d6f756e74206d75737420626520706f73697469766500000000000000000060448201526064016103fe565b60025481111561088f5760405162461bcd60e51b8152602060048201526019602482015278115e18d959591cc81d1c985b9cd858dd1a5bdb881b1a5b5a5d603a1b60448201526064016103fe565b60005a905061089e3286610f88565b6108a832866110ae565b6000866001600160a01b03168660405160006040518083038185875af1925050503d80600081146108f5576040519150601f19603f3d011682016040523d82523d6000602084013e6108fa565b606091505b505090508061093d5760405162461bcd60e51b815260206004820152600f60248201526e151c985b9cd9995c8819985a5b1959608a1b60448201526064016103fe565b856007600082825461094f91906113a5565b909155505060088054906000610964836113b8565b919050555060005a610976908461138c565b604080518981526020810183905291925087916001600160a01b038b169132917fd60d7ec37b78a646022adf3d71d2000baf697bf284a4f51b2bf30d3adaaf609c910160405180910390a450505050506109cf60018055565b505050565b6109dc610ed5565b6109e66000611141565b565b6109f0610f2f565b3360009081526006602052604090205460ff1680610a1857506000546001600160a01b031633145b610a5c5760405162461bcd60e51b81526020600482015260156024820152742737ba1030baba3437b934bd32b21031b0b63632b960591b60448201526064016103fe565b838214610aa45760405162461bcd60e51b8152602060048201526016602482015275082e4e4c2f2e640d8cadccee8d040dad2e6dac2e8c6d60531b60448201526064016103fe565b600a841115610aeb5760405162461bcd60e51b8152602060048201526013602482015272546f6f206d616e7920726563697069656e747360681b60448201526064016103fe565b6000805b85811015610bfb576000878783818110610b0b57610b0b6113d1565b9050602002016020810190610b2091906111d9565b6001600160a01b031603610b6a5760405162461bcd60e51b8152602060048201526011602482015270125b9d985b1a59081c9958da5c1a595b9d607a1b60448201526064016103fe565b6000858583818110610b7e57610b7e6113d1565b9050602002013511610bc35760405162461bcd60e51b815260206004820152600e60248201526d125b9d985b1a5908185b5bdd5b9d60921b60448201526064016103fe565b848482818110610bd557610bd56113d1565b9050602002013582610be791906113a5565b915080610bf3816113b8565b915050610aef565b50600254811115610c4a5760405162461bcd60e51b8152602060048201526019602482015278115e18d959591cc81d1c985b9cd858dd1a5bdb881b1a5b5a5d603a1b60448201526064016103fe565b610c543282610f88565b60005b85811015610dd2576000878783818110610c7357610c736113d1565b9050602002016020810190610c8891906111d9565b6001600160a01b0316868684818110610ca357610ca36113d1565b9050602002013560405160006040518083038185875af1925050503d8060008114610cea576040519150601f19603f3d011682016040523d82523d6000602084013e610cef565b606091505b5050905080610d325760405162461bcd60e51b815260206004820152600f60248201526e151c985b9cd9995c8819985a5b1959608a1b60448201526064016103fe565b83888884818110610d4557610d456113d1565b9050602002016020810190610d5a91906111d9565b6001600160a01b0316327fd60d7ec37b78a646022adf3d71d2000baf697bf284a4f51b2bf30d3adaaf609c898987818110610d9757610d976113d1565b905060200201356000604051610db7929190918252602082015260400190565b60405180910390a45080610dca816113b8565b915050610c57565b50610ddd32826110ae565b8060076000828254610def91906113a5565b909155505060088054906000610e04836113b8565b919050555050610e1360018055565b5050505050565b610e22610ed5565b600080546040516001600160a01b03909116914780156108fc02929091818181858888f19350505050158015610e5c573d6000803e3d6000fd5b50565b610e67610ed5565b6001600160a01b038116610ecc5760405162461bcd60e51b815260206004820152602660248201527f4f776e61626c653a206e6577206f776e657220697320746865207a65726f206160448201526564647265737360d01b60648201526084016103fe565b610e5c81611141565b6000546001600160a01b031633146109e65760405162461bcd60e51b815260206004820181905260248201527f4f776e61626c653a2063616c6c6572206973206e6f7420746865206f776e657260448201526064016103fe565b600260015403610f815760405162461bcd60e51b815260206004820152601f60248201527f5265656e7472616e637947756172643a207265656e7472616e742063616c6c0060448201526064016103fe565b6002600155565b6001600160a01b0382166000908152600560209081526040918290208251608081018452815480825260018301549382019390935260028201549381019390935260030154606083015260045490610fe19084906113a5565b111561102f5760405162461bcd60e51b815260206004820152601860248201527f45786365656473207573657220746f74616c206c696d6974000000000000000060448201526064016103fe565b600061103e620151804261136a565b90506000818360400151146110535783611063565b83836020015161106391906113a5565b600354909150811115610e135760405162461bcd60e51b8152602060048201526013602482015272115e18d959591cc819185a5b1e481b1a5b5a5d606a1b60448201526064016103fe565b6001600160a01b0382166000908152600560205260408120906110d4620151804261136a565b9050808260020154146110f05760006001830155600282018190555b8282600001600082825461110491906113a5565b925050819055508282600101600082825461111f91906113a5565b9091555050600382018054906000611136836113b8565b919050555050505050565b600080546001600160a01b038381166001600160a01b0319831681178455604051919092169283917f8be0079c531659141344cd1fd0a4f28419497f9722a3daafe3b4186f6b6457e09190a35050565b6000806000606084860312156111a657600080fd5b505081359360208301359350604090920135919050565b80356001600160a01b03811681146111d457600080fd5b919050565b6000602082840312156111eb57600080fd5b6111f4826111bd565b9392505050565b6000806040838503121561120e57600080fd5b611217836111bd565b946020939093013593505050565b6000806040838503121561123857600080fd5b611241836111bd565b91506020830135801515811461125657600080fd5b809150509250929050565b60008060006060848603121561127657600080fd5b61127f846111bd565b95602085013595506040909401359392505050565b60008083601f8401126112a657600080fd5b50813567ffffffffffffffff8111156112be57600080fd5b6020830191508360208260051b85010111156112d957600080fd5b9250929050565b6000806000806000606086880312156112f857600080fd5b853567ffffffffffffffff8082111561131057600080fd5b61131c89838a01611294565b9097509550602088013591508082111561133557600080fd5b5061134288828901611294565b96999598509660400135949350505050565b634e487b7160e01b600052601160045260246000fd5b60008261138757634e487b7160e01b600052601260045260246000fd5b500490565b8181038181111561139f5761139f611354565b92915050565b8082018082111561139f5761139f611354565b6000600182016113ca576113ca611354565b5060010190565b634e487b7160e01b600052603260045260246000fdfea264697066735822122095f9a5970bcfb31bb9efde3a26871b309cc4f3744c08dc5daa9fb031c712b95264736f6c63430008130033",
  "linkReferences": {},
  "deployedLinkReferences": {}
}