{
  "_format": "hh-sol-artifact-1",
  "contractName": "ActionHub",
  "sourceName": "contracts/ActionHub.sol",
  "abi": [
    {
      "inputs": [],
      "stateMutability": "nonpayable",
      "type": "constructor"
    },
    {
      "anonymous": false,
      "inputs": [
        {
          "indexed": true,
          "internalType": "bytes32",
          "name": "actionId",
          "type": "bytes32"
        },
        {
          "indexed": false,
          "internalType": "bool",
          "name": "success",
          "type": "bool"
        }
      ],
      "name": "ActionExecuted",
      "type": "event"
    },
    {
      "anonymous": false,
      "inputs": [
        {
          "indexed": true,
          "internalType": "bytes32",
          "name": "actionId",
          "type": "bytes32"
        },
        {
          "indexed": false,
          "internalType": "enum ActionHub.ActionType",
          "name": "actionType",
          "type": "uint8"
        },
        {
          "indexed": false,
          "internalType": "address",
          "name": "user",
          "type": "address"
        }
      ],
      "name": "ActionRequested",
      "type": "event"
    },
    {
      "inputs": [
        {
          "internalType": "bytes32",
          "name": "",
          "type": "bytes32"
        }
      ],
      "name": "actions",
      "outputs": [
        {
          "internalType": "enum ActionHub.ActionType",
          "name": "actionType",
          "type": "uint8"
        },
        {
          "internalType": "address",
          "name": "initiator",
          "type": "address"
        },
        {
          "internalType": "bytes",
          "name": "parameters",
          "type": "bytes"
        },
        {
          "internalType": "uint256",
          "name": "timestamp",
          "type": "uint256"
        },
        {
          "internalType": "bool",
          "name": "executed",
          "type": "bool"
        },
        {
          "internalType": "bool",
          "name": "success",
          "type": "bool"
        }
      ],
      "stateMutability": "view",
      "type": "function"
    },
    {
      "inputs": [],
      "name": "dexAggregator",
      "outputs": [
        {
          "internalType": "address",
          "name": "",
          "type": "address"
        }
      ],
      "stateMutability": "view",
      "type": "function"
    },
    {
      "inputs": [],
      "name": "emergencyWithdraw",
      "outputs": [],
      "stateMutability": "nonpayable",
      "type": "function"
    },
    {
      "inputs": [
        {
          "internalType": "bytes32",
          "name": "actionId",
          "type": "bytes32"
        }
      ],
      "name": "executeAction",
      "outputs": [],
      "stateMutability": "nonpayable",
      "type": "function"
    },
    {
      "inputs": [],
      "name": "mntExecutor",
      "outputs": [
        {
          "internalType": "address",
          "name": "",
          "type": "address"
        }
      ],
      "stateMutability": "view",
      "type": "function"
    },
    {
      "inputs": [],
      "name": "owner",
      "outputs": [
        {
          "internalType": "address",
          "name": "",
          "type": "address"
        }
      ],
      "stateMutability": "view",
      "type": "function"
    },
    {
      "inputs": [],
      "name": "pause",
      "outputs": [],
      "stateMutability": "nonpayable",
      "type": "function"
    },
    {
      "inputs": [],
      "name": "paused",
      "outputs": [
        {
          "internalType": "bool",
          "name": "",
          "type": "bool"
        }
      ],
      "stateMutability": "view",
      "type": "function"
    },
    {
      "inputs": [
        {
          "internalType": "enum ActionHub.ActionType",
          "name": "actionType",
          "type": "uint8"
        },
        {
          "internalType": "bytes",
          "name": "parameters",
          "type": "bytes"
        }
      ],
      "name": "requestAction",
      "outputs": [
        {
          "internalType": "bytes32",
          "name": "actionId",
          "type": "bytes32"
        }
      ],
      "stateMutability": "nonpayable",
      "type": "function"
    },
    {
      "inputs": [
        {
          "internalType": "address",
          "name": "_mntExecutor",
          "type": "address"
        },
        {
          "internalType": "address",
          "name": "_dexAggregator",
          "type": "address"
        },
        {
          "internalType": "address",
          "name": "_yieldAnalyzer",
          "type": "address"
        }
      ],
      "name": "setExecutors",
      "outputs": [],
      "stateMutability": "nonpayable",
      "type": "function"
    },
    {
      "inputs": [],
      "name": "unpause",
      "outputs": [],
      "stateMutability": "nonpayable",
      "type": "function"
    },
    {
      "inputs": [
        {
          "internalType": "address",
          "name": "",
          "type": "address"
        }
      ],
      "name": "userActionCount",
      "outputs": [
        {
          "internalType": "uint256",
          "name": "",
          "type": "uint256"
        }
      ],
      "stateMutability": "view",
      "type": "function"
    },
    {
      "inputs": [],
      "name": "yieldAnalyzer",
      "outputs": [
        {
          "internalType": "address",
          "name": "",
          "type": "address"
        }
      ],
      "stateMutability": "view",
      "type": "function"
    },
    {
      "stateMutability": "payable",
      "type": "receive"
    }
  ],
  "bytecode": "0x60806040526006805460ff1916905534801561001a57600080fd5b50600080546001600160a01b031916331790556111d88061003c6000396000f3fe6080604052600436106100c65760003560e01c8063be2e939c1161007f578063e125ab9c11610059578063e125ab9c146101fa578063f05944151461021a578063f3abde3214610255578063f922e3371461028757600080fd5b8063be2e939c146101a5578063cf751465146101c5578063db2e21bc146101e557600080fd5b80633f4ba83a146100d25780635c975abb146100e95780637c21d5e0146101185780638456cb59146101505780638da5cb5b14610165578063b934e8d51461018557600080fd5b366100cd57005b600080fd5b3480156100de57600080fd5b506100e76102a7565b005b3480156100f557600080fd5b506006546101039060ff1681565b60405190151581526020015b60405180910390f35b34801561012457600080fd5b50600254610138906001600160a01b031681565b6040516001600160a01b03909116815260200161010f565b34801561015c57600080fd5b506100e76102e6565b34801561017157600080fd5b50600054610138906001600160a01b031681565b34801561019157600080fd5b50600154610138906001600160a01b031681565b3480156101b157600080fd5b506100e76101c0366004610cf2565b61031f565b3480156101d157600080fd5b50600354610138906001600160a01b031681565b3480156101f157600080fd5b506100e7610388565b34801561020657600080fd5b506100e7610215366004610d3d565b6103ef565b34801561022657600080fd5b50610247610235366004610d56565b60056020526000908152604090205481565b60405190815260200161010f565b34801561026157600080fd5b50610275610270366004610d3d565b6107a3565b60405161010f96959493929190610e02565b34801561029357600080fd5b506102476102a2366004610e53565b610875565b6000546001600160a01b031633146102da5760405162461bcd60e51b81526004016102d190610edc565b60405180910390fd5b6006805460ff19169055565b6000546001600160a01b031633146103105760405162461bcd60e51b81526004016102d190610edc565b6006805460ff19166001179055565b6000546001600160a01b031633146103495760405162461bcd60e51b81526004016102d190610edc565b600180546001600160a01b039485166001600160a01b031991821617909155600280549385169382169390931790925560038054919093169116179055565b6000546001600160a01b031633146103b25760405162461bcd60e51b81526004016102d190610edc565b600080546040516001600160a01b03909116914780156108fc02929091818181858888f193505050501580156103ec573d6000803e3d6000fd5b50565b60065460ff161561042b5760405162461bcd60e51b815260206004820152600660248201526514185d5cd95960d21b60448201526064016102d1565b6000818152600460205260409020805461010090046001600160a01b031633146104875760405162461bcd60e51b815260206004820152600d60248201526c2737ba1034b734ba34b0ba37b960991b60448201526064016102d1565b600381015460ff16156104cf5760405162461bcd60e51b815260206004820152601060248201526f105b1c9958591e48195e1958dd5d195960821b60448201526064016102d1565b60028101546104e090610e10610f15565b4211156105195760405162461bcd60e51b8152602060048201526007602482015266115e1c1a5c995960ca1b60448201526064016102d1565b60038101805460ff19166001179055600080825460ff16600281111561054157610541610d7a565b036105e2576105db82600101805461055890610f2e565b80601f016020809104026020016040519081016040528092919081815260200182805461058490610f2e565b80156105d15780601f106105a6576101008083540402835291602001916105d1565b820191906000526020600020905b8154815290600101906020018083116105b457829003601f168201915b5050505050610a7c565b9050610749565b6001825460ff1660028111156105fa576105fa610d7a565b03610694576105db82600101805461061190610f2e565b80601f016020809104026020016040519081016040528092919081815260200182805461063d90610f2e565b801561068a5780601f1061065f5761010080835404028352916020019161068a565b820191906000526020600020905b81548152906001019060200180831161066d57829003601f168201915b5050505050610b5e565b6002825460ff1660028111156106ac576106ac610d7a565b03610749576107468260010180546106c390610f2e565b80601f01602080910402602001604051908101604052809291908181526020018280546106ef90610f2e565b801561073c5780601f106107115761010080835404028352916020019161073c565b820191906000526020600020905b81548152906001019060200180831161071f57829003601f168201915b5050505050610c1b565b90505b6003820180548215156101000261ff001990911617905560405183907fb12281ea66c76b1609101fcbf13999132371c3c868616fe42b5bef60679294079061079690841515815260200190565b60405180910390a2505050565b6004602052600090815260409020805460018201805460ff8316936101009093046001600160a01b03169291906107d990610f2e565b80601f016020809104026020016040519081016040528092919081815260200182805461080590610f2e565b80156108525780601f1061082757610100808354040283529160200191610852565b820191906000526020600020905b81548152906001019060200180831161083557829003601f168201915b50505050600283015460039093015491929160ff80821692506101009091041686565b60065460009060ff16156108b45760405162461bcd60e51b815260206004820152600660248201526514185d5cd95960d21b60448201526064016102d1565b336000818152600560209081526040918290205491516108df93928892889288924292909101610f68565b6040516020818303038152906040528051906020012090506040518060c0016040528085600281111561091457610914610d7a565b8152602001336001600160a01b0316815260200184848080601f01602080910402602001604051908101604052809392919081815260200183838082843760009201829052509385525050426020808501919091526040808501849052606090940183905285835260049052502081518154829060ff191660018360028111156109a0576109a0610d7a565b0217905550602082015181546001600160a01b0390911661010002610100600160a81b0319909116178155604082015160018201906109df908261102d565b506060820151600282015560808201516003909101805460a09093015115156101000261ff00199215159290921661ffff1990931692909217179055336000908152600560205260408120805491610a36836110ed565b9190505550807fd3f009c9ce776eff3b8e3a6fd5d9060eebf13659d56484ff93c8db2348dce30f8533604051610a6d929190611106565b60405180910390a29392505050565b6001546000906001600160a01b0316610a9757506000919050565b60008083806020019051810190610aae919061112c565b6001546040516001600160a01b038085166024830152604482018490529395509193506000921690839060640160408051601f198184030181529181526020820180516001600160e01b031663a9059cbb60e01b17905251610b10919061115a565b60006040518083038185875af1925050503d8060008114610b4d576040519150601f19603f3d011682016040523d82523d6000602084013e610b52565b606091505b50909695505050505050565b6002546000906001600160a01b0316610b7957506000919050565b6002546040516000916001600160a01b031690610b9a908590602401611176565b60408051601f198184030181529181526020820180516001600160e01b031663985f61a160e01b17905251610bcf919061115a565b6000604051808303816000865af19150503d8060008114610c0c576040519150601f19603f3d011682016040523d82523d6000602084013e610c11565b606091505b5090949350505050565b6003546000906001600160a01b0316610c3657506000919050565b60035482516000916001600160a01b031690610c5b9085016020908101908601611189565b604051602401610c6d91815260200190565b60408051601f198184030181529181526020820180516001600160e01b031663ae11d78d60e01b17905251610ca2919061115a565b600060405180830381855afa9150503d8060008114610c0c576040519150601f19603f3d011682016040523d82523d6000602084013e610c11565b6001600160a01b03811681146103ec57600080fd5b600080600060608486031215610d0757600080fd5b8335610d1281610cdd565b92506020840135610d2281610cdd565b91506040840135610d3281610cdd565b809150509250925092565b600060208284031215610d4f57600080fd5b5035919050565b600060208284031215610d6857600080fd5b8135610d7381610cdd565b9392505050565b634e487b7160e01b600052602160045260246000fd5b60038110610dae57634e487b7160e01b600052602160045260246000fd5b9052565b60005b83811015610dcd578181015183820152602001610db5565b50506000910152565b60008151808452610dee816020860160208601610db2565b601f01601f19169290920160200192915050565b610e0c8188610d90565b6001600160a01b038616602082015260c060408201819052600090610e3390830187610dd6565b6060830195909552509115156080830152151560a0909101529392505050565b600080600060408486031215610e6857600080fd5b833560038110610e7757600080fd5b9250602084013567ffffffffffffffff80821115610e9457600080fd5b818601915086601f830112610ea857600080fd5b813581811115610eb757600080fd5b876020828501011115610ec957600080fd5b6020830194508093505050509250925092565b6020808252600990820152682737ba1037bbb732b960b91b604082015260600190565b634e487b7160e01b600052601160045260246000fd5b80820180821115610f2857610f28610eff565b92915050565b600181811c90821680610f4257607f821691505b602082108103610f6257634e487b7160e01b600052602260045260246000fd5b50919050565b6bffffffffffffffffffffffff198760601b168152600060038710610f9d57634e487b7160e01b600052602160045260246000fd5b8660f81b60148301528486601584013750601593019283019190915260358201526055019392505050565b634e487b7160e01b600052604160045260246000fd5b601f82111561102857600081815260208120601f850160051c810160208610156110055750805b601f850160051c820191505b8181101561102457828155600101611011565b5050505b505050565b815167ffffffffffffffff81111561104757611047610fc8565b61105b816110558454610f2e565b84610fde565b602080601f83116001811461109057600084156110785750858301515b600019600386901b1c1916600185901b178555611024565b600085815260208120601f198616915b828110156110bf578886015182559484019460019091019084016110a0565b50858210156110dd5787850151600019600388901b60f8161c191681555b5050505050600190811b01905550565b6000600182016110ff576110ff610eff565b5060010190565b604081016111148285610d90565b6001600160a01b039290921660209190910152919050565b6000806040838503121561113f57600080fd5b825161114a81610cdd565b6020939093015192949293505050565b6000825161116c818460208701610db2565b9190910192915050565b602081526000610d736020830184610dd6565b60006020828403121561119b57600080fd5b505191905056fea2646970667358221220d86de5327e6bd49dd50047f16a0b9a77248a268574f93634e481214fedea2c9064736f6c63430008130033",
  "linkReferences": {},
  "deployedLinkReferences": {}
}